###############################################################################
#
# IAR ELF Linker V7.20.1.7305/W32 for ARM                 23/Jul/2014  14:51:07
# Copyright 2007-2014 IAR Systems AB.
#
#    Output file  =  
#        C:\Users\kammen\Documents\display-demo\STM32F429I-Discovery_FW_V1.0.1\Projects\Demonstration\EWARM\STM32F429I-Discovery_Demo\Exe\STM32F429I-Discovery_Demo.out
#    Map file     =  
#        C:\Users\kammen\Documents\display-demo\STM32F429I-Discovery_FW_V1.0.1\Projects\Demonstration\EWARM\STM32F429I-Discovery_Demo\List\STM32F429I-Discovery_Demo.map
#    Command line =  
#        C:\Users\kammen\Documents\display-demo\STM32F429I-Discovery_FW_V1.0.1\Projects\Demonstration\EWARM\STM32F429I-Discovery_Demo\Obj\bsp.o
#        C:\Users\kammen\Documents\display-demo\STM32F429I-Discovery_FW_V1.0.1\Projects\Demonstration\EWARM\STM32F429I-Discovery_Demo\Obj\Carbs_Screen1DLG.o
#        C:\Users\kammen\Documents\display-demo\STM32F429I-Discovery_FW_V1.0.1\Projects\Demonstration\EWARM\STM32F429I-Discovery_Demo\Obj\Carbs_Screen2DLG.o
#        C:\Users\kammen\Documents\display-demo\STM32F429I-Discovery_FW_V1.0.1\Projects\Demonstration\EWARM\STM32F429I-Discovery_Demo\Obj\Carbs_Screen3DLG.o
#        C:\Users\kammen\Documents\display-demo\STM32F429I-Discovery_FW_V1.0.1\Projects\Demonstration\EWARM\STM32F429I-Discovery_Demo\Obj\common_res.o
#        C:\Users\kammen\Documents\display-demo\STM32F429I-Discovery_FW_V1.0.1\Projects\Demonstration\EWARM\STM32F429I-Discovery_Demo\Obj\cpu_utils.o
#        C:\Users\kammen\Documents\display-demo\STM32F429I-Discovery_FW_V1.0.1\Projects\Demonstration\EWARM\STM32F429I-Discovery_Demo\Obj\croutine.o
#        C:\Users\kammen\Documents\display-demo\STM32F429I-Discovery_FW_V1.0.1\Projects\Demonstration\EWARM\STM32F429I-Discovery_Demo\Obj\demo_menu.o
#        C:\Users\kammen\Documents\display-demo\STM32F429I-Discovery_FW_V1.0.1\Projects\Demonstration\EWARM\STM32F429I-Discovery_Demo\Obj\fatfs_drv.o
#        C:\Users\kammen\Documents\display-demo\STM32F429I-Discovery_FW_V1.0.1\Projects\Demonstration\EWARM\STM32F429I-Discovery_Demo\Obj\ff.o
#        C:\Users\kammen\Documents\display-demo\STM32F429I-Discovery_FW_V1.0.1\Projects\Demonstration\EWARM\STM32F429I-Discovery_Demo\Obj\file_utils.o
#        C:\Users\kammen\Documents\display-demo\STM32F429I-Discovery_FW_V1.0.1\Projects\Demonstration\EWARM\STM32F429I-Discovery_Demo\Obj\Glucose_Screen1DLG.o
#        C:\Users\kammen\Documents\display-demo\STM32F429I-Discovery_FW_V1.0.1\Projects\Demonstration\EWARM\STM32F429I-Discovery_Demo\Obj\Glucose_Screen2DLG.o
#        C:\Users\kammen\Documents\display-demo\STM32F429I-Discovery_FW_V1.0.1\Projects\Demonstration\EWARM\STM32F429I-Discovery_Demo\Obj\GUI_X_FreeRTOS.o
#        C:\Users\kammen\Documents\display-demo\STM32F429I-Discovery_FW_V1.0.1\Projects\Demonstration\EWARM\STM32F429I-Discovery_Demo\Obj\GUIConf.o
#        C:\Users\kammen\Documents\display-demo\STM32F429I-Discovery_FW_V1.0.1\Projects\Demonstration\EWARM\STM32F429I-Discovery_Demo\Obj\GUIDRV_stm32f429i_discovery.o
#        C:\Users\kammen\Documents\display-demo\STM32F429I-Discovery_FW_V1.0.1\Projects\Demonstration\EWARM\STM32F429I-Discovery_Demo\Obj\heap_2.o
#        C:\Users\kammen\Documents\display-demo\STM32F429I-Discovery_FW_V1.0.1\Projects\Demonstration\EWARM\STM32F429I-Discovery_Demo\Obj\list.o
#        C:\Users\kammen\Documents\display-demo\STM32F429I-Discovery_FW_V1.0.1\Projects\Demonstration\EWARM\STM32F429I-Discovery_Demo\Obj\main.o
#        C:\Users\kammen\Documents\display-demo\STM32F429I-Discovery_FW_V1.0.1\Projects\Demonstration\EWARM\STM32F429I-Discovery_Demo\Obj\misc.o
#        C:\Users\kammen\Documents\display-demo\STM32F429I-Discovery_FW_V1.0.1\Projects\Demonstration\EWARM\STM32F429I-Discovery_Demo\Obj\port_cm4.o
#        C:\Users\kammen\Documents\display-demo\STM32F429I-Discovery_FW_V1.0.1\Projects\Demonstration\EWARM\STM32F429I-Discovery_Demo\Obj\portasm_cm4.o
#        C:\Users\kammen\Documents\display-demo\STM32F429I-Discovery_FW_V1.0.1\Projects\Demonstration\EWARM\STM32F429I-Discovery_Demo\Obj\queue.o
#        C:\Users\kammen\Documents\display-demo\STM32F429I-Discovery_FW_V1.0.1\Projects\Demonstration\EWARM\STM32F429I-Discovery_Demo\Obj\rtc.o
#        C:\Users\kammen\Documents\display-demo\STM32F429I-Discovery_FW_V1.0.1\Projects\Demonstration\EWARM\STM32F429I-Discovery_Demo\Obj\Safety_Screen1DLG.o
#        C:\Users\kammen\Documents\display-demo\STM32F429I-Discovery_FW_V1.0.1\Projects\Demonstration\EWARM\STM32F429I-Discovery_Demo\Obj\Safety_Screen2DLG.o
#        C:\Users\kammen\Documents\display-demo\STM32F429I-Discovery_FW_V1.0.1\Projects\Demonstration\EWARM\STM32F429I-Discovery_Demo\Obj\Safety_Screen3DLG.o
#        C:\Users\kammen\Documents\display-demo\STM32F429I-Discovery_FW_V1.0.1\Projects\Demonstration\EWARM\STM32F429I-Discovery_Demo\Obj\Safety_Screen4DLG.o
#        C:\Users\kammen\Documents\display-demo\STM32F429I-Discovery_FW_V1.0.1\Projects\Demonstration\EWARM\STM32F429I-Discovery_Demo\Obj\Safety_Screen5DLG.o
#        C:\Users\kammen\Documents\display-demo\STM32F429I-Discovery_FW_V1.0.1\Projects\Demonstration\EWARM\STM32F429I-Discovery_Demo\Obj\Safety_Screen6DLG.o
#        C:\Users\kammen\Documents\display-demo\STM32F429I-Discovery_FW_V1.0.1\Projects\Demonstration\EWARM\STM32F429I-Discovery_Demo\Obj\Safety_Screen7DLG.o
#        C:\Users\kammen\Documents\display-demo\STM32F429I-Discovery_FW_V1.0.1\Projects\Demonstration\EWARM\STM32F429I-Discovery_Demo\Obj\Settings_Screen1DLG.o
#        C:\Users\kammen\Documents\display-demo\STM32F429I-Discovery_FW_V1.0.1\Projects\Demonstration\EWARM\STM32F429I-Discovery_Demo\Obj\startup_stm32f429_439xx.o
#        C:\Users\kammen\Documents\display-demo\STM32F429I-Discovery_FW_V1.0.1\Libraries\STemWinLibrary522_4x9i\Lib\STemWin522_4x9i_CM4_OS_IAR.a
#        C:\Users\kammen\Documents\display-demo\STM32F429I-Discovery_FW_V1.0.1\Projects\Demonstration\EWARM\STM32F429I-Discovery_Demo\Obj\stm32f429i_discovery.o
#        C:\Users\kammen\Documents\display-demo\STM32F429I-Discovery_FW_V1.0.1\Projects\Demonstration\EWARM\STM32F429I-Discovery_Demo\Obj\stm32f429i_discovery_ioe.o
#        C:\Users\kammen\Documents\display-demo\STM32F429I-Discovery_FW_V1.0.1\Projects\Demonstration\EWARM\STM32F429I-Discovery_Demo\Obj\stm32f429i_discovery_l3gd20.o
#        C:\Users\kammen\Documents\display-demo\STM32F429I-Discovery_FW_V1.0.1\Projects\Demonstration\EWARM\STM32F429I-Discovery_Demo\Obj\stm32f429i_discovery_lcd.o
#        C:\Users\kammen\Documents\display-demo\STM32F429I-Discovery_FW_V1.0.1\Projects\Demonstration\EWARM\STM32F429I-Discovery_Demo\Obj\stm32f429i_discovery_sdram.o
#        C:\Users\kammen\Documents\display-demo\STM32F429I-Discovery_FW_V1.0.1\Projects\Demonstration\EWARM\STM32F429I-Discovery_Demo\Obj\stm32f4xx_adc.o
#        C:\Users\kammen\Documents\display-demo\STM32F429I-Discovery_FW_V1.0.1\Projects\Demonstration\EWARM\STM32F429I-Discovery_Demo\Obj\stm32f4xx_dcmi.o
#        C:\Users\kammen\Documents\display-demo\STM32F429I-Discovery_FW_V1.0.1\Projects\Demonstration\EWARM\STM32F429I-Discovery_Demo\Obj\stm32f4xx_dma.o
#        C:\Users\kammen\Documents\display-demo\STM32F429I-Discovery_FW_V1.0.1\Projects\Demonstration\EWARM\STM32F429I-Discovery_Demo\Obj\stm32f4xx_dma2d.o
#        C:\Users\kammen\Documents\display-demo\STM32F429I-Discovery_FW_V1.0.1\Projects\Demonstration\EWARM\STM32F429I-Discovery_Demo\Obj\stm32f4xx_exti.o
#        C:\Users\kammen\Documents\display-demo\STM32F429I-Discovery_FW_V1.0.1\Projects\Demonstration\EWARM\STM32F429I-Discovery_Demo\Obj\stm32f4xx_flash.o
#        C:\Users\kammen\Documents\display-demo\STM32F429I-Discovery_FW_V1.0.1\Projects\Demonstration\EWARM\STM32F429I-Discovery_Demo\Obj\stm32f4xx_fmc.o
#        C:\Users\kammen\Documents\display-demo\STM32F429I-Discovery_FW_V1.0.1\Projects\Demonstration\EWARM\STM32F429I-Discovery_Demo\Obj\stm32f4xx_gpio.o
#        C:\Users\kammen\Documents\display-demo\STM32F429I-Discovery_FW_V1.0.1\Projects\Demonstration\EWARM\STM32F429I-Discovery_Demo\Obj\stm32f4xx_i2c.o
#        C:\Users\kammen\Documents\display-demo\STM32F429I-Discovery_FW_V1.0.1\Projects\Demonstration\EWARM\STM32F429I-Discovery_Demo\Obj\stm32f4xx_ltdc.o
#        C:\Users\kammen\Documents\display-demo\STM32F429I-Discovery_FW_V1.0.1\Projects\Demonstration\EWARM\STM32F429I-Discovery_Demo\Obj\stm32f4xx_pwr.o
#        C:\Users\kammen\Documents\display-demo\STM32F429I-Discovery_FW_V1.0.1\Projects\Demonstration\EWARM\STM32F429I-Discovery_Demo\Obj\stm32f4xx_rcc.o
#        C:\Users\kammen\Documents\display-demo\STM32F429I-Discovery_FW_V1.0.1\Projects\Demonstration\EWARM\STM32F429I-Discovery_Demo\Obj\stm32f4xx_rng.o
#        C:\Users\kammen\Documents\display-demo\STM32F429I-Discovery_FW_V1.0.1\Projects\Demonstration\EWARM\STM32F429I-Discovery_Demo\Obj\stm32f4xx_rtc.o
#        C:\Users\kammen\Documents\display-demo\STM32F429I-Discovery_FW_V1.0.1\Projects\Demonstration\EWARM\STM32F429I-Discovery_Demo\Obj\stm32f4xx_sdio.o
#        C:\Users\kammen\Documents\display-demo\STM32F429I-Discovery_FW_V1.0.1\Projects\Demonstration\EWARM\STM32F429I-Discovery_Demo\Obj\stm32f4xx_spi.o
#        C:\Users\kammen\Documents\display-demo\STM32F429I-Discovery_FW_V1.0.1\Projects\Demonstration\EWARM\STM32F429I-Discovery_Demo\Obj\stm32f4xx_syscfg.o
#        C:\Users\kammen\Documents\display-demo\STM32F429I-Discovery_FW_V1.0.1\Projects\Demonstration\EWARM\STM32F429I-Discovery_Demo\Obj\stm32f4xx_tim.o
#        C:\Users\kammen\Documents\display-demo\STM32F429I-Discovery_FW_V1.0.1\Projects\Demonstration\EWARM\STM32F429I-Discovery_Demo\Obj\stm32f4xx_usart.o
#        C:\Users\kammen\Documents\display-demo\STM32F429I-Discovery_FW_V1.0.1\Projects\Demonstration\EWARM\STM32F429I-Discovery_Demo\Obj\stm32xxx_it.o
#        C:\Users\kammen\Documents\display-demo\STM32F429I-Discovery_FW_V1.0.1\Projects\Demonstration\EWARM\STM32F429I-Discovery_Demo\Obj\str_utils.o
#        C:\Users\kammen\Documents\display-demo\STM32F429I-Discovery_FW_V1.0.1\Projects\Demonstration\EWARM\STM32F429I-Discovery_Demo\Obj\syscall.o
#        C:\Users\kammen\Documents\display-demo\STM32F429I-Discovery_FW_V1.0.1\Projects\Demonstration\EWARM\STM32F429I-Discovery_Demo\Obj\system_stm32f4xx.o
#        C:\Users\kammen\Documents\display-demo\STM32F429I-Discovery_FW_V1.0.1\Projects\Demonstration\EWARM\STM32F429I-Discovery_Demo\Obj\tasks.o
#        C:\Users\kammen\Documents\display-demo\STM32F429I-Discovery_FW_V1.0.1\Projects\Demonstration\EWARM\STM32F429I-Discovery_Demo\Obj\test_program.o
#        C:\Users\kammen\Documents\display-demo\STM32F429I-Discovery_FW_V1.0.1\Projects\Demonstration\EWARM\STM32F429I-Discovery_Demo\Obj\time_utils.o
#        C:\Users\kammen\Documents\display-demo\STM32F429I-Discovery_FW_V1.0.1\Projects\Demonstration\EWARM\STM32F429I-Discovery_Demo\Obj\timers.o
#        C:\Users\kammen\Documents\display-demo\STM32F429I-Discovery_FW_V1.0.1\Projects\Demonstration\EWARM\STM32F429I-Discovery_Demo\Obj\usb_bsp.o
#        C:\Users\kammen\Documents\display-demo\STM32F429I-Discovery_FW_V1.0.1\Projects\Demonstration\EWARM\STM32F429I-Discovery_Demo\Obj\usb_core.o
#        C:\Users\kammen\Documents\display-demo\STM32F429I-Discovery_FW_V1.0.1\Projects\Demonstration\EWARM\STM32F429I-Discovery_Demo\Obj\usb_dcd.o
#        C:\Users\kammen\Documents\display-demo\STM32F429I-Discovery_FW_V1.0.1\Projects\Demonstration\EWARM\STM32F429I-Discovery_Demo\Obj\usb_dcd_int.o
#        C:\Users\kammen\Documents\display-demo\STM32F429I-Discovery_FW_V1.0.1\Projects\Demonstration\EWARM\STM32F429I-Discovery_Demo\Obj\usb_hcd.o
#        C:\Users\kammen\Documents\display-demo\STM32F429I-Discovery_FW_V1.0.1\Projects\Demonstration\EWARM\STM32F429I-Discovery_Demo\Obj\usb_hcd_int.o
#        C:\Users\kammen\Documents\display-demo\STM32F429I-Discovery_FW_V1.0.1\Projects\Demonstration\EWARM\STM32F429I-Discovery_Demo\Obj\usbd_core.o
#        C:\Users\kammen\Documents\display-demo\STM32F429I-Discovery_FW_V1.0.1\Projects\Demonstration\EWARM\STM32F429I-Discovery_Demo\Obj\usbd_desc.o
#        C:\Users\kammen\Documents\display-demo\STM32F429I-Discovery_FW_V1.0.1\Projects\Demonstration\EWARM\STM32F429I-Discovery_Demo\Obj\usbd_hid_core.o
#        C:\Users\kammen\Documents\display-demo\STM32F429I-Discovery_FW_V1.0.1\Projects\Demonstration\EWARM\STM32F429I-Discovery_Demo\Obj\usbd_ioreq.o
#        C:\Users\kammen\Documents\display-demo\STM32F429I-Discovery_FW_V1.0.1\Projects\Demonstration\EWARM\STM32F429I-Discovery_Demo\Obj\usbd_req.o
#        C:\Users\kammen\Documents\display-demo\STM32F429I-Discovery_FW_V1.0.1\Projects\Demonstration\EWARM\STM32F429I-Discovery_Demo\Obj\usbd_usr.o
#        C:\Users\kammen\Documents\display-demo\STM32F429I-Discovery_FW_V1.0.1\Projects\Demonstration\EWARM\STM32F429I-Discovery_Demo\Obj\usbh_core.o
#        C:\Users\kammen\Documents\display-demo\STM32F429I-Discovery_FW_V1.0.1\Projects\Demonstration\EWARM\STM32F429I-Discovery_Demo\Obj\usbh_hcs.o
#        C:\Users\kammen\Documents\display-demo\STM32F429I-Discovery_FW_V1.0.1\Projects\Demonstration\EWARM\STM32F429I-Discovery_Demo\Obj\usbh_ioreq.o
#        C:\Users\kammen\Documents\display-demo\STM32F429I-Discovery_FW_V1.0.1\Projects\Demonstration\EWARM\STM32F429I-Discovery_Demo\Obj\usbh_msc_bot.o
#        C:\Users\kammen\Documents\display-demo\STM32F429I-Discovery_FW_V1.0.1\Projects\Demonstration\EWARM\STM32F429I-Discovery_Demo\Obj\usbh_msc_core.o
#        C:\Users\kammen\Documents\display-demo\STM32F429I-Discovery_FW_V1.0.1\Projects\Demonstration\EWARM\STM32F429I-Discovery_Demo\Obj\usbh_msc_scsi.o
#        C:\Users\kammen\Documents\display-demo\STM32F429I-Discovery_FW_V1.0.1\Projects\Demonstration\EWARM\STM32F429I-Discovery_Demo\Obj\usbh_stdreq.o
#        C:\Users\kammen\Documents\display-demo\STM32F429I-Discovery_FW_V1.0.1\Projects\Demonstration\EWARM\STM32F429I-Discovery_Demo\Obj\usbh_usr.o
#        --redirect _Printf=_PrintfFull --redirect _Scanf=_ScanfFull -o
#        C:\Users\kammen\Documents\display-demo\STM32F429I-Discovery_FW_V1.0.1\Projects\Demonstration\EWARM\STM32F429I-Discovery_Demo\Exe\STM32F429I-Discovery_Demo.out
#        --map
#        C:\Users\kammen\Documents\display-demo\STM32F429I-Discovery_FW_V1.0.1\Projects\Demonstration\EWARM\STM32F429I-Discovery_Demo\List\STM32F429I-Discovery_Demo.map
#        --config
#        C:\Users\kammen\Documents\display-demo\STM32F429I-Discovery_FW_V1.0.1\Projects\Demonstration\EWARM\stm32f4xx_flash.icf
#        --semihosting --entry __iar_program_start --redirect
#        __write=__write_buffered --vfe
#
###############################################################################

*******************************************************************************
*** RUNTIME MODEL ATTRIBUTES
***

CppFlavor                     = *
__Heap_Handler                = Basic
__SystemLibrary               = DLib
__dlib_dynamic_initialization = normal


*******************************************************************************
*** PLACEMENT SUMMARY
***

"A1":  place at 0x08000000 { ro section .intvec };
"P1":  place in [from 0x08000000 to 0x081fffff] { ro };
"P2":  place in [from 0x20000000 to 0x2002ffff] { rw, block CSTACK, block HEAP };

  Section             Kind        Address      Size  Object
  -------             ----        -------      ----  ------
"A1":                                         0x1ac
  .intvec             ro code  0x08000000     0x1ac  startup_stm32f429_439xx.o [1]
                             - 0x080001ac     0x1ac

"P1":                                       0x4120d
  .rodata             const    0x080001ac   0x157ac  demo_menu.o [1]
  .rodata             const    0x08015958    0x1ea8  F32B_ASCII.o [3]
  .text               ro code  0x08017800    0x17d4  WM.o [3]
  .text               ro code  0x08018fd4     0x9e0  GUI_Alloc.o [3]
  .text               ro code  0x080199b4      0x60  GUI__IntersectRects.o [3]
  .text               ro code  0x08019a14      0x54  GUI_MergeRect.o [3]
  .text               ro code  0x08019a68      0x14  GUI_WaitEvent.o [3]
  .text               ro code  0x08019a7c      0x34  LCD_SetClipRectEx.o [3]
  .text               ro code  0x08019ab0      0x1c  GUI_MoveRect.o [3]
  .text               ro code  0x08019acc      0x40  GUI__IntersectRect.o [3]
  .text               ro code  0x08019b0c     0x398  GUIDEV.o [3]
  .text               ro code  0x08019ea4      0x1a  WM_GetFirstChild.o [3]
  .text               ro code  0x08019ebe      0x38  GUI_RectsIntersect.o [3]
  .text               ro code  0x08019ef6      0x22  zero_init3.o [6]
  .text               ro code  0x08019f18     0x188  GUI_Task.o [3]
  .text               ro code  0x0801a0a0      0x40  WM__SendMessage.o [3]
  .text               ro code  0x0801a0e0      0x32  GUI_ALLOC_AllocZero.o [3]
  .text               ro code  0x0801a112      0x12  GUICC_M888_Index2Color.o [3]
  .text               ro code  0x0801a124      0x8a  GUI_SelectLayer.o [3]
  .text               ro code  0x0801a1ae       0xa  WIDGET_Effect_None.o [3]
  .text               ro code  0x0801a1b8     0x808  LCD.o [3]
  .text               ro code  0x0801a9c0      0x8c  WM_BringToBottom.o [3]
  .text               ro code  0x0801aa4c     0x17a  WM_Timer.o [3]
  .text               ro code  0x0801abc6      0x14  WM_NotifyParent.o [3]
  .text               ro code  0x0801abda      0x1e  WM_SendMessageNoPara.o [3]
  .text               ro code  0x0801abf8      0x44  GUI_SetDefault.o [3]
  .text               ro code  0x0801ac3c     0x128  GUIDEV_Banding.o [3]
  .text               ro code  0x0801ad64      0x1c  GUI_SaveContext.o [3]
  .text               ro code  0x0801ad80      0x2c  GUI_SetColor.o [3]
  .text               ro code  0x0801adac      0x44  GUI_OnKey.o [3]
  .text               ro code  0x0801adf0      0xc8  GUI__ManageCache.o [3]
  .text               ro code  0x0801aeb8     0x228  GUI_Core.o [3]
  .text               ro code  0x0801b0e0      0x2c  WM_SendToParent.o [3]
  .text               ro code  0x0801b10c      0xa0  WM_GetClientRect.o [3]
  .text               ro code  0x0801b1ac     0x2b8  GUI_Device.o [3]
  .text               ro code  0x0801b464      0x50  WM_CriticalHandle.o [3]
  .text               ro code  0x0801b4b4      0x78  ABImemmove_unaligned.o [6]
  .text               ro code  0x0801b52c       0x6  ABImemclr.o [6]
  .text               ro code  0x0801b532       0xa  xsprout.o [4]
  .text               ro code  0x0801b53c     0x108  GUI__memset.o [3]
  .text               ro code  0x0801b644      0x76  ABImemcpy_unaligned.o [6]
  .text               ro code  0x0801b6ba       0x2  GUICC_8888_Index2Color.o [3]
  .text               ro code  0x0801b6bc     0x27e  LCD_GetEx.o [3]
  .text               ro code  0x0801b93a       0x2  GUICC_888_Index2Color.o [3]
  .text               ro code  0x0801b93c     0x210  GUIDEV_UsageBM.o [3]
  .text               ro code  0x0801bb4c      0x1e  GUI_SelectLCD.o [3]
  .text               ro code  0x0801bb6c      0x60  GUIDEV_Usage.o [3]
  .text               ro code  0x0801bbcc      0x24  LCD_UpdateColorIndices.o [3]
  .text               ro code  0x0801bbf0      0x18  GUI_SetDrawMode.o [3]
  .text               ro code  0x0801bc08     0x698  GUIDEV_WriteToActiveOpaque.o [3]
  .text               ro code  0x0801c2a0      0x88  GUI_X_FreeRTOS.o [1]
  .text               ro code  0x0801c328     0x15a  LCD_Set.o [3]
  .text               ro code  0x0801c484     0x150  LCD_Color.o [3]
  .text               ro code  0x0801c5d4      0x2a  WM__GetPrevSibling.o [3]
  .text               ro code  0x0801c5fe      0x1a  WM_GetParent.o [3]
  .text               ro code  0x0801c618     0x3a2  GUI_Timer.o [3]
  .text               ro code  0x0801c9bc      0x68  GUI_Time.o [3]
  .text               ro code  0x0801ca24      0x2c  WM__SendMessageNoPara.o [3]
  .text               ro code  0x0801ca50      0x20  GUI_Pen.o [3]
  .text               ro code  0x0801ca70      0x24  GUI_SetTextAlign.o [3]
  .text               ro code  0x0801ca94      0x24  GUI_SetTextMode.o [3]
  .text               ro code  0x0801cab8      0x24  GUI_SetFont.o [3]
  .text               ro code  0x0801cadc      0x20  GUI_SetLineStyle.o [3]
  .text               ro code  0x0801cafc      0x30  GUI_GetOrg.o [3]
  .text               ro code  0x0801cb2c      0x38  GUIDEV_GetYSize.o [3]
  .text               ro code  0x0801cb64      0x3c  GUIDEV_ReduceYSize.o [3]
  .text               ro code  0x0801cba0      0x74  GUIDEV_SetOrg.o [3]
  .text               ro code  0x0801cc14      0x48  GUIDEV_Clear.o [3]
  .text               ro code  0x0801cc5c      0x40  WM_OnKey.o [3]
  .text               ro code  0x0801cc9c      0x24  GUI_Goto.o [3]
  .text               ro code  0x0801ccc0      0x18  GUIConf.o [1]
  .text               ro code  0x0801ccd8    0x10f4  GUIDRV_stm32f429i_discovery.o [1]
  .text               ro code  0x0801ddcc      0x18  WM_GetDesktopWindow.o [3]
  .text               ro code  0x0801dde4      0x44  GUI_SetOrg.o [3]
  .text               ro code  0x0801de28      0x66  ABImemset.o [6]
  .text               ro code  0x0801de90      0x44  LCD_SelectLCD.o [3]
  .text               ro code  0x0801ded4      0x26  GUIDEV_GetDataPtr.o [3]
  .text               ro code  0x0801defc     0x280  GUI__CompactPixelIndices.o [3]
  .text               ro code  0x0801e17c     0x94c  tasks.o [1]
  .text               ro code  0x0801eac8     0x670  queue.o [1]
  .text               ro code  0x0801f138      0x1c  LCD_GetNumDisplays.o [3]
  .text               ro code  0x0801f154      0x14  WM__GetFirstSibling.o [3]
  .text               ro code  0x0801f168      0x34  GUI_Exec.o [3]
  .text               ro code  0x0801f19c     0x18c  stm32f4xx_ltdc.o [1]
  .text               ro code  0x0801f328    0x14a4  stm32f429i_discovery_lcd.o [1]
  .text               ro code  0x080207cc      0x18  stm32f4xx_dma2d.o [1]
  .text               ro code  0x080207e4      0x18  GUI_GetDrawMode.o [3]
  .text               ro code  0x080207fc      0x28  GUI_MULTIBUF.o [3]
  .text               ro code  0x08020824     0x120  GUICC_M1555I.o [3]
  .text               ro code  0x08020944      0xd8  GUICC_M565.o [3]
  .text               ro code  0x08020a1c     0x130  GUICC_M4444I.o [3]
  .text               ro code  0x08020b4c      0x80  GUICC_M888.o [3]
  .text               ro code  0x08020bcc      0xd8  GUICC_M8888I.o [3]
  .text               ro code  0x08020ca4     0x44c  GUI__Alpha.o [3]
  .text               ro code  0x080210f0     0x160  heap_2.o [1]
  .text               ro code  0x08021250      0x3a  ABImemset48.o [6]
  .text               ro code  0x0802128c      0x6c  strncpy_unaligned.o [6]
  .text               ro code  0x080212f8      0xc8  list.o [1]
  .text               ro code  0x080213c0      0xc4  port_cm4.o [1]
  .text               ro code  0x08021484     0x348  timers.o [1]
  CODE                ro code  0x080217cc      0xa0  portasm_cm4.o [1]
  .text               ro code  0x0802186c      0x80  cpu_utils.o [1]
  .text               ro code  0x080218ec      0xac  stm32f4xx_gpio.o [1]
  .text               ro code  0x08021998     0x1b0  stm32f4xx_rcc.o [1]
  .text               ro code  0x08021b48     0x374  stm32f429i_discovery_sdram.o [1]
  .text               ro code  0x08021ebc     0x11e  stm32f4xx_spi.o [1]
  .text               ro code  0x08021fdc     0x1f0  LCD_ReadRect.o [3]
  .text               ro code  0x080221cc     0x23e  GUI__ExpandPixelIndices.o [3]
  .text               ro code  0x0802240c     0x1bc  main.o [1]
  .text               ro code  0x080225c8     0x11c  stm32f4xx_fmc.o [1]
  .text               ro code  0x080226e4      0x7c  misc.o [1]
  .text               ro code  0x08022760      0x24  test_program.o [1]
  .text               ro code  0x08022784     0x135  stm32f429i_discovery.o [1]
  .text               ro code  0x080228bc     0x12a  bsp.o [1]
  .text               ro code  0x080229e8     0x188  PROGBAR_Skin.o [3]
  .text               ro code  0x08022b70     0x204  RADIO_Skin.o [3]
  .text               ro code  0x08022d74     0x27c  SCROLLBAR_Skin.o [3]
  .text               ro code  0x08022ff0     0x21c  SLIDER_Skin.o [3]
  .text               ro code  0x0802320c     0x19c  SPINBOX_Skin.o [3]
  .text               ro code  0x080233a8      0xcc  BUTTON_Skin.o [3]
  .text               ro code  0x08023474     0x19c  demo_menu.o [1]
  .text               ro code  0x08023610      0x28  stm32f4xx_syscfg.o [1]
  .text               ro code  0x08023638      0x7c  stm32f4xx_exti.o [1]
  .text               ro code  0x080236b4     0x6ac  stm32f429i_discovery_ioe.o [1]
  .text               ro code  0x08023d60      0x98  usbh_core.o [1]
  .text               ro code  0x08023df8     0x168  rtc.o [1]
  .text               ro code  0x08023f60      0x2c  GUI_TOUCH.o [3]
  .text               ro code  0x08023f8c      0xd4  PROGBAR.o [3]
  .text               ro code  0x08024060      0x1a  GUI__ReduceRect.o [3]
  .text               ro code  0x0802407c      0x24  WM_SetUserClipRect.o [3]
  .text               ro code  0x080240a0      0x26  RADIO.o [3]
  .text               ro code  0x080240c8      0x3c  GUI_GetFontInfo.o [3]
  .text               ro code  0x08024104      0x9c  GUI_Char.o [3]
  .text               ro code  0x080241a0     0x140  GUI_ARRAY.o [3]
  .text               ro code  0x080242e0      0x14  GUI_GetStringDistX.o [3]
  .text               ro code  0x080242f4      0xfe  WM_GetScrollbar.o [3]
  .text               ro code  0x080243f4      0x62  WM_GetWindowRect.o [3]
  .text               ro code  0x08024458     0x814  SCROLLBAR.o [3]
  .text               ro code  0x08024c6c      0x1e  GUI__DivideRound32.o [3]
  .text               ro code  0x08024c8c     0x500  WIDGET.o [3]
  .text               ro code  0x0802518c      0x16  WM__IsEnabled.o [3]
  .text               ro code  0x080251a4      0x20  WM_HasFocus.o [3]
  .text               ro code  0x080251c4      0x6c  WM_GetWindowSize.o [3]
  .text               ro code  0x08025230     0x1a4  SPINBOX.o [3]
  .text               ro code  0x080253d4      0x70  EDIT.o [3]
  .text               ro code  0x08025444      0x20  WM_GetId.o [3]
  .text               ro code  0x08025464     0xb3e  ICONVIEW.o [3]
  .text               ro code  0x08025fa4     0x180  Carbs_Screen1DLG.o [1]
  .text               ro code  0x08026124     0x208  Glucose_Screen1DLG.o [1]
  .text               ro code  0x0802632c     0x194  Safety_Screen1DLG.o [1]
  .text               ro code  0x080264c0     0x11c  Settings_Screen1DLG.o [1]
  .text               ro code  0x080265dc     0x39c  GUI_SetOrientation.o [3]
  .text               ro code  0x08026978      0x14  WM_GetDesktopWindowEx.o [3]
  .text               ro code  0x0802698c      0x32  WM_SetCallback.o [3]
  .text               ro code  0x080269c0     0x1e6  stm32f4xx_i2c.o [1]
  .text               ro code  0x08026ba8     0x13a  usb_bsp.o [1]
  .text               ro code  0x08026ce2      0x94  usb_hcd.o [1]
  .text               ro code  0x08026d76      0xd6  usbh_hcs.o [1]
  .text               ro code  0x08026e4c       0xc  stm32f4xx_pwr.o [1]
  .text               ro code  0x08026e58      0xfc  stm32f4xx_rtc.o [1]
  .text               ro code  0x08026f54     0x2ec  stm32f4xx_tim.o [1]
  .text               ro code  0x08027240      0x62  memcmp_unaligned.o [6]
  .text               ro code  0x080272a4      0xf4  GUI_PID.o [3]
  .text               ro code  0x08027398      0x14  GUI_GetFontSizeY.o [3]
  .text               ro code  0x080273ac      0x46  GUI_ALLOC_AllocInit.o [3]
  .text               ro code  0x080273f2      0x5e  GUI_Realloc.o [3]
  .text               ro code  0x08027450      0x1c  GUI__GetNumChars.o [3]
  .text               ro code  0x0802746c     0x208  GUI_CharLine.o [3]
  .text               ro code  0x08027674      0x7c  WM_SetCapture.o [3]
  .text               ro code  0x080276f0      0x2c  WM_GetScrollPartner.o [3]
  .text               ro code  0x0802771c      0x14  WM_GetInsideRect.o [3]
  .text               ro code  0x08027730      0xdc  WM__UpdateChildPositions.o [3]
  .text               ro code  0x0802780c      0xac  WM_SetFocus.o [3]
  .text               ro code  0x080278b8      0x90  WM_BringToTop.o [3]
  .text               ro code  0x08027948      0xb8  GUI_DrawFocusRect.o [3]
  .text               ro code  0x08027a00      0x5c  GUI_DrawHLine.o [3]
  .text               ro code  0x08027a5c      0x58  GUI_DrawVLine.o [3]
  .text               ro code  0x08027ab4      0x14  GUI_FillRectEx.o [3]
  .text               ro code  0x08027ac8      0x14  WM__Screen2Client.o [3]
  .text               ro code  0x08027adc      0xa6  WM_GetInsideRectExScrollbar.o [3]
  .text               ro code  0x08027b84      0x76  WM_SetTrans.o [3]
  .text               ro code  0x08027bfc      0x20  WM_GetFocussedWindow.o [3]
  .text               ro code  0x08027c1c     0xe20  GUI_SetAlpha.o [3]
  .text               ro code  0x08028a3c      0x58  GUI_FillRect.o [3]
  .text               ro code  0x08028a94      0x42  WM_SetScrollbar.o [3]
  .text               ro code  0x08028ad6      0x94  WM_GetDialogItem.o [3]
  .text               ro code  0x08028b6a      0x1a  WM_SetScrollState.o [3]
  .text               ro code  0x08028b84     0x108  GUI_DrawBitmap.o [3]
  .text               ro code  0x08028c8c     0x134  GUI_DispStringInRectWrap.o [3]
  .text               ro code  0x08028dc0      0x14  WM_GetScrollState.o [3]
  .text               ro code  0x08028dd4      0x36  strlen.o [6]
  .text               ro code  0x08028e0c      0x44  strcpy_unaligned.o [6]
  .text               ro code  0x08028e50      0x34  TEXT_SetFont.o [3]
  .text               ro code  0x08028e84     0x2fe  BUTTON.o [3]
  .text               ro code  0x08029184      0xf8  DIALOG.o [3]
  .text               ro code  0x0802927c     0x1bc  Carbs_Screen2DLG.o [1]
  .text               ro code  0x08029438      0x34  sprintf.o [4]
  .text               ro code  0x0802946c      0x58  TEXT_SetText.o [3]
  .text               ro code  0x080294c4     0x188  Glucose_Screen2DLG.o [1]
  .text               ro code  0x0802964c     0x184  Safety_Screen2DLG.o [1]
  .text               ro code  0x080297d0     0x268  Safety_Screen4DLG.o [1]
  .text               ro code  0x08029a38     0x244  Safety_Screen6DLG.o [1]
  .text               ro code  0x08029c7c     0xc34  usb_core.o [1]
  .text               ro code  0x0802a8b0      0x14  GUI__GetFontSizeY.o [3]
  .text               ro code  0x0802a8c4      0x50  GUI_UC.o [3]
  .text               ro code  0x0802a914     0x184  WM_Move.o [3]
  .text               ro code  0x0802aa98      0xfa  WM_ResizeWindow.o [3]
  .text               ro code  0x0802ab92      0x18  WM_IsWindow.o [3]
  .text               ro code  0x0802abaa      0x1e  WM_ForEachDesc.o [3]
  .text               ro code  0x0802abc8      0x20  WM_GetFlags.o [3]
  .text               ro code  0x0802abe8      0x3c  WM_ValidateWindow.o [3]
  .text               ro code  0x0802ac24      0x68  GUIDEV_GetPos.o [3]
  .text               ro code  0x0802ac8c      0x38  GUIDEV_GetXSize.o [3]
  .text               ro code  0x0802acc4      0x10  LCD_AA.o [3]
  .text               ro code  0x0802acd4      0x36  SCROLLBAR_Create.o [3]
  .text               ro code  0x0802ad0a      0x3a  WM_Hide.o [3]
  .text               ro code  0x0802ad44     0x130  GUI__Wrap.o [3]
  .text               ro code  0x0802ae74      0x18  GUI_SetClipRect.o [3]
  .text               ro code  0x0802ae8c      0x70  GUI__SetText.o [3]
  .text               ro code  0x0802aefc      0x18  WM_GetClientWindow.o [3]
  .text               ro code  0x0802af14      0x8e  WM_Show.o [3]
  .text               ro code  0x0802afa4      0x9c  WM_SetFocusOnNextChild.o [3]
  .text               ro code  0x0802b040     0x25c  Carbs_Screen3DLG.o [1]
  .text               ro code  0x0802b29c    0x1152  xprintffull.o [4]
  .text               ro code  0x0802c3f0     0x1d0  Safety_Screen3DLG.o [1]
  .text               ro code  0x0802c5c0     0x2c4  Safety_Screen5DLG.o [1]
  .text               ro code  0x0802c884     0x2c4  Safety_Screen7DLG.o [1]
  .text               ro code  0x0802cb48      0x2c  WM__ForEachDesc.o [3]
  .text               ro code  0x0802cb74      0x6c  GUI__strcmp.o [3]
  .text               ro code  0x0802cbe0      0x16  GUI__strlen.o [3]
  .text               ro code  0x0802cbf8      0x28  WM__GetFocussedChild.o [3]
  .text               ro code  0x0802cc20      0x20  WM_IsFocussable.o [3]
  .text               ro code  0x0802cc40      0x20  xmbtowc.o [4]
  .text               ro code  0x0802cc60      0x16  strchr.o [6]
  .text               ro code  0x0802cc78      0x58  memchr.o [6]
  .text               ro code  0x0802ccd0       0xa  xmbcurmax.o [4]
  .text               ro code  0x0802ccdc      0xb0  xxmemxmalloc.o [4]
  .text               ro code  0x0802cd8c      0x1a  xwctomb.o [4]
  .text               ro code  0x0802cda8      0x80  xxmemxfree.o [4]
  .text               ro code  0x0802ce28      0xee  I64DivMod.o [6]
  .text               ro code  0x0802cf16      0x42  xdnorm.o [5]
  .text               ro code  0x0802cf58      0x2e  DblCmpLe.o [5]
  .text               ro code  0x0802cf88      0x2e  DblCmpGe.o [5]
  .text               ro code  0x0802cfb8     0x114  xdscale.o [5]
  .text               ro code  0x0802d0cc      0x58  DblToI32.o [5]
  .text               ro code  0x0802d124      0x30  I32ToDbl.o [5]
  .text               ro code  0x0802d154     0x180  DblSub.o [5]
  .text               ro code  0x0802d2d4     0x1a2  DblMul.o [5]
  .text               ro code  0x0802d478     0x246  DblDiv.o [5]
  .text               ro code  0x0802d6c0      0x6c  localeconv.o [4]
  .text               ro code  0x0802d72c       0xe  div.o [4]
  .text               ro code  0x0802d73a      0x26  WM__IsChild.o [3]
  .text               ro code  0x0802d760      0x14  setlocale.o [4]
  .text               ro code  0x0802d774      0x60  xencoding_sb.o [4]
  .text               ro code  0x0802d7d4      0x2c  xgetmemchunk.o [4]
  .text               ro code  0x0802d800       0x2  I64DivZer.o [6]
  .text               ro code  0x0802d804      0xd4  DblAdd.o [5]
  .text               ro code  0x0802d8d8       0x2  xtls.o [4]
  .rodata             const    0x0802d8dc    0x1300  F24B_ASCII.o [3]
  .rodata             const    0x0802ebdc    0x1048  F20B_ASCII.o [3]
  .rodata             const    0x0802fc24     0xfd0  F20_ASCII.o [3]
  .text               ro code  0x08030bf4     0xf1c  GUIDRV_Lin_16.o [3]
  .rodata             const    0x08031b10     0xdbc  FD48.o [3]
  .text               ro code  0x080328cc     0xc1e  usb_hcd_int.o [1]
  .rodata             const    0x080334ec     0xa88  F16B_ASCII.o [3]
  .text               ro code  0x08033f74     0xa70  GUIDEV_32.o [3]
  .text               ro code  0x080349e4     0xa2c  GUIDEV_16.o [3]
  .text               ro code  0x08035410      0x58  GUI__memset16.o [3]
  .rodata             const    0x08035468     0x984  F13_1.o [3]
  .rodata             const    0x08035dec     0x918  F13_ASCII.o [3]
  .text               ro code  0x08036704     0x824  GUI_SetOrientationC16.o [3]
  .text               ro code  0x08036f28     0x824  GUI_SetOrientationC32.o [3]
  .text               ro code  0x0803774c     0x7fc  GUI_SetOrientationC8.o [3]
  .rodata             const    0x08037f48     0x718  F6x8.o [3]
  .text               ro code  0x08038660     0x6fa  GUI_SetOrientationC0.o [3]
  .rodata             const    0x08038d5c     0x62c  FD32.o [3]
  .text               ro code  0x08039388     0x61c  GUI_DrawLine.o [3]
  .text               ro code  0x080399a4      0x20  GUI_DrawPoint.o [3]
  .text               ro code  0x080399c4     0x2d4  GUI_FillPolygon.o [3]
  .text               ro code  0x08039c98      0xcc  GUI_Circ.o [3]
  .text               ro code  0x08039d64     0x610  GUI__DrawTwinArc.o [3]
  .text               ro code  0x0803a374      0x1a  GUI__sqrt32.o [3]
  .text               ro code  0x0803a390     0x52a  GUI_SPRITE.o [3]
  .text               ro code  0x0803a8ba      0xb2  GUI_GetBitmapPixelIndex.o [3]
  .text               ro code  0x0803a96c     0x4f4  usb_dcd_int.o [1]
  .text               ro code  0x0803ae60     0x4d8  WM_Touch.o [3]
  .text               ro code  0x0803b338      0x70  GUI_Curs1.o [3]
  .text               ro code  0x0803b3a8     0x120  WM_Screen2Win.o [3]
  .text               ro code  0x0803b4c8      0x5c  WM__IsAncestor.o [3]
  .text               ro code  0x0803b524      0x20  WM__SendMessageIfEnabled.o [3]
  .text               ro code  0x0803b544      0x18  WM_PID__GetPrevState.o [3]
  .text               ro code  0x0803b55c     0x494  usbd_req.o [1]
  .text               ro code  0x0803b9f0     0x162  usb_dcd.o [1]
  .text               ro code  0x0803bb52      0x8a  usbd_ioreq.o [1]
  .text               ro code  0x0803bbdc     0x292  usbd_core.o [1]
  .text               ro code  0x0803be70     0x434  GUI_DrawBitmap_8888.o [3]
  .text               ro code  0x0803c2a4      0x30  GUI_GetColor.o [3]
  .text               ro code  0x0803c2d4      0x68  GUI__SetPixelAlpha.o [3]
  .text               ro code  0x0803c33c      0x18  LCD_GetColorIndex.o [3]
  .text               ro code  0x0803c354      0x24  GUI_SetColorIndex.o [3]
  .text               ro code  0x0803c378      0x12  LCD_GetPixelColor.o [3]
  .text               ro code  0x0803c38c      0x60  LCD_GetP.o [3]
  .text               ro code  0x0803c3ec     0x42c  SLIDER_SkinFlex.o [3]
  .text               ro code  0x0803c818     0x288  GUI_DrawGradient.o [3]
  .text               ro code  0x0803caa0     0x420  SCROLLBAR_SkinFlex.o [3]
  .text               ro code  0x0803cec0      0x58  GUI_DrawPixel.o [3]
  .text               ro code  0x0803cf18     0x334  usbh_msc_core.o [1]
  .text               ro code  0x0803d24c     0x318  usbh_msc_bot.o [1]
  .text               ro code  0x0803d564      0xae  usbh_ioreq.o [1]
  .text               ro code  0x0803d614      0x30  usbh_stdreq.o [1]
  .text               ro code  0x0803d644     0x2b0  usbh_msc_scsi.o [1]
  .text               ro code  0x0803d8f4     0x2e8  SCROLLBAR_SkinClassic.o [3]
  .text               ro code  0x0803dbdc     0x2d0  SPINBOX_SkinFlex.o [3]
  .text               ro code  0x0803deac     0x2b0  BUTTON_SkinFlex.o [3]
  .text               ro code  0x0803e15c      0x8c  GUI_2DLib.o [3]
  .text               ro code  0x0803e1e8      0x30  GUI_DRAW.o [3]
  .text               ro code  0x0803e218       0xa  GUI_GetClientRect.o [3]
  .text               ro code  0x0803e224     0x196  GUI_DispStringInRect.o [3]
  .text               ro code  0x0803e3ba      0x16  GUI__HandleEOLine.o [3]
  .text               ro code  0x0803e3d0     0x260  SPINBOX_SkinClassic.o [3]
  .text               ro code  0x0803e630     0x238  RADIO_SkinClassic.o [3]
  .text               ro code  0x0803e868      0x28  GUI_DispStringAt.o [3]
  .text               ro code  0x0803e890     0x108  GUI_DispString.o [3]
  .text               ro code  0x0803e998     0x1c2  lz77_init.o [6]
  .text               ro code  0x0803eb5a       0x6  abort.o [4]
  .text               ro code  0x0803eb60      0x14  exit.o [7]
  .text               ro code  0x0803eb74     0x1ac  WINDOW.o [3]
  .text               ro code  0x0803ed20      0x64  WM_SetFocusOnPrevChild.o [3]
  .text               ro code  0x0803ed84      0x1a  WM__GetLastSibling.o [3]
  .text               ro code  0x0803eda0     0x184  GUI_CharM.o [3]
  .text               ro code  0x0803ef24     0x17c  TEXT.o [3]
  .text               ro code  0x0803f0a0     0x178  PROGBAR_SkinFlex.o [3]
  .text               ro code  0x0803f218     0x160  BUTTON_SkinClassic.o [3]
  .text               ro code  0x0803f378     0x160  SLIDER_SkinClassic.o [3]
  .text               ro code  0x0803f4d8     0x15c  PROGBAR_SkinClassic.o [3]
  .text               ro code  0x0803f634     0x13e  GUI_CharP.o [3]
  .text               ro code  0x0803f774     0x13c  GUIDEV_StaticDevices.o [3]
  .text               ro code  0x0803f8b0      0x4e  WM_SetSize.o [3]
  .text               ro code  0x0803f900      0x6c  GUIDEV_Write.o [3]
  .text               ro code  0x0803f96c     0x134  WIDGET_Effect_3D.o [3]
  .text               ro code  0x0803faa0     0x108  GUIDEV_WriteToActiveAlpha.o [3]
  .rodata             const    0x0803fba8     0x100  GUI__DivTbl_255_31.o [3]
  .rodata             const    0x0803fca8     0x100  GUI__DivTbl_255_63.o [3]
  .rodata             const    0x0803fda8     0x100  LCD_Mirror.o [3]
  .rodata             const    0x0803fea8     0x100  GUI__DivTbl_255_15.o [3]
  .text               ro code  0x0803ffa8      0xe8  system_stm32f4xx.o [1]
  .text               ro code  0x08040090      0xd0  GUICC_0.o [3]
  .text               ro code  0x08040160      0x3e  GUI_CalcColorDist.o [3]
  .text               ro code  0x080401a0      0xc8  GUICC_1616I.o [3]
  .text               ro code  0x08040268      0xc0  GUICC_88666I.o [3]
  .text               ro code  0x08040328      0xb8  RADIO_SkinFlex.o [3]
  .text               ro code  0x080403e0      0xb4  GUICC_8666.o [3]
  .rodata             const    0x08040494      0xb0  RADIO_Image.o [3]
  .text               ro code  0x08040544      0xae  stm32xxx_it.o [1]
  .text               ro code  0x080405f4      0xa0  usbh_usr.o [1]
  .text               ro code  0x08040694      0x44  ff.o [1]
  .text               ro code  0x080406d8      0x20  syscall.o [1]
  .text               ro code  0x080406f8      0xa0  GUICC_16.o [3]
  .rodata             const    0x08040798      0x58  Carbs_Screen2DLG.o [1]
  .rodata             const    0x080407f0      0x58  Safety_Screen1DLG.o [1]
  .rodata             const    0x08040848      0x4c  Glucose_Screen2DLG.o [1]
  .rodata             const    0x08040894      0x48  Safety_Screen4DLG.o [1]
  .rodata             const    0x080408dc      0x48  Safety_Screen6DLG.o [1]
  .text               ro code  0x08040924      0x44  BUTTON_CreateIndirect.o [3]
  .rodata             const    0x08040968      0x40  GUI__DivTbl_63_255.o [3]
  .text               ro code  0x080409a8      0x3c  TEXT_CreateIndirect.o [3]
  .rodata             const    0x080409e4      0x38  Safety_Screen3DLG.o [1]
  .rodata             const    0x08040a1c      0x38  Safety_Screen5DLG.o [1]
  .rodata             const    0x08040a54      0x38  Safety_Screen7DLG.o [1]
  .rodata             const    0x08040a8c      0x34  Carbs_Screen1DLG.o [1]
  .rodata             const    0x08040ac0      0x34  GUIDRV_Lin_16.o [3]
  .rodata             const    0x08040af4      0x30  Glucose_Screen1DLG.o [1]
  .rodata             const    0x08040b24      0x30  Safety_Screen2DLG.o [1]
  .text               ro code  0x08040b54      0x2c  GUICC_M565_Index2Color.o [3]
  .text               ro code  0x08040b80      0x28  GUICC_8888.o [3]
  .text               ro code  0x08040ba8      0x28  data_init.o [6]
  .rodata             const    0x08040bd0      0x24  Settings_Screen1DLG.o [1]
  .text               ro code  0x08040bf4      0x24  GUI_UC_EncodeNone.o [3]
  .iar.init_table     const    0x08040c18      0x2c  - Linker created -
  .rodata             const    0x08040c44      0x20  Carbs_Screen3DLG.o [1]
  .rodata             const    0x08040c64      0x20  GUI_SetOrientationC0.o [3]
  .rodata             const    0x08040c84      0x20  GUI_SetOrientationC16.o [3]
  .rodata             const    0x08040ca4      0x20  GUI_SetOrientationC32.o [3]
  .rodata             const    0x08040cc4      0x20  GUI_SetOrientationC8.o [3]
  .rodata             const    0x08040ce4      0x20  GUI__DivTbl_31_255.o [3]
  .rodata             const    0x08040d04      0x1c  WIDGET_Effect_None.o [3]
  .rodata             const    0x08040d20      0x1c  WIDGET_Effect_3D.o [3]
  .text               ro code  0x08040d3c      0x1a  fpinit_M.o [5]
  .text               ro code  0x08040d58      0x1a  cmain.o [6]
  .text               ro code  0x08040d72       0x4  low_level_init.o [4]
  .text               ro code  0x08040d76       0x4  exit.o [4]
  .text               ro code  0x08040d7c       0xa  cexit.o [6]
  .rodata             const    0x08040d88      0x18  GUICC_M1555I.o [3]
  .rodata             const    0x08040da0      0x18  GUICC_M4444I.o [3]
  .rodata             const    0x08040db8      0x18  GUICC_M565.o [3]
  .rodata             const    0x08040dd0      0x18  GUICC_M8888I.o [3]
  .rodata             const    0x08040de8      0x18  GUICC_M888.o [3]
  .rodata             const    0x08040e00      0x18  GUICC_1616I.o [3]
  .rodata             const    0x08040e18      0x18  GUICC_8666.o [3]
  .rodata             const    0x08040e30      0x18  GUICC_88666I.o [3]
  .rodata             const    0x08040e48      0x18  GUICC_16.o [3]
  .rodata             const    0x08040e60      0x18  GUICC_0.o [3]
  .rodata             const    0x08040e78      0x18  GUICC_8888.o [3]
  .rodata             const    0x08040e90      0x10  GUI__DivTbl_15_255.o [3]
  .text               ro code  0x08040ea0      0x10  startup_stm32f429_439xx.o [1]
  .rodata             const    0x08040eb0       0xc  GUI_DrawBitmap_8888.o [3]
  .rodata             const    0x08040ebc       0xc  LCD.o [3]
  .text               ro code  0x08040ec8       0xc  cstartup_M.o [6]
  .text               ro code  0x08040ed4       0x4  startup_stm32f429_439xx.o [1]
  .text               ro code  0x08040ed8       0x4  startup_stm32f429_439xx.o [1]
  .text               ro code  0x08040edc       0x4  startup_stm32f429_439xx.o [1]
  .text               ro code  0x08040ee0       0x4  startup_stm32f429_439xx.o [1]
  .text               ro code  0x08040ee4       0x4  startup_stm32f429_439xx.o [1]
  .text               ro code  0x08040ee8       0x4  startup_stm32f429_439xx.o [1]
  .text               ro code  0x08040eec       0x4  startup_stm32f429_439xx.o [1]
  .text               ro code  0x08040ef0       0x4  startup_stm32f429_439xx.o [1]
  .text               ro code  0x08040ef4       0x4  startup_stm32f429_439xx.o [1]
  .text               ro code  0x08040ef8       0x4  startup_stm32f429_439xx.o [1]
  .text               ro code  0x08040efc       0x4  startup_stm32f429_439xx.o [1]
  .text               ro code  0x08040f00       0x4  startup_stm32f429_439xx.o [1]
  .text               ro code  0x08040f04       0x4  startup_stm32f429_439xx.o [1]
  .text               ro code  0x08040f08       0x4  startup_stm32f429_439xx.o [1]
  .text               ro code  0x08040f0c       0x4  startup_stm32f429_439xx.o [1]
  .text               ro code  0x08040f10       0x4  startup_stm32f429_439xx.o [1]
  .text               ro code  0x08040f14       0x4  startup_stm32f429_439xx.o [1]
  .text               ro code  0x08040f18       0x4  startup_stm32f429_439xx.o [1]
  .text               ro code  0x08040f1c       0x4  startup_stm32f429_439xx.o [1]
  .text               ro code  0x08040f20       0x4  startup_stm32f429_439xx.o [1]
  .text               ro code  0x08040f24       0x4  startup_stm32f429_439xx.o [1]
  .text               ro code  0x08040f28       0x4  startup_stm32f429_439xx.o [1]
  .text               ro code  0x08040f2c       0x4  startup_stm32f429_439xx.o [1]
  .text               ro code  0x08040f30       0x4  startup_stm32f429_439xx.o [1]
  .text               ro code  0x08040f34       0x4  startup_stm32f429_439xx.o [1]
  .text               ro code  0x08040f38       0x4  startup_stm32f429_439xx.o [1]
  .text               ro code  0x08040f3c       0x4  startup_stm32f429_439xx.o [1]
  .text               ro code  0x08040f40       0x4  startup_stm32f429_439xx.o [1]
  .text               ro code  0x08040f44       0x4  startup_stm32f429_439xx.o [1]
  .text               ro code  0x08040f48       0x4  startup_stm32f429_439xx.o [1]
  .text               ro code  0x08040f4c       0x4  startup_stm32f429_439xx.o [1]
  .text               ro code  0x08040f50       0x4  startup_stm32f429_439xx.o [1]
  .text               ro code  0x08040f54       0x4  startup_stm32f429_439xx.o [1]
  .text               ro code  0x08040f58       0x4  startup_stm32f429_439xx.o [1]
  .text               ro code  0x08040f5c       0x4  startup_stm32f429_439xx.o [1]
  .text               ro code  0x08040f60       0x4  startup_stm32f429_439xx.o [1]
  .text               ro code  0x08040f64       0x4  startup_stm32f429_439xx.o [1]
  .text               ro code  0x08040f68       0x4  startup_stm32f429_439xx.o [1]
  .text               ro code  0x08040f6c       0x4  startup_stm32f429_439xx.o [1]
  .text               ro code  0x08040f70       0x4  startup_stm32f429_439xx.o [1]
  .text               ro code  0x08040f74       0x4  startup_stm32f429_439xx.o [1]
  .text               ro code  0x08040f78       0x4  startup_stm32f429_439xx.o [1]
  .text               ro code  0x08040f7c       0x4  startup_stm32f429_439xx.o [1]
  .text               ro code  0x08040f80       0x4  startup_stm32f429_439xx.o [1]
  .text               ro code  0x08040f84       0x4  startup_stm32f429_439xx.o [1]
  .text               ro code  0x08040f88       0x4  startup_stm32f429_439xx.o [1]
  .text               ro code  0x08040f8c       0x4  startup_stm32f429_439xx.o [1]
  .text               ro code  0x08040f90       0x4  startup_stm32f429_439xx.o [1]
  .text               ro code  0x08040f94       0x4  startup_stm32f429_439xx.o [1]
  .text               ro code  0x08040f98       0x4  startup_stm32f429_439xx.o [1]
  .text               ro code  0x08040f9c       0x4  startup_stm32f429_439xx.o [1]
  .text               ro code  0x08040fa0       0x4  startup_stm32f429_439xx.o [1]
  .text               ro code  0x08040fa4       0x4  startup_stm32f429_439xx.o [1]
  .text               ro code  0x08040fa8       0x4  startup_stm32f429_439xx.o [1]
  .text               ro code  0x08040fac       0x4  startup_stm32f429_439xx.o [1]
  .text               ro code  0x08040fb0       0x4  startup_stm32f429_439xx.o [1]
  .text               ro code  0x08040fb4       0x4  startup_stm32f429_439xx.o [1]
  .text               ro code  0x08040fb8       0x4  startup_stm32f429_439xx.o [1]
  .text               ro code  0x08040fbc       0x4  startup_stm32f429_439xx.o [1]
  .text               ro code  0x08040fc0       0x4  startup_stm32f429_439xx.o [1]
  .text               ro code  0x08040fc4       0x4  startup_stm32f429_439xx.o [1]
  .text               ro code  0x08040fc8       0x4  startup_stm32f429_439xx.o [1]
  .text               ro code  0x08040fcc       0x4  startup_stm32f429_439xx.o [1]
  .text               ro code  0x08040fd0       0x4  startup_stm32f429_439xx.o [1]
  .text               ro code  0x08040fd4       0x4  startup_stm32f429_439xx.o [1]
  .text               ro code  0x08040fd8       0x4  startup_stm32f429_439xx.o [1]
  .text               ro code  0x08040fdc       0x4  startup_stm32f429_439xx.o [1]
  .text               ro code  0x08040fe0       0x4  startup_stm32f429_439xx.o [1]
  .text               ro code  0x08040fe4       0x4  startup_stm32f429_439xx.o [1]
  .text               ro code  0x08040fe8       0x4  startup_stm32f429_439xx.o [1]
  .text               ro code  0x08040fec       0x4  startup_stm32f429_439xx.o [1]
  .text               ro code  0x08040ff0       0x4  startup_stm32f429_439xx.o [1]
  .text               ro code  0x08040ff4       0x4  startup_stm32f429_439xx.o [1]
  .text               ro code  0x08040ff8       0x4  startup_stm32f429_439xx.o [1]
  .text               ro code  0x08040ffc       0x4  startup_stm32f429_439xx.o [1]
  .text               ro code  0x08041000       0x4  startup_stm32f429_439xx.o [1]
  .text               ro code  0x08041004       0x4  startup_stm32f429_439xx.o [1]
  .text               ro code  0x08041008       0x4  startup_stm32f429_439xx.o [1]
  .text               ro code  0x0804100c       0x4  startup_stm32f429_439xx.o [1]
  .text               ro code  0x08041010       0x4  startup_stm32f429_439xx.o [1]
  .text               ro code  0x08041014       0x4  startup_stm32f429_439xx.o [1]
  .text               ro code  0x08041018       0x4  startup_stm32f429_439xx.o [1]
  .text               ro code  0x0804101c       0x4  startup_stm32f429_439xx.o [1]
  .text               ro code  0x08041020       0x4  startup_stm32f429_439xx.o [1]
  .text               ro code  0x08041024       0x4  startup_stm32f429_439xx.o [1]
  .text               ro code  0x08041028       0x4  startup_stm32f429_439xx.o [1]
  .text               ro code  0x0804102c       0x4  startup_stm32f429_439xx.o [1]
  .text               ro code  0x08041030       0x4  startup_stm32f429_439xx.o [1]
  .text               ro code  0x08041034       0x4  startup_stm32f429_439xx.o [1]
  .text               ro code  0x08041038       0x4  startup_stm32f429_439xx.o [1]
  .text               ro code  0x0804103c       0x4  startup_stm32f429_439xx.o [1]
  .text               ro code  0x08041040       0x4  startup_stm32f429_439xx.o [1]
  .text               ro code  0x08041044       0x4  startup_stm32f429_439xx.o [1]
  .text               ro code  0x08041048       0x4  startup_stm32f429_439xx.o [1]
  .text               ro code  0x0804104c       0x4  startup_stm32f429_439xx.o [1]
  .text               ro code  0x08041050       0x4  startup_stm32f429_439xx.o [1]
  .text               ro code  0x08041054       0x4  startup_stm32f429_439xx.o [1]
  .text               ro code  0x08041058       0x4  startup_stm32f429_439xx.o [1]
  .text               ro code  0x0804105c       0x4  startup_stm32f429_439xx.o [1]
  .text               ro code  0x08041060       0x4  startup_stm32f429_439xx.o [1]
  .rodata             const    0x08041064       0x0  zero_init3.o [6]
  .rodata             const    0x08041064       0x0  lz77_init.o [6]
  Initializer bytes   ro data  0x08041064     0x355  <for P2 s0>
                             - 0x080413b9   0x4120d

"P2":                                       0x2cce8
  P2 s0                        0x20000000     0x981  <Init block>
    .data             inited   0x20000000     0x1c4  tasks.o [1]
    .data             inited   0x200001c4      0xa0  GUI_Core.o [3]
    __DLIB_PERTHREAD  inited   0x20000264      0x88  localeconv.o [4]
    __DLIB_PERTHREAD  inited   0x200002ec      0x74  setlocale.o [4]
    .data             inited   0x20000360      0x64  GUI_OnKey.o [3]
    .data             inited   0x200003c4      0x64  SPINBOX.o [3]
    .data             inited   0x20000428      0x58  SCROLLBAR_SkinFlex.o [3]
    .data             inited   0x20000480      0x58  SLIDER_SkinFlex.o [3]
    .data             inited   0x200004d8      0x50  GUI_PID.o [3]
    .data             inited   0x20000528      0x48  GUIDRV_stm32f429i_discovery.o [1]
    .data             inited   0x20000570      0x48  usbh_usr.o [1]
    .data             inited   0x200005b8      0x38  ICONVIEW.o [3]
    .data             inited   0x200005f0      0x34  BUTTON.o [3]
    .data             inited   0x20000624      0x2c  usbd_core.o [1]
    .data             inited   0x20000650      0x28  PROGBAR_SkinFlex.o [3]
    .data             inited   0x20000678      0x28  RADIO_SkinFlex.o [3]
    .data             inited   0x200006a0      0x28  SPINBOX_SkinFlex.o [3]
    .data             inited   0x200006c8      0x28  SPINBOX_SkinFlex.o [3]
    .data             inited   0x200006f0      0x28  SPINBOX_SkinFlex.o [3]
    .data             inited   0x20000718      0x28  SPINBOX_SkinFlex.o [3]
    .data             inited   0x20000740      0x28  RADIO.o [3]
    .data             inited   0x20000768      0x20  BUTTON_SkinFlex.o [3]
    .data             inited   0x20000788      0x20  BUTTON_SkinFlex.o [3]
    .data             inited   0x200007a8      0x20  BUTTON_SkinFlex.o [3]
    .data             inited   0x200007c8      0x20  BUTTON_SkinFlex.o [3]
    .data             inited   0x200007e8      0x1c  GUI_Task.o [3]
    .data             inited   0x20000804      0x1c  PROGBAR.o [3]
    .data             inited   0x20000820      0x18  SCROLLBAR.o [3]
    .data             inited   0x20000838      0x18  SLIDER.o [3]
    .data             inited   0x20000850      0x14  system_stm32f4xx.o [1]
    .data             inited   0x20000864      0x14  WIDGET_Effect_3D.o [3]
    .data             inited   0x20000878      0x10  stm32f4xx_rcc.o [1]
    .data             inited   0x20000888      0x10  usbh_msc_core.o [1]
    .data             inited   0x20000898      0x10  LCD_Color.o [3]
    .data             inited   0x200008a8      0x10  TEXT.o [3]
    .data             inited   0x200008b8       0xc  heap_2.o [1]
    .data             inited   0x200008c4       0xc  usbd_desc.o [1]
    .data             inited   0x200008d0       0xc  usbh_core.o [1]
    .data             inited   0x200008dc       0xc  BUTTON_Skin.o [3]
    .data             inited   0x200008e8       0xc  PROGBAR_Skin.o [3]
    .data             inited   0x200008f4       0xc  RADIO_Skin.o [3]
    .data             inited   0x20000900       0xc  SCROLLBAR_Skin.o [3]
    .data             inited   0x2000090c       0xc  SLIDER_Skin.o [3]
    .data             inited   0x20000918       0xc  SPINBOX_Skin.o [3]
    .data             inited   0x20000924       0x8  stm32f429i_discovery.o [1]
    .data             inited   0x2000092c       0x8  BUTTON.o [3]
    .data             inited   0x20000934       0x8  GUI__Wrap.o [3]
    .data             inited   0x2000093c       0x8  RADIO_SkinClassic.o [3]
    .data             inited   0x20000944       0x4  demo_menu.o [1]
    .data             inited   0x20000948       0x4  port_cm4.o [1]
    .data             inited   0x2000094c       0x4  stm32f429i_discovery.o [1]
    .data             inited   0x20000950       0x4  stm32f429i_discovery_ioe.o [1]
    .data             inited   0x20000954       0x4  usbd_core.o [1]
    .data             inited   0x20000958       0x4  usbh_core.o [1]
    .data             inited   0x2000095c       0x4  WINDOW.o [3]
    .data             inited   0x20000960       0x4  GUI_Core.o [3]
    .data             inited   0x20000964       0x4  GUI__Alpha.o [3]
    .data             inited   0x20000968       0x4  GUI__Alpha.o [3]
    .data             inited   0x2000096c       0x4  LCD.o [3]
    .data             inited   0x20000970       0x4  WIDGET.o [3]
    .data             inited   0x20000974       0x4  GUI_CharLine.o [3]
    .data             inited   0x20000978       0x4  LCD_AA.o [3]
    .data             inited   0x2000097c       0x2  rtc.o [1]
    .data             inited   0x2000097e       0x2  SCROLLBAR.o [3]
    .data             inited   0x20000980       0x1  GUIDEV_StaticDevices.o [3]
  .bss                zero     0x20000984   0x1f800  GUIConf.o [1]
  .bss                zero     0x20020188    0x500c  heap_2.o [1]
  .bss                zero     0x20025194    0x2d00  GUIDRV_stm32f429i_discovery.o [1]
  .bss                zero     0x20027e94     0xb14  bsp.o [1]
  .bss                zero     0x200289a8     0xa90  test_program.o [1]
  .bss                zero     0x20029438     0x23c  usbh_usr.o [1]
  .bss                zero     0x20029674     0x210  usbh_msc_scsi.o [1]
  .bss                zero     0x20029884     0x20e  usbh_msc_core.o [1]
  .bss                zero     0x20029a92       0x2  GUI_Core.o [3]
  .bss                zero     0x20029a94      0xd0  GUI_Alloc.o [3]
  .bss                zero     0x20029b64      0x70  WM.o [3]
  .bss                zero     0x20029bd4      0x54  usbh_msc_bot.o [1]
  .bss                zero     0x20029c28      0x50  WM_Touch.o [3]
  .bss                zero     0x20029c78      0x38  timers.o [1]
  .bss                zero     0x20029cb0      0x34  GUI_Curs1.o [3]
  .bss                zero     0x20029ce4      0x2c  GUI_MULTIBUF.o [3]
  .bss                zero     0x20029d10      0x24  main.o [1]
  .bss                zero     0x20029d34      0x20  test_program.o [1]
  .bss                zero     0x20029d54      0x20  GUI__Alpha.o [3]
  .bss                zero     0x20029d74      0x20  GUI_SetAlpha.o [3]
  .bss                zero     0x20029d94      0x1c  GUI_FillPolygon.o [3]
  .bss                zero     0x20029db0      0x18  cpu_utils.o [1]
  .bss                zero     0x20029dc8      0x18  WM_PID__GetPrevState.o [3]
  .bss                zero     0x20029de0      0x14  ff.o [1]
  .bss                zero     0x20029df4      0x14  rtc.o [1]
  .bss                zero     0x20029e08      0x14  GUI_Timer.o [3]
  .bss                zero     0x20029e1c      0x10  stm32f429i_discovery_ioe.o [1]
  .bss                zero     0x20029e2c       0xc  usbd_req.o [1]
  .bss                zero     0x20029e38       0xc  GUI_TOUCH.o [3]
  .bss                zero     0x20029e44       0x8  bsp.o [1]
  .bss                zero     0x20029e4c       0x8  GUI_X_FreeRTOS.o [1]
  .bss                zero     0x20029e54       0x8  main.o [1]
  .bss                zero     0x20029e5c       0x8  main.o [1]
  .bss                zero     0x20029e64       0x8  rtc.o [1]
  .bss                zero     0x20029e6c       0x8  GUI_SelectLayer.o [3]
  .bss                zero     0x20029e74       0x8  GUICC_M1555I.o [3]
  .bss                zero     0x20029e7c       0x8  GUICC_M4444I.o [3]
  .bss                zero     0x20029e84       0x8  GUICC_M565.o [3]
  .bss                zero     0x20029e8c       0x8  GUICC_M8888I.o [3]
  .bss                zero     0x20029e94       0x8  GUICC_M888.o [3]
  .bss                zero     0x20029e9c       0x8  GUI__ManageCache.o [3]
  .bss                zero     0x20029ea4       0x8  xxmemxmalloc.o [4]
  .bss                zero     0x20029eac       0x4  stm32xxx_it.o [1]
  .bss                zero     0x20029eb0       0x4  stm32xxx_it.o [1]
  .bss                zero     0x20029eb4       0x4  usbd_core.o [1]
  .bss                zero     0x20029eb8       0x4  usbd_req.o [1]
  .bss                zero     0x20029ebc       0x4  GUI_Core.o [3]
  .bss                zero     0x20029ec0       0x4  GUI_Core.o [3]
  .bss                zero     0x20029ec4       0x4  GUI_Core.o [3]
  .bss                zero     0x20029ec8       0x4  GUI_Core.o [3]
  .bss                zero     0x20029ecc       0x4  ICONVIEW.o [3]
  .bss                zero     0x20029ed0       0x4  GUI_WaitEvent.o [3]
  .bss                zero     0x20029ed4       0x4  GUIDEV_Banding.o [3]
  .bss                zero     0x20029ed8       0x4  WM__SendMessage.o [3]
  .bss                zero     0x20029edc       0x4  xgetmemchunk.o [4]
  .bss                zero     0x20029ee0       0x2  GUI_Core.o [3]
  .bss                zero     0x20029ee2       0x1  WM.o [3]
  CSTACK                       0x20029ee8    0x2000  <Block>
    CSTACK            uninit   0x20029ee8    0x2000  <Block tail>
  HEAP                         0x2002bee8     0xe00  <Block>
    HEAP              uninit   0x2002bee8     0xe00  <Block tail>
                             - 0x2002cce8   0x2cce8

Absolute sections:                         0x400000
  .noinit             uninit   0xd0100000  0x400000  GUIConf.o [1]
                             - 0xd0500000  0x400000


*******************************************************************************
*** INIT TABLE
***

          Address     Size
          -------     ----
Zero (__iar_zero_init3)
    1 destination range, total size 0x2955f:
          0x20000984  0x2955f

Copy/lz77 (__iar_lz77_init3)
    1 source range, total size 0x355 (35% of destination):
          0x08041064    0x355
    1 destination range, total size 0x981:
          0x20000000    0x981



*******************************************************************************
*** MODULE SUMMARY
***

    Module                         ro code  ro data  rw data    rw data
                                                                 (abs)
    ------                         -------  -------  -------    -------
C:\Users\kammen\Documents\display-demo\STM32F429I-Discovery_FW_V1.0.1\Projects\Demonstration\EWARM\STM32F429I-Discovery_Demo\Obj: [1]
    Carbs_Screen1DLG.o                 384       52
    Carbs_Screen2DLG.o                 444       88
    Carbs_Screen3DLG.o                 604       32
    GUIConf.o                           24           129 024  4 194 304
    GUIDRV_stm32f429i_discovery.o    4 340       26   11 592
    GUI_X_FreeRTOS.o                   136                 8
    Glucose_Screen1DLG.o               520       48
    Glucose_Screen2DLG.o               392       76
    Safety_Screen1DLG.o                404       88
    Safety_Screen2DLG.o                388       48
    Safety_Screen3DLG.o                464       56
    Safety_Screen4DLG.o                616       72
    Safety_Screen5DLG.o                708       56
    Safety_Screen6DLG.o                580       72
    Safety_Screen7DLG.o                708       56
    Settings_Screen1DLG.o              284       36
    bsp.o                              298             2 844
    cpu_utils.o                        128                24
    demo_menu.o                        412   87 982        4
    ff.o                                68                20
    heap_2.o                           352        4   20 504
    list.o                             200
    main.o                             444                52
    misc.o                             124
    port_cm4.o                         196        1        4
    portasm_cm4.o                      160
    queue.o                          1 648
    rtc.o                              360                30
    startup_stm32f429_439xx.o          844
    stm32f429i_discovery.o             309        4       12
    stm32f429i_discovery_ioe.o       1 708        2       20
    stm32f429i_discovery_lcd.o       5 284
    stm32f429i_discovery_sdram.o       884
    stm32f4xx_dma2d.o                   24
    stm32f4xx_exti.o                   124
    stm32f4xx_fmc.o                    284
    stm32f4xx_gpio.o                   172
    stm32f4xx_i2c.o                    486
    stm32f4xx_ltdc.o                   396
    stm32f4xx_pwr.o                     12
    stm32f4xx_rcc.o                    432        5       16
    stm32f4xx_rtc.o                    252
    stm32f4xx_spi.o                    286
    stm32f4xx_syscfg.o                  40
    stm32f4xx_tim.o                    748
    stm32xxx_it.o                      174                 8
    syscall.o                           32
    system_stm32f4xx.o                 232        7       20
    tasks.o                          2 380      158      452
    test_program.o                      36             2 736
    timers.o                           840                56
    usb_bsp.o                          314
    usb_core.o                       3 124
    usb_dcd.o                          354
    usb_dcd_int.o                    1 268
    usb_hcd.o                          148
    usb_hcd_int.o                    3 102
    usbd_core.o                        658       16       52
    usbd_desc.o                                   4       12
    usbd_ioreq.o                       138
    usbd_req.o                       1 172                16
    usbh_core.o                        152        7       16
    usbh_hcs.o                         214
    usbh_ioreq.o                       174
    usbh_msc_bot.o                     792                84
    usbh_msc_core.o                    820        6      542
    usbh_msc_scsi.o                    688               528
    usbh_stdreq.o                       48
    usbh_usr.o                         160       25      644
    -------------------------------------------------------------------
    Total:                          44 691   89 027  169 320  4 194 304

command line: [2]
    -------------------------------------------------------------------
    Total:

STemWin522_4x9i_CM4_OS_IAR.a: [3]
    BUTTON.o                           766       22       60
    BUTTON_CreateIndirect.o             68
    BUTTON_Skin.o                      204        4       12
    BUTTON_SkinClassic.o               352
    BUTTON_SkinFlex.o                  688       45      128
    DIALOG.o                           248
    EDIT.o                             112
    F13_1.o                                   2 436
    F13_ASCII.o                               2 328
    F16B_ASCII.o                              2 696
    F20B_ASCII.o                              4 168
    F20_ASCII.o                               4 048
    F24B_ASCII.o                              4 864
    F32B_ASCII.o                              7 848
    F6x8.o                                    1 816
    FD32.o                                    1 580
    FD48.o                                    3 516
    GUICC_0.o                          208       24
    GUICC_16.o                         160       24
    GUICC_1616I.o                      200       24
    GUICC_8666.o                       180       24
    GUICC_88666I.o                     192       24
    GUICC_8888.o                        40       24
    GUICC_8888_Index2Color.o             2
    GUICC_888_Index2Color.o              2
    GUICC_M1555I.o                     288       24        8
    GUICC_M4444I.o                     304       24        8
    GUICC_M565.o                       216       24        8
    GUICC_M565_Index2Color.o            44
    GUICC_M888.o                       128       24        8
    GUICC_M8888I.o                     216       24        8
    GUICC_M888_Index2Color.o            18
    GUIDEV.o                           920
    GUIDEV_16.o                      2 604
    GUIDEV_32.o                      2 672
    GUIDEV_Banding.o                   296                 4
    GUIDEV_Clear.o                      72
    GUIDEV_GetDataPtr.o                 38
    GUIDEV_GetPos.o                    104
    GUIDEV_GetXSize.o                   56
    GUIDEV_GetYSize.o                   56
    GUIDEV_ReduceYSize.o                60
    GUIDEV_SetOrg.o                    116
    GUIDEV_StaticDevices.o             316        1        1
    GUIDEV_Usage.o                      96
    GUIDEV_UsageBM.o                   528
    GUIDEV_Write.o                     108
    GUIDEV_WriteToActiveAlpha.o        264
    GUIDEV_WriteToActiveOpaque.o     1 688
    GUIDRV_Lin_16.o                  3 868       52
    GUI_2DLib.o                        140
    GUI_ALLOC_AllocInit.o               70
    GUI_ALLOC_AllocZero.o               50
    GUI_ARRAY.o                        320
    GUI_Alloc.o                      2 528               208
    GUI_CalcColorDist.o                 62
    GUI_Char.o                         156
    GUI_CharLine.o                     520        1        4
    GUI_CharM.o                        388
    GUI_CharP.o                        318
    GUI_Circ.o                         204
    GUI_Core.o                         552       57      184
    GUI_Curs1.o                        112                52
    GUI_DRAW.o                          48
    GUI_Device.o                       696
    GUI_DispString.o                   264
    GUI_DispStringAt.o                  40
    GUI_DispStringInRect.o             406
    GUI_DispStringInRectWrap.o         308
    GUI_DrawBitmap.o                   264
    GUI_DrawBitmap_8888.o            1 076       12
    GUI_DrawFocusRect.o                184
    GUI_DrawGradient.o                 648
    GUI_DrawHLine.o                     92
    GUI_DrawLine.o                   1 564
    GUI_DrawPixel.o                     88
    GUI_DrawPoint.o                     32
    GUI_DrawVLine.o                     88
    GUI_Exec.o                          52
    GUI_FillPolygon.o                  724                28
    GUI_FillRect.o                      88
    GUI_FillRectEx.o                    20
    GUI_GetBitmapPixelIndex.o          178
    GUI_GetClientRect.o                 10
    GUI_GetColor.o                      48
    GUI_GetDrawMode.o                   24
    GUI_GetFontInfo.o                   60
    GUI_GetFontSizeY.o                  20
    GUI_GetOrg.o                        48
    GUI_GetStringDistX.o                20
    GUI_Goto.o                          36
    GUI_MULTIBUF.o                      40                44
    GUI_MergeRect.o                     84
    GUI_MoveRect.o                      28
    GUI_OnKey.o                         68       35      100
    GUI_PID.o                          244       28       80
    GUI_Pen.o                           32
    GUI_Realloc.o                       94
    GUI_RectsIntersect.o                56
    GUI_SPRITE.o                     1 322
    GUI_SaveContext.o                   28
    GUI_SelectLCD.o                     30
    GUI_SelectLayer.o                  138                 8
    GUI_SetAlpha.o                   3 616                32
    GUI_SetClipRect.o                   24
    GUI_SetColor.o                      44
    GUI_SetColorIndex.o                 36
    GUI_SetDefault.o                    68
    GUI_SetDrawMode.o                   24
    GUI_SetFont.o                       36
    GUI_SetLineStyle.o                  32
    GUI_SetOrg.o                        68
    GUI_SetOrientation.o               924
    GUI_SetOrientationC0.o           1 786       32
    GUI_SetOrientationC16.o          2 084       32
    GUI_SetOrientationC32.o          2 084       32
    GUI_SetOrientationC8.o           2 044       32
    GUI_SetTextAlign.o                  36
    GUI_SetTextMode.o                   36
    GUI_TOUCH.o                         44                12
    GUI_Task.o                         392       10       28
    GUI_Time.o                         104
    GUI_Timer.o                        930                20
    GUI_UC.o                            80
    GUI_UC_EncodeNone.o                 36
    GUI_WaitEvent.o                     20                 4
    GUI__Alpha.o                     1 100        3       40
    GUI__CompactPixelIndices.o         640
    GUI__DivTbl_15_255.o                         16
    GUI__DivTbl_255_15.o                        256
    GUI__DivTbl_255_31.o                        256
    GUI__DivTbl_255_63.o                        256
    GUI__DivTbl_31_255.o                         32
    GUI__DivTbl_63_255.o                         64
    GUI__DivideRound32.o                30
    GUI__DrawTwinArc.o               1 552
    GUI__ExpandPixelIndices.o          574
    GUI__GetFontSizeY.o                 20
    GUI__GetNumChars.o                  28
    GUI__HandleEOLine.o                 22
    GUI__IntersectRect.o                64
    GUI__IntersectRects.o               96
    GUI__ManageCache.o                 200                 8
    GUI__ReduceRect.o                   26
    GUI__SetPixelAlpha.o               104
    GUI__SetText.o                     112
    GUI__Wrap.o                        304        2        8
    GUI__memset.o                      264
    GUI__memset16.o                     88
    GUI__sqrt32.o                       26
    GUI__strcmp.o                      108
    GUI__strlen.o                       22
    ICONVIEW.o                       2 878       19       60
    LCD.o                            2 056       14        4
    LCD_AA.o                            16        2        4
    LCD_Color.o                        336        5       16
    LCD_GetColorIndex.o                 24
    LCD_GetEx.o                        638
    LCD_GetNumDisplays.o                28
    LCD_GetP.o                          96
    LCD_GetPixelColor.o                 18
    LCD_Mirror.o                                256
    LCD_ReadRect.o                     496
    LCD_SelectLCD.o                     68
    LCD_Set.o                          346
    LCD_SetClipRectEx.o                 52
    LCD_UpdateColorIndices.o            36
    PROGBAR.o                          212       10       28
    PROGBAR_Skin.o                     392        4       12
    PROGBAR_SkinClassic.o              348
    PROGBAR_SkinFlex.o                 376       14       40
    RADIO.o                             38       14       40
    RADIO_Image.o                               176
    RADIO_Skin.o                       516        4       12
    RADIO_SkinClassic.o                568        3        8
    RADIO_SkinFlex.o                   184       14       40
    SCROLLBAR.o                      2 068        9       26
    SCROLLBAR_Create.o                  54
    SCROLLBAR_Skin.o                   636        4       12
    SCROLLBAR_SkinClassic.o            744
    SCROLLBAR_SkinFlex.o             1 056       30       88
    SLIDER.o                                      9       24
    SLIDER_Skin.o                      540        5       12
    SLIDER_SkinClassic.o               352
    SLIDER_SkinFlex.o                1 068       31       88
    SPINBOX.o                          420       36      100
    SPINBOX_Skin.o                     412        4       12
    SPINBOX_SkinClassic.o              608
    SPINBOX_SkinFlex.o                 720       56      160
    TEXT.o                             380        6       16
    TEXT_CreateIndirect.o               60
    TEXT_SetFont.o                      52
    TEXT_SetText.o                      88
    WIDGET.o                         1 280        1        4
    WIDGET_Effect_3D.o                 308       35       20
    WIDGET_Effect_None.o                10       28
    WINDOW.o                           428        1        4
    WM.o                             6 100               113
    WM_BringToBottom.o                 140
    WM_BringToTop.o                    144
    WM_CriticalHandle.o                 80
    WM_ForEachDesc.o                    30
    WM_GetClientRect.o                 160
    WM_GetClientWindow.o                24
    WM_GetDesktopWindow.o               24
    WM_GetDesktopWindowEx.o             20
    WM_GetDialogItem.o                 148
    WM_GetFirstChild.o                  26
    WM_GetFlags.o                       32
    WM_GetFocussedWindow.o              32
    WM_GetId.o                          32
    WM_GetInsideRect.o                  20
    WM_GetInsideRectExScrollbar.o      166
    WM_GetParent.o                      26
    WM_GetScrollPartner.o               44
    WM_GetScrollState.o                 20
    WM_GetScrollbar.o                  254
    WM_GetWindowRect.o                  98
    WM_GetWindowSize.o                 108
    WM_HasFocus.o                       32
    WM_Hide.o                           58
    WM_IsFocussable.o                   32
    WM_IsWindow.o                       24
    WM_Move.o                          388
    WM_NotifyParent.o                   20
    WM_OnKey.o                          64
    WM_PID__GetPrevState.o              24                24
    WM_ResizeWindow.o                  250
    WM_Screen2Win.o                    288
    WM_SendMessageNoPara.o              30
    WM_SendToParent.o                   44
    WM_SetCallback.o                    50
    WM_SetCapture.o                    124
    WM_SetFocus.o                      172
    WM_SetFocusOnNextChild.o           156
    WM_SetFocusOnPrevChild.o           100
    WM_SetScrollState.o                 26
    WM_SetScrollbar.o                   66
    WM_SetSize.o                        78
    WM_SetTrans.o                      118
    WM_SetUserClipRect.o                36
    WM_Show.o                          142
    WM_Timer.o                         378
    WM_Touch.o                       1 240                80
    WM_ValidateWindow.o                 60
    WM__ForEachDesc.o                   44
    WM__GetFirstSibling.o               20
    WM__GetFocussedChild.o              40
    WM__GetLastSibling.o                26
    WM__GetPrevSibling.o                42
    WM__IsAncestor.o                    92
    WM__IsChild.o                       38
    WM__IsEnabled.o                     22
    WM__Screen2Client.o                 20
    WM__SendMessage.o                   64                 4
    WM__SendMessageIfEnabled.o          32
    WM__SendMessageNoPara.o             44
    WM__UpdateChildPositions.o         220
    -------------------------------------------------------------------
    Total:                          86 574   37 634    2 156

dl7M_tlf.a: [4]
    abort.o                              6
    div.o                               14
    exit.o                               4
    localeconv.o                       108       48      136
    low_level_init.o                     4
    setlocale.o                         20       40      116
    sprintf.o                           52
    xencoding_sb.o                      96
    xgetmemchunk.o                      44                 4
    xmbcurmax.o                         10
    xmbtowc.o                           32
    xprintffull.o                    4 434
    xsprout.o                           10
    xtls.o                               2
    xwctomb.o                           26
    xxmemxfree.o                       128
    xxmemxmalloc.o                     176                 8
    -------------------------------------------------------------------
    Total:                           5 166       88      264

m7M_tlv.a: [5]
    DblAdd.o                           212
    DblCmpGe.o                          46
    DblCmpLe.o                          46
    DblDiv.o                           582
    DblMul.o                           418
    DblSub.o                           384
    DblToI32.o                          88
    I32ToDbl.o                          48
    fpinit_M.o                          26
    xdnorm.o                            66
    xdscale.o                          276
    -------------------------------------------------------------------
    Total:                           2 192

rt7M_tl.a: [6]
    ABImemclr.o                          6
    ABImemcpy_unaligned.o              118
    ABImemmove_unaligned.o             120
    ABImemset.o                        102
    ABImemset48.o                       58
    I64DivMod.o                        238
    I64DivZer.o                          2
    cexit.o                             10
    cmain.o                             26
    cstartup_M.o                        12
    data_init.o                         40
    lz77_init.o                        450
    memchr.o                            88
    memcmp_unaligned.o                  98
    strchr.o                            22
    strcpy_unaligned.o                  68
    strlen.o                            54
    strncpy_unaligned.o                108
    zero_init3.o                        34
    -------------------------------------------------------------------
    Total:                           1 654

shb_l.a: [7]
    exit.o                              20
    -------------------------------------------------------------------
    Total:                              20

    Gaps                                95        8        7
    Linker created                               44   11 776
-----------------------------------------------------------------------
    Grand Total:                   140 392  126 801  183 523  4 194 304


*******************************************************************************
*** ENTRY LIST
***

Entry                      Address      Size  Type      Object
-----                      -------      ----  ----      ------
?main                   0x08040d59            Code  Gb  cmain.o [6]
AHBPrescTable           0x20000854      0x10  Data  Gb  system_stm32f4xx.o [1]
APBAHBPrescTable        0x20000878      0x10  Data  Lc  stm32f4xx_rcc.o [1]
API                     0x0801bb34      0x18  Data  Lc  GUIDEV_UsageBM.o [3]
Alarm_Init              0x08022999      0x4e  Code  Gb  bsp.o [1]
BOTStallErrorCount      0x20029c18       0x4  Data  Lc  usbh_msc_bot.o [1]
BSP_Pointer_Update      0x08022931      0x52  Code  Gb  bsp.o [1]
BUTTON_CLK              0x080228a8       0x4  Data  Gb  stm32f429i_discovery.o [1]
BUTTON_Callback         0x08028f23     0x148  Code  Gb  BUTTON.o [3]
BUTTON_CreateIndirect   0x08040925      0x44  Code  Gb  BUTTON_CreateIndirect.o [3]
BUTTON_CreateUser       0x0802906b      0x88  Code  Gb  BUTTON.o [3]
BUTTON_DrawSkinFlex     0x0803dead     0x2a0  Code  Gb  BUTTON_SkinFlex.o [3]
BUTTON_EXTI_LINE        0x080228ac       0x2  Data  Gb  stm32f429i_discovery.o [1]
BUTTON_IRQn             0x080228b8       0x1  Data  Gb  stm32f429i_discovery.o [1]
BUTTON_PIN              0x080228a4       0x2  Data  Gb  stm32f429i_discovery.o [1]
BUTTON_PIN_SOURCE       0x080228b4       0x1  Data  Gb  stm32f429i_discovery.o [1]
BUTTON_PORT             0x2000094c       0x4  Data  Gb  stm32f429i_discovery.o [1]
BUTTON_PORT_SOURCE      0x080228b0       0x1  Data  Gb  stm32f429i_discovery.o [1]
BUTTON_SetDefaultSkin   0x08023459      0x10  Code  Gb  BUTTON_Skin.o [3]
BUTTON_SetFont          0x08029157      0x2c  Code  Gb  BUTTON.o [3]
BUTTON_SetText          0x08029101      0x56  Code  Gb  BUTTON.o [3]
BUTTON__DefaultProps    0x200005f0      0x30  Data  Gb  BUTTON.o [3]
BUTTON__Skin            0x200008dc       0xc  Data  Gb  BUTTON_Skin.o [3]
BUTTON__SkinClassic     0x0803f36c       0xc  Data  Gb  BUTTON_SkinClassic.o [3]
BUTTON__pSkinDefault    0x20000620       0x4  Data  Gb  BUTTON.o [3]
Background_Task         0x080224b5      0x70  Code  Lc  main.o [1]
Buffer                  0x20029d34      0x18  Data  Gb  test_program.o [1]
BusFault_Handler        0x0804054b       0x2  Code  Gb  stm32xxx_it.o [1]
ButtonPressed           0x20029eac       0x4  Data  Gb  stm32xxx_it.o [1]
CSTACK$$Base            0x20029ee8             --   Gb  - Linker created -
CSTACK$$Limit           0x2002bee8             --   Gb  - Linker created -
CaptureNumber           0x20029e64       0x4  Data  Gb  rtc.o [1]
CharInfo32              0x080392bc      0x78  Data  Lc  FD32.o [3]
CreateCarbs_Screen1     0x0802606b      0x20  Code  Gb  Carbs_Screen1DLG.o [1]
CreateCarbs_Screen2     0x08029363      0x20  Code  Gb  Carbs_Screen2DLG.o [1]
CreateCarbs_Screen3     0x0802b123      0x20  Code  Gb  Carbs_Screen3DLG.o [1]
CreateGlucose_Screen1   0x0802622b      0x20  Code  Gb  Glucose_Screen1DLG.o [1]
CreateGlucose_Screen2   0x0802956b      0x20  Code  Gb  Glucose_Screen2DLG.o [1]
CreateSafety_Screen1    0x0802640b      0x20  Code  Gb  Safety_Screen1DLG.o [1]
CreateSafety_Screen2    0x08029717      0x20  Code  Gb  Safety_Screen2DLG.o [1]
CreateSafety_Screen3    0x0802c4a1      0x20  Code  Gb  Safety_Screen3DLG.o [1]
CreateSafety_Screen4    0x080298ff      0x20  Code  Gb  Safety_Screen4DLG.o [1]
CreateSafety_Screen5    0x0802c747      0x20  Code  Gb  Safety_Screen5DLG.o [1]
CreateSafety_Screen6    0x08029b5f      0x20  Code  Gb  Safety_Screen6DLG.o [1]
CreateSafety_Screen7    0x0802ca0b      0x20  Code  Gb  Safety_Screen7DLG.o [1]
CreateSettings_Screen1  0x08026541      0x20  Code  Gb  Settings_Screen1DLG.o [1]
DCD_EP_ClrStall         0x0803bb03      0x40  Code  Gb  usb_dcd.o [1]
DCD_EP_Open             0x0803b9f1      0x46  Code  Gb  usb_dcd.o [1]
DCD_EP_PrepareRx        0x0803ba37      0x48  Code  Gb  usb_dcd.o [1]
DCD_EP_SetAddress       0x0803bb43      0x10  Code  Gb  usb_dcd.o [1]
DCD_EP_Stall            0x0803bac3      0x40  Code  Gb  usb_dcd.o [1]
DCD_EP_Tx               0x0803ba7f      0x44  Code  Gb  usb_dcd.o [1]
DCD_HandleInEP_ISR      0x0803ac67      0xd4  Code  Lc  usb_dcd_int.o [1]
DCD_HandleOutEP_ISR     0x0803ad3b      0xa8  Code  Lc  usb_dcd_int.o [1]
DCD_WriteEmptyTxFifo    0x0803aded      0x74  Code  Lc  usb_dcd_int.o [1]
DEMO_MainMenu           0x080234eb      0xc8  Code  Gb  demo_menu.o [1]
DMA2D_IRQHandler        0x080405ef       0x4  Code  Gb  stm32xxx_it.o [1]
DMA2D_ISR_Handler       0x0801d9fd       0x8  Code  Gb  GUIDRV_stm32f429i_discovery.o [1]
DMA2D_ITConfig          0x080207cd      0x12  Code  Gb  stm32f4xx_dma2d.o [1]
DMA2_Stream1_IRQHandler
                        0x080405e9       0x2  Code  Gb  stm32xxx_it.o [1]
DebugMon_Handler        0x0804054f       0x2  Code  Gb  stm32xxx_it.o [1]
Delay                   0x08022761      0x12  Code  Gb  test_program.o [1]
Demo_Handle             0x20029e60       0x4  Data  Gb  main.o [1]
Demo_Task               0x08022525      0x52  Code  Lc  main.o [1]
EDIT_SetBkColor         0x080253d5      0x38  Code  Gb  EDIT.o [3]
EDIT_SetTextColor       0x0802540d      0x38  Code  Gb  EDIT.o [3]
EXTI0_IRQHandler        0x08040565       0xa  Code  Gb  stm32xxx_it.o [1]
EXTI_ClearITPendingBit  0x080236a3       0x6  Code  Gb  stm32f4xx_exti.o [1]
EXTI_Init               0x08023639      0x6a  Code  Gb  stm32f4xx_exti.o [1]
EndIdleMonitor          0x080218c9      0x20  Code  Gb  cpu_utils.o [1]
FMC_GetFlagStatus       0x080226a3      0x2e  Code  Gb  stm32f4xx_fmc.o [1]
FMC_SDRAMCmdConfig      0x0802267d      0x1a  Code  Gb  stm32f4xx_fmc.o [1]
FMC_SDRAMInit           0x080225c9      0xb4  Code  Gb  stm32f4xx_fmc.o [1]
FMC_SetRefreshCount     0x08022697       0xc  Code  Gb  stm32f4xx_fmc.o [1]
FatFs                   0x20029df0       0x4  Data  Lc  ff.o [1]
Files                   0x20029de0       0xc  Data  Lc  ff.o [1]
FontProp32              0x08039358       0xc  Data  Lc  FD32.o [3]
FontProp32_1            0x0803934c       0xc  Data  Lc  FD32.o [3]
FontProp32_2            0x08039340       0xc  Data  Lc  FD32.o [3]
FontProp32_3            0x08039334       0xc  Data  Lc  FD32.o [3]
FreeRTOS_CPU_IdleSpentTime
                        0x20029dbc       0x4  Data  Gb  cpu_utils.o [1]
FreeRTOS_CPU_IdleStartTime
                        0x20029db8       0x4  Data  Gb  cpu_utils.o [1]
FreeRTOS_CPU_TotalIdleTime
                        0x20029dc0       0x4  Data  Gb  cpu_utils.o [1]
FreeRTOS_CPU_Usage      0x20029db4       0x4  Data  Gb  cpu_utils.o [1]
Fsid                    0x20029dec       0x2  Data  Lc  ff.o [1]
GL_DrawBitmap           0x08028b85      0x9a  Code  Gb  GUI_DrawBitmap.o [3]
GL_DrawLine1Ex          0x0803950d     0x30c  Code  Gb  GUI_DrawLine.o [3]
GL_DrawLineEx           0x08039819      0xf2  Code  Gb  GUI_DrawLine.o [3]
GL_DrawPoint            0x080399a5      0x1c  Code  Gb  GUI_DrawPoint.o [3]
GL_FP_Cnt               0x20029d94       0x4  Data  Lc  GUI_FillPolygon.o [3]
GL_FillCircle           0x08039c99      0xc8  Code  Gb  GUI_Circ.o [3]
GL_FillPolygon          0x08039a29     0x262  Code  Gb  GUI_FillPolygon.o [3]
GL_SetDefault           0x0801abf9      0x3e  Code  Gb  GUI_SetDefault.o [3]
GPIO_CLK                0x0802289c       0x8  Data  Gb  stm32f429i_discovery.o [1]
GPIO_Init               0x080218ed      0x72  Code  Gb  stm32f4xx_gpio.o [1]
GPIO_PIN                0x08022898       0x4  Data  Gb  stm32f429i_discovery.o [1]
GPIO_PORT               0x20000924       0x8  Data  Gb  stm32f429i_discovery.o [1]
GPIO_PinAFConfig        0x08021971      0x28  Code  Gb  stm32f4xx_gpio.o [1]
GPIO_ResetBits          0x08021963       0x4  Code  Gb  stm32f4xx_gpio.o [1]
GPIO_SetBits            0x0802195f       0x4  Code  Gb  stm32f4xx_gpio.o [1]
GPIO_WriteBit           0x08021967       0xa  Code  Gb  stm32f4xx_gpio.o [1]
GUICC_M1555I_SetCustColorConv
                        0x08020931       0x8  Code  Gb  GUICC_M1555I.o [3]
GUICC_M4444I_SetCustColorConv
                        0x08020b3d       0x8  Code  Gb  GUICC_M4444I.o [3]
GUICC_M565_SetCustColorConv
                        0x08020a01       0x8  Code  Gb  GUICC_M565.o [3]
GUICC_M8888I_SetCustColorConv
                        0x08020c97       0x8  Code  Gb  GUICC_M8888I.o [3]
GUICC_M888_SetCustColorConv
                        0x08020bbf       0x8  Code  Gb  GUICC_M888.o [3]
GUIDRV_Lin_16_API       0x08040ac0      0x34  Data  Gb  GUIDRV_Lin_16.o [3]
GUIDRV_Rotate_API       0x08026944      0x34  Data  Gb  GUI_SetOrientation.o [3]
GUIMONO_DispChar        0x0803eda1     0x132  Code  Gb  GUI_CharM.o [3]
GUIMONO_GetCharDistX    0x0803eed3      0x12  Code  Gb  GUI_CharM.o [3]
GUIMONO_GetFontInfo     0x0803eee9       0x6  Code  Gb  GUI_CharM.o [3]
GUIMONO_IsInFont        0x0803eeef      0x36  Code  Gb  GUI_CharM.o [3]
GUIPROP_DispChar        0x0803f635      0xd0  Code  Gb  GUI_CharP.o [3]
GUIPROP_GetCharDistX    0x0803f705      0x46  Code  Gb  GUI_CharP.o [3]
GUIPROP_GetFontInfo     0x0803f751       0x6  Code  Gb  GUI_CharP.o [3]
GUIPROP_IsInFont        0x0803f757      0x1c  Code  Gb  GUI_CharP.o [3]
GUITASK_CopyContext     0x08019fe9      0xac  Code  Gb  GUI_Task.o [3]
GUITASK_Init            0x08019fb3      0x36  Code  Gb  GUI_Task.o [3]
GUITASK__EntranceCnt    0x200007f8       0x4  Data  Gb  GUI_Task.o [3]
GUI_ALLOC_AllocInit     0x080273ad      0x46  Code  Gb  GUI_ALLOC_AllocInit.o [3]
GUI_ALLOC_AllocNoInit   0x080197ff      0x1e  Code  Gb  GUI_Alloc.o [3]
GUI_ALLOC_AllocZero     0x0801a0e1      0x32  Code  Gb  GUI_ALLOC_AllocZero.o [3]
GUI_ALLOC_AssignMemory  0x080198f7      0x10  Code  Gb  GUI_Alloc.o [3]
GUI_ALLOC_Free          0x0801991f      0x4c  Code  Gb  GUI_Alloc.o [3]
GUI_ALLOC_FreeFixedBlock
                        0x080196f1      0x10  Code  Gb  GUI_Alloc.o [3]
GUI_ALLOC_FreePtr       0x0801996b      0x1a  Code  Gb  GUI_Alloc.o [3]
GUI_ALLOC_FreePtrArray  0x08019985      0x28  Code  Gb  GUI_Alloc.o [3]
GUI_ALLOC_GetFixedBlock
                        0x08019705      0xfa  Code  Gb  GUI_Alloc.o [3]
GUI_ALLOC_GetMaxSize    0x08019879      0x3e  Code  Gb  GUI_Alloc.o [3]
GUI_ALLOC_GetSize       0x08019907      0x18  Code  Gb  GUI_Alloc.o [3]
GUI_ALLOC_Lock          0x080198e3       0xa  Code  Gb  GUI_Alloc.o [3]
GUI_ALLOC_LockH         0x0801982d      0x22  Code  Gb  GUI_Alloc.o [3]
GUI_ALLOC_Realloc       0x080273f3      0x5e  Code  Gb  GUI_Realloc.o [3]
GUI_ALLOC_RequestSize   0x080198b7      0x2c  Code  Gb  GUI_Alloc.o [3]
GUI_ALLOC_Unlock        0x080198ed       0xa  Code  Gb  GUI_Alloc.o [3]
GUI_ALLOC_UnlockH       0x0801984f      0x2a  Code  Gb  GUI_Alloc.o [3]
GUI_ALLOC__Context      0x20029a94      0xbc  Data  Gb  GUI_Alloc.o [3]
GUI_ALLOC_h2p           0x0801981d      0x10  Code  Gb  GUI_Alloc.o [3]
GUI_ARRAY_AddItem       0x080241bd      0x82  Code  Gb  GUI_ARRAY.o [3]
GUI_ARRAY_Create        0x080242db       0x6  Code  Gb  GUI_ARRAY.o [3]
GUI_ARRAY_Delete        0x0802423f      0x5a  Code  Gb  GUI_ARRAY.o [3]
GUI_ARRAY_GetNumItems   0x080241a1      0x1c  Code  Gb  GUI_ARRAY.o [3]
GUI_ARRAY_GetpItemLocked
                        0x08024299      0x42  Code  Gb  GUI_ARRAY.o [3]
GUI_BitmapMethods8888   0x08040eb0       0xc  Data  Gb  GUI_DrawBitmap_8888.o [3]
GUI_CURSOR_SetPositionEx
                        0x0803b339      0x6c  Code  Gb  GUI_Curs1.o [3]
GUI_CalcColorDist       0x08040161      0x3e  Code  Gb  GUI_CalcColorDist.o [3]
GUI_CharLine_pfLog2Vis  0x20000974       0x4  Data  Gb  GUI_CharLine.o [3]
GUI_Clear               0x0801af4b      0x6e  Code  Gb  GUI_Core.o [3]
GUI_ClearRect           0x0801aee3      0x68  Code  Gb  GUI_Core.o [3]
GUI_CreateDialogBox     0x08029185      0xba  Code  Gb  DIALOG.o [3]
GUI_DEVICE_Create       0x0801b235      0x62  Code  Gb  GUI_Device.o [3]
GUI_DEVICE_CreateAndLink
                        0x0801b371      0x7c  Code  Gb  GUI_Device.o [3]
GUI_DEVICE_Delete       0x0801b231       0x4  Code  Gb  GUI_Device.o [3]
GUI_DEVICE_Link         0x0801b2c1      0xb0  Code  Gb  GUI_Device.o [3]
GUI_DEVICE_LinkDevices  0x0801b449      0x12  Code  Gb  GUI_Device.o [3]
GUI_DEVICE_Unlink       0x0801b297      0x2a  Code  Gb  GUI_Device.o [3]
GUI_DEVICE_UnlinkTaskDevices
                        0x0801b3ed      0x54  Code  Gb  GUI_Device.o [3]
GUI_DEVICE__GetpDevice  0x0801b1ad      0x42  Code  Gb  GUI_Device.o [3]
GUI_DEVICE__GetpDriver  0x0801b1ef      0x42  Code  Gb  GUI_Device.o [3]
GUI_DRAW__Draw          0x0803e1e9      0x30  Code  Gb  GUI_DRAW.o [3]
GUI_DecChar             0x20000244       0x1  Data  Gb  GUI_Core.o [3]
GUI_Delay               0x0801c9c1      0x5e  Code  Gb  GUI_Time.o [3]
GUI_DispString          0x0803e891     0x108  Code  Gb  GUI_DispString.o [3]
GUI_DispStringAt        0x0803e869      0x28  Code  Gb  GUI_DispStringAt.o [3]
GUI_DispStringInRect    0x0803e371      0x4a  Code  Gb  GUI_DispStringInRect.o [3]
GUI_DispStringInRectWrap
                        0x08028c8d     0x134  Code  Gb  GUI_DispStringInRectWrap.o [3]
GUI_DrawBitmap          0x08028c1f      0x64  Code  Gb  GUI_DrawBitmap.o [3]
GUI_DrawFocusRect       0x08027949      0xb8  Code  Gb  GUI_DrawFocusRect.o [3]
GUI_DrawGradientH       0x0803ca2d      0x68  Code  Gb  GUI_DrawGradient.o [3]
GUI_DrawGradientV       0x0803c9c5      0x68  Code  Gb  GUI_DrawGradient.o [3]
GUI_DrawHLine           0x08027a01      0x5c  Code  Gb  GUI_DrawHLine.o [3]
GUI_DrawLine            0x0803990b      0x4c  Code  Gb  GUI_DrawLine.o [3]
GUI_DrawPixel           0x0803cec1      0x58  Code  Gb  GUI_DrawPixel.o [3]
GUI_DrawRect            0x0803e15d      0x86  Code  Gb  GUI_2DLib.o [3]
GUI_DrawVLine           0x08027a5d      0x58  Code  Gb  GUI_DrawVLine.o [3]
GUI_EndDialog           0x0802923f      0x3c  Code  Gb  DIALOG.o [3]
GUI_Exec                0x0801f169      0x2c  Code  Gb  GUI_Exec.o [3]
GUI_F6x8_Mono           0x08038628      0x14  Data  Lc  F6x8.o [3]
GUI_F6x8_TI8859_1       0x08038620       0x8  Data  Lc  F6x8.o [3]
GUI_F6x8_TL8859_1       0x08038460     0x1c0  Data  Lc  F6x8.o [3]
GUI_FillRect            0x08028a3d      0x58  Code  Gb  GUI_FillRect.o [3]
GUI_FillRectEx          0x08027ab5      0x14  Code  Gb  GUI_FillRectEx.o [3]
GUI_Font13ASCII_CharInfo
                        0x08036400     0x2f8  Data  Lc  F13_ASCII.o [3]
GUI_Font13ASCII_Prop1   0x080366f8       0xc  Data  Gb  F13_ASCII.o [3]
GUI_Font13_1            0x08035dc8      0x24  Data  Gb  F13_1.o [3]
GUI_Font13_1_CharInfo   0x08035abc     0x300  Data  Lc  F13_1.o [3]
GUI_Font13_1_Prop1      0x08035dbc       0xc  Data  Lc  F13_1.o [3]
GUI_Font16B_ASCII       0x08033f50      0x24  Data  Gb  F16B_ASCII.o [3]
GUI_Font16B_ASCII_CharInfo
                        0x08033c4c     0x2f8  Data  Gb  F16B_ASCII.o [3]
GUI_Font16B_ASCII_Prop1
                        0x08033f44       0xc  Data  Lc  F16B_ASCII.o [3]
GUI_Font20B_ASCII       0x0802fc00      0x24  Data  Gb  F20B_ASCII.o [3]
GUI_Font20B_ASCII_CharInfo
                        0x0802f8fc     0x2f8  Data  Gb  F20B_ASCII.o [3]
GUI_Font20B_ASCII_Prop1
                        0x0802fbf4       0xc  Data  Gb  F20B_ASCII.o [3]
GUI_Font20_ASCII        0x08030bd0      0x24  Data  Gb  F20_ASCII.o [3]
GUI_Font20_ASCII_CharInfo
                        0x080308cc     0x2f8  Data  Gb  F20_ASCII.o [3]
GUI_Font20_ASCII_Prop1  0x08030bc4       0xc  Data  Gb  F20_ASCII.o [3]
GUI_Font24B_ASCII       0x0802ebb8      0x24  Data  Gb  F24B_ASCII.o [3]
GUI_Font24B_ASCII_CharInfo
                        0x0802e8b4     0x2f8  Data  Gb  F24B_ASCII.o [3]
GUI_Font24B_ASCII_Prop1
                        0x0802ebac       0xc  Data  Lc  F24B_ASCII.o [3]
GUI_Font32B_ASCII       0x080177dc      0x24  Data  Gb  F32B_ASCII.o [3]
GUI_Font32B_ASCII_CharInfo
                        0x080174d8     0x2f8  Data  Gb  F32B_ASCII.o [3]
GUI_Font32B_ASCII_Prop1
                        0x080177d0       0xc  Data  Lc  F32B_ASCII.o [3]
GUI_Font6x8             0x0803863c      0x24  Data  Gb  F6x8.o [3]
GUI_FontD32             0x08039364      0x24  Data  Gb  FD32.o [3]
GUI_FontD48             0x080328a8      0x24  Data  Gb  FD48.o [3]
GUI_FontD48_CharInfo    0x08032800      0x78  Data  Lc  FD48.o [3]
GUI_FontD48_Prop1       0x0803289c       0xc  Data  Lc  FD48.o [3]
GUI_FontD48_Prop2       0x08032890       0xc  Data  Lc  FD48.o [3]
GUI_FontD48_Prop3       0x08032884       0xc  Data  Lc  FD48.o [3]
GUI_FontD48_Prop4       0x08032878       0xc  Data  Lc  FD48.o [3]
GUI_GetBitmapPixelIndex
                        0x0803a953      0x1a  Code  Gb  GUI_GetBitmapPixelIndex.o [3]
GUI_GetBitmapPixelIndexEx
                        0x0803a8bb      0x98  Code  Gb  GUI_GetBitmapPixelIndex.o [3]
GUI_GetBitsPerPixelEx   0x0801b81f       0xe  Code  Gb  LCD_GetEx.o [3]
GUI_GetBkColor          0x0803c2a5      0x18  Code  Gb  GUI_GetColor.o [3]
GUI_GetCharDistX        0x08024155      0x20  Code  Gb  GUI_Char.o [3]
GUI_GetCharDistXEx      0x08024175      0x26  Code  Gb  GUI_Char.o [3]
GUI_GetClientRect       0x0803e219       0xa  Code  Gb  GUI_GetClientRect.o [3]
GUI_GetColor            0x0803c2bd      0x18  Code  Gb  GUI_GetColor.o [3]
GUI_GetCursorLayer      0x0801a14b      0x10  Code  Gb  GUI_SelectLayer.o [3]
GUI_GetDrawMode         0x080207e5      0x18  Code  Gb  GUI_GetDrawMode.o [3]
GUI_GetFontDistY        0x0802413f      0x16  Code  Gb  GUI_Char.o [3]
GUI_GetFontInfo         0x080240c9      0x3c  Code  Gb  GUI_GetFontInfo.o [3]
GUI_GetFontSizeY        0x08027399      0x14  Code  Gb  GUI_GetFontSizeY.o [3]
GUI_GetLayerPosEx       0x0801a189      0x26  Code  Gb  GUI_SelectLayer.o [3]
GUI_GetOrg              0x0801cafd      0x26  Code  Gb  GUI_GetOrg.o [3]
GUI_GetStringDistX      0x080242e1      0x14  Code  Gb  GUI_GetStringDistX.o [3]
GUI_GetTime             0x0801c9bd       0x4  Code  Gb  GUI_Time.o [3]
GUI_GetYAdjust          0x08024105      0x3a  Code  Gb  GUI_Char.o [3]
GUI_GetpfColor2IndexEx  0x0801b86d       0xc  Code  Gb  LCD_GetEx.o [3]
GUI_GetpfIndex2ColorEx  0x0801b861       0xc  Code  Gb  LCD_GetEx.o [3]
GUI_GotoXY              0x0801cc9d      0x1e  Code  Gb  GUI_Goto.o [3]
GUI_Init                0x0801afb9      0xe8  Code  Gb  GUI_Core.o [3]
GUI_Lock                0x08019f39      0x7a  Code  Gb  GUI_Task.o [3]
GUI_MEMDEV_Clear        0x0801cc15      0x48  Code  Gb  GUIDEV_Clear.o [3]
GUI_MEMDEV_CopyToLCD    0x08019e8d       0x6  Code  Gb  GUIDEV.o [3]
GUI_MEMDEV_CopyToLCDAt  0x08019d97      0xf6  Code  Gb  GUIDEV.o [3]
GUI_MEMDEV_CreateEx     0x08019cb5      0x7a  Code  Gb  GUIDEV.o [3]
GUI_MEMDEV_DEVICE_16    0x080353dc      0x34  Data  Gb  GUIDEV_16.o [3]
GUI_MEMDEV_DEVICE_32    0x080349b0      0x34  Data  Gb  GUIDEV_32.o [3]
GUI_MEMDEV_Delete       0x08019c6f      0x46  Code  Gb  GUIDEV.o [3]
GUI_MEMDEV_Draw         0x0801ac43     0x11a  Code  Gb  GUIDEV_Banding.o [3]
GUI_MEMDEV_GetBitsPerPixel
                        0x08019c3b      0x34  Code  Gb  GUIDEV.o [3]
GUI_MEMDEV_GetDataPtr   0x0801ded5      0x26  Code  Gb  GUIDEV_GetDataPtr.o [3]
GUI_MEMDEV_GetXPos      0x0802ac25      0x32  Code  Gb  GUIDEV_GetPos.o [3]
GUI_MEMDEV_GetXSize     0x0802ac8d      0x38  Code  Gb  GUIDEV_GetXSize.o [3]
GUI_MEMDEV_GetYPos      0x0802ac57      0x32  Code  Gb  GUIDEV_GetPos.o [3]
GUI_MEMDEV_GetYSize     0x0801cb2d      0x38  Code  Gb  GUIDEV_GetYSize.o [3]
GUI_MEMDEV_Paint1Static
                        0x0803f88b      0x18  Code  Gb  GUIDEV_StaticDevices.o [3]
GUI_MEMDEV_ReduceYSize  0x0801cb65      0x3c  Code  Gb  GUIDEV_ReduceYSize.o [3]
GUI_MEMDEV_Select       0x08019d2f      0x68  Code  Gb  GUIDEV.o [3]
GUI_MEMDEV_SetOrg       0x0801cba1      0x74  Code  Gb  GUIDEV_SetOrg.o [3]
GUI_MEMDEV_Write        0x0803f901      0x6c  Code  Gb  GUIDEV_Write.o [3]
GUI_MEMDEV__CreateFixed
                        0x08019b43      0xf8  Code  Gb  GUIDEV.o [3]
GUI_MEMDEV__SetAlphaCallback
                        0x0801ac3d       0x6  Code  Gb  GUIDEV_Banding.o [3]
GUI_MEMDEV__WriteToActiveAlpha
                        0x0803faa1     0x108  Code  Gb  GUIDEV_WriteToActiveAlpha.o [3]
GUI_MEMDEV__WriteToActiveAt
                        0x08019b0d      0x36  Code  Gb  GUIDEV.o [3]
GUI_MEMDEV__WriteToActiveOpaque
                        0x0801c255      0x42  Code  Gb  GUIDEV_WriteToActiveOpaque.o [3]
GUI_MULTIBUF_ConfirmEx  0x080207fd      0x22  Code  Gb  GUI_MULTIBUF.o [3]
GUI_MergeRect           0x08019a15      0x54  Code  Gb  GUI_MergeRect.o [3]
GUI_MoveRect            0x08019ab1      0x1c  Code  Gb  GUI_MoveRect.o [3]
GUI_OrgX                0x20029a92       0x2  Data  Gb  GUI_Core.o [3]
GUI_OrgY                0x20029ee0       0x2  Data  Gb  GUI_Core.o [3]
GUI_OrientationAPI_C0   0x08040c64      0x20  Data  Gb  GUI_SetOrientationC0.o [3]
GUI_OrientationAPI_C16  0x08040c84      0x20  Data  Gb  GUI_SetOrientationC16.o [3]
GUI_OrientationAPI_C32  0x08040ca4      0x20  Data  Gb  GUI_SetOrientationC32.o [3]
GUI_OrientationAPI_C8   0x08040cc4      0x20  Data  Gb  GUI_SetOrientationC8.o [3]
GUI_PID_GetState        0x08027317      0x48  Code  Gb  GUI_PID.o [3]
GUI_PID_IsEmpty         0x08027377      0x12  Code  Gb  GUI_PID.o [3]
GUI_PID_StoreState      0x0802735f      0x18  Code  Gb  GUI_PID.o [3]
GUI_PollKeyMsg          0x0801adb9      0x34  Code  Gb  GUI_OnKey.o [3]
GUI_ReadRectEx          0x0802216d      0x5c  Code  Gb  LCD_ReadRect.o [3]
GUI_RectsIntersect      0x08019ebf      0x38  Code  Gb  GUI_RectsIntersect.o [3]
GUI_RestoreContext      0x0801ad6f       0xc  Code  Gb  GUI_SaveContext.o [3]
GUI_SPRITE_SetPosition  0x0803a899      0x22  Code  Gb  GUI_SPRITE.o [3]
GUI_SaveContext_W       0x0801ad65       0xa  Code  Gb  GUI_SaveContext.o [3]
GUI_SelectLCD           0x0801bb4d      0x1e  Code  Gb  GUI_SelectLCD.o [3]
GUI_SelectLayer         0x0801a125      0x26  Code  Gb  GUI_SelectLayer.o [3]
GUI_SetAlpha            0x08028969      0x70  Code  Gb  GUI_SetAlpha.o [3]
GUI_SetBkColor          0x0801ad81      0x16  Code  Gb  GUI_SetColor.o [3]
GUI_SetClipRect         0x0802ae75      0x18  Code  Gb  GUI_SetClipRect.o [3]
GUI_SetColor            0x0801ad97      0x16  Code  Gb  GUI_SetColor.o [3]
GUI_SetColorIndex       0x0803c355      0x20  Code  Gb  GUI_SetColorIndex.o [3]
GUI_SetDrawMode         0x0801bbf1      0x18  Code  Gb  GUI_SetDrawMode.o [3]
GUI_SetFont             0x0801cab9      0x24  Code  Gb  GUI_SetFont.o [3]
GUI_SetFuncAlphaBlending
                        0x080210b9       0x6  Code  Gb  GUI__Alpha.o [3]
GUI_SetFuncGetpPalConvTable
                        0x0801aedd       0x6  Code  Gb  GUI_Core.o [3]
GUI_SetFuncMixColors    0x080210bf       0x6  Code  Gb  GUI__Alpha.o [3]
GUI_SetFuncMixColorsBulk
                        0x080210c5       0x6  Code  Gb  GUI__Alpha.o [3]
GUI_SetLayerPosEx       0x0801a169      0x20  Code  Gb  GUI_SelectLayer.o [3]
GUI_SetLineStyle        0x0801cadd      0x20  Code  Gb  GUI_SetLineStyle.o [3]
GUI_SetOrg              0x0801dde5      0x44  Code  Gb  GUI_SetOrg.o [3]
GUI_SetOrientationEx    0x080268e9      0x30  Code  Gb  GUI_SetOrientation.o [3]
GUI_SetOrientationExCached
                        0x080267b5     0x134  Code  Gb  GUI_SetOrientation.o [3]
GUI_SetPenSize          0x0801ca51      0x1c  Code  Gb  GUI_Pen.o [3]
GUI_SetTextAlign        0x0801ca71      0x24  Code  Gb  GUI_SetTextAlign.o [3]
GUI_SetTextMode         0x0801ca95      0x24  Code  Gb  GUI_SetTextMode.o [3]
GUI_SignalEvent         0x08019a69       0xc  Code  Gb  GUI_WaitEvent.o [3]
GUI_StoreKey            0x0801adad       0xc  Code  Gb  GUI_OnKey.o [3]
GUI_TIMER_Create        0x0801c7ad      0x8c  Code  Gb  GUI_Timer.o [3]
GUI_TIMER_Delete        0x0801c839      0x9c  Code  Gb  GUI_Timer.o [3]
GUI_TIMER_Exec          0x0801c737      0x76  Code  Gb  GUI_Timer.o [3]
GUI_TIMER_GetFlag       0x0801c981      0x3a  Code  Gb  GUI_Timer.o [3]
GUI_TIMER_Restart       0x0801c8fb      0x76  Code  Gb  GUI_Timer.o [3]
GUI_TIMER_SetPeriod     0x0801c8d5      0x26  Code  Gb  GUI_Timer.o [3]
GUI_TIMER__GetFirstTimer
                        0x0801c6cb      0x28  Code  Gb  GUI_Timer.o [3]
GUI_TIMER__GetNextTimerLin
                        0x0801c6f3      0x38  Code  Gb  GUI_Timer.o [3]
GUI_TOUCH_StoreStateEx  0x08023f61      0x28  Code  Gb  GUI_TOUCH.o [3]
GUI_UC_None             0x08040c08      0x10  Data  Gb  GUI_UC_EncodeNone.o [3]
GUI_UC__GetCharCodeInc  0x0802a8c5      0x26  Code  Gb  GUI_UC.o [3]
GUI_UC__NumChars2NumBytes
                        0x0802a8eb      0x26  Code  Gb  GUI_UC.o [3]
GUI_USAGE_AddRect       0x0801bba1      0x2c  Code  Gb  GUIDEV_Usage.o [3]
GUI_USAGE_BM_AddHLine   0x0801b967      0x72  Code  Lc  GUIDEV_UsageBM.o [3]
GUI_USAGE_BM_AddPixel   0x0801b93d      0x2a  Code  Lc  GUIDEV_UsageBM.o [3]
GUI_USAGE_BM_Clear      0x0801b9d9       0xe  Code  Lc  GUIDEV_UsageBM.o [3]
GUI_USAGE_BM_Create     0x0801badb      0x5a  Code  Gb  GUIDEV_UsageBM.o [3]
GUI_USAGE_BM_GetNextDirty
                        0x0801b9e9      0xee  Code  Lc  GUIDEV_UsageBM.o [3]
GUI_USAGE_DecUseCnt     0x0801bb6d      0x32  Code  Gb  GUIDEV_Usage.o [3]
GUI_Unlock              0x08019f29      0x10  Code  Gb  GUI_Task.o [3]
GUI_X_Config            0x0801ccc5       0xa  Code  Gb  GUIConf.o [1]
GUI_X_Delay             0x0801c2a5       0x4  Code  Gb  GUI_X_FreeRTOS.o [1]
GUI_X_GetTaskId         0x0801c31d       0x4  Code  Gb  GUI_X_FreeRTOS.o [1]
GUI_X_GetTime           0x0801c2a1       0x4  Code  Gb  GUI_X_FreeRTOS.o [1]
GUI_X_Init              0x0801c2a9       0x2  Code  Gb  GUI_X_FreeRTOS.o [1]
GUI_X_InitOS            0x0801c2ab      0x2a  Code  Gb  GUI_X_FreeRTOS.o [1]
GUI_X_Lock              0x0801c2e3      0x3a  Code  Gb  GUI_X_FreeRTOS.o [1]
GUI_X_Unlock            0x0801c2d5       0xe  Code  Gb  GUI_X_FreeRTOS.o [1]
GUI__AllocAlphaBuffer   0x08021049      0x70  Code  Gb  GUI__Alpha.o [3]
GUI__AlphaSuppressMixing
                        0x08028939      0x26  Code  Gb  GUI_SetAlpha.o [3]
GUI__CompactPixelIndices
                        0x0801defd     0x132  Code  Gb  GUI__CompactPixelIndices.o [3]
GUI__CompactPixelIndicesEx
                        0x0801e031     0x14c  Code  Gb  GUI__CompactPixelIndices.o [3]
GUI__Context            0x200001c4      0x78  Data  Lc  GUI_Core.o [3]
GUI__DispLine           0x0802750b     0x156  Code  Gb  GUI_CharLine.o [3]
GUI__DispStringInRect   0x0803e225     0x148  Code  Gb  GUI_DispStringInRect.o [3]
GUI__DivideRound32      0x08024c6d      0x1e  Code  Gb  GUI__DivideRound32.o [3]
GUI__DoAlphaBlending    0x08020df5     0x254  Code  Gb  GUI__Alpha.o [3]
GUI__DrawTwinArc4       0x0803a29b      0x68  Code  Gb  GUI__DrawTwinArc.o [3]
GUI__ExpandPixelIndices
                        0x080221cd      0xf0  Code  Gb  GUI__ExpandPixelIndices.o [3]
GUI__ExpandPixelIndicesEx
                        0x080222bd     0x14e  Code  Gb  GUI__ExpandPixelIndices.o [3]
GUI__FillTrippleArc     0x0803a303      0x6c  Code  Gb  GUI__DrawTwinArc.o [3]
GUI__GetFontSizeY       0x0802a8b1      0x14  Code  Gb  GUI__GetFontSizeY.o [3]
GUI__GetLineDistX       0x080274a9      0x62  Code  Gb  GUI_CharLine.o [3]
GUI__GetLineNumChars    0x0802746f      0x3a  Code  Gb  GUI_CharLine.o [3]
GUI__GetNumChars        0x08027451      0x1c  Code  Gb  GUI__GetNumChars.o [3]
GUI__HandleEOLine       0x0803e3bb      0x16  Code  Gb  GUI__HandleEOLine.o [3]
GUI__IntersectRect      0x08019acd      0x40  Code  Gb  GUI__IntersectRect.o [3]
GUI__IntersectRects     0x080199b5      0x60  Code  Gb  GUI__IntersectRects.o [3]
GUI__ManageCache        0x0801aea7       0xa  Code  Gb  GUI__ManageCache.o [3]
GUI__ManageCacheEx      0x0801adf1      0xb6  Code  Gb  GUI__ManageCache.o [3]
GUI__MixColors          0x08020d8d      0x68  Code  Gb  GUI__Alpha.o [3]
GUI__MixColorsBulk      0x08020ccd      0xc0  Code  Gb  GUI__Alpha.o [3]
GUI__ReduceRect         0x08024061      0x1a  Code  Gb  GUI__ReduceRect.o [3]
GUI__RegisterExit       0x0801b0a1       0xe  Code  Gb  GUI_Core.o [3]
GUI__SetPixelAlpha      0x0803c2d5      0x68  Code  Gb  GUI__SetPixelAlpha.o [3]
GUI__SetText            0x0802ae8d      0x70  Code  Gb  GUI__SetText.o [3]
GUI__WrapGetNumBytesToNextLine
                        0x0802adf1      0x7c  Code  Gb  GUI__Wrap.o [3]
GUI__WrapGetNumCharsDisp
                        0x0802add3      0x1e  Code  Gb  GUI__Wrap.o [3]
GUI__Wrap_pfGetCharWrap
                        0x20000938       0x4  Data  Gb  GUI__Wrap.o [3]
GUI__Wrap_pfGetWordWrap
                        0x20000934       0x4  Data  Gb  GUI__Wrap.o [3]
GUI__aConvert_15_255    0x08040e90      0x10  Data  Gb  GUI__DivTbl_15_255.o [3]
GUI__aConvert_255_15    0x0803fea8     0x100  Data  Gb  GUI__DivTbl_255_15.o [3]
GUI__aConvert_255_31    0x0803fba8     0x100  Data  Gb  GUI__DivTbl_255_31.o [3]
GUI__aConvert_255_63    0x0803fca8     0x100  Data  Gb  GUI__DivTbl_255_63.o [3]
GUI__aConvert_31_255    0x08040ce4      0x20  Data  Gb  GUI__DivTbl_31_255.o [3]
GUI__aConvert_63_255    0x08040968      0x40  Data  Gb  GUI__DivTbl_63_255.o [3]
GUI__apDevice           0x20000254       0x8  Data  Gb  GUI_Core.o [3]
GUI__memset             0x0801b53d     0x108  Code  Gb  GUI__memset.o [3]
GUI__memset16           0x08035411      0x58  Code  Gb  GUI__memset16.o [3]
GUI__pFontDefault       0x2000024c       0x4  Data  Gb  GUI_Core.o [3]
GUI__pfMixColors        0x20000964       0x4  Data  Gb  GUI__Alpha.o [3]
GUI__pfMixColorsBulk    0x20000968       0x4  Data  Gb  GUI__Alpha.o [3]
GUI__sqrt32             0x0803a375      0x1a  Code  Gb  GUI__sqrt32.o [3]
GUI__strcmp_hp          0x0802cb75      0x68  Code  Gb  GUI__strcmp.o [3]
GUI__strlen             0x0802cbe1      0x16  Code  Gb  GUI__strlen.o [3]
GUI_acFont6x8           0x08037f48     0x518  Data  Lc  F6x8.o [3]
GUI_pContext            0x20000250       0x4  Data  Gb  GUI_Core.o [3]
GUI_pLCD_APIList        0x20029ec8       0x4  Data  Gb  GUI_Core.o [3]
GUI_pUC_API             0x20000248       0x4  Data  Gb  GUI_Core.o [3]
GUI_pfDispCharStyle     0x20029ec4       0x4  Data  Gb  GUI_Core.o [3]
GUI_pfGetpPalConvTable  0x20000960       0x4  Data  Gb  GUI_Core.o [3]
GUI_pfTimerExec         0x20029ebc       0x4  Data  Gb  GUI_Core.o [3]
GetLSIFrequency         0x08023e67      0xb4  Code  Gb  rtc.o [1]
Get_ExtMemHeap          0x0801ccc1       0x4  Code  Gb  GUIConf.o [1]
HCD_GetURB_State        0x08026d51       0x8  Code  Gb  usb_hcd.o [1]
HCD_GetXferCnt          0x08026d59       0xa  Code  Gb  usb_hcd.o [1]
HCD_Init                0x08026ce3      0x68  Code  Gb  usb_hcd.o [1]
HCD_IsDeviceConnected   0x08026d4b       0x6  Code  Gb  usb_hcd.o [1]
HCD_SubmitRequest       0x08026d63      0x14  Code  Gb  usb_hcd.o [1]
HEAP$$Base              0x2002bee8             --   Gb  - Linker created -
HEAP$$Limit             0x2002cce8             --   Gb  - Linker created -
HardFault_Handler       0x08040547       0x2  Code  Gb  stm32xxx_it.o [1]
HeapMem                 0xd0100000  0x400000  Data  Lc  GUIConf.o [1]
I2C_AcknowledgeConfig   0x08026b2d      0x14  Code  Gb  stm32f4xx_i2c.o [1]
I2C_Cmd                 0x08026ae1      0x14  Code  Gb  stm32f4xx_i2c.o [1]
I2C_DeInit              0x080269c1      0x58  Code  Gb  stm32f4xx_i2c.o [1]
I2C_GenerateSTART       0x08026af5      0x14  Code  Gb  stm32f4xx_i2c.o [1]
I2C_GenerateSTOP        0x08026b09      0x14  Code  Gb  stm32f4xx_i2c.o [1]
I2C_GetFlagStatus       0x08026b73      0x34  Code  Gb  stm32f4xx_i2c.o [1]
I2C_Init                0x08026a19      0xb4  Code  Gb  stm32f4xx_i2c.o [1]
I2C_NACKPositionConfig  0x08026b53      0x16  Code  Gb  stm32f4xx_i2c.o [1]
I2C_ReadDataBuffer      0x08023ba9     0x124  Code  Gb  stm32f429i_discovery_ioe.o [1]
I2C_ReadDeviceRegister  0x08023a7f     0x12a  Code  Gb  stm32f429i_discovery_ioe.o [1]
I2C_ReceiveData         0x08026b6d       0x6  Code  Gb  stm32f4xx_i2c.o [1]
I2C_Send7bitAddress     0x08026b1d      0x10  Code  Gb  stm32f4xx_i2c.o [1]
I2C_SendData            0x08026b69       0x4  Code  Gb  stm32f4xx_i2c.o [1]
I2C_SoftwareResetCmd    0x08026b41      0x12  Code  Gb  stm32f4xx_i2c.o [1]
I2C_WriteDeviceRegister
                        0x0802399f      0xe0  Code  Gb  stm32f429i_discovery_ioe.o [1]
ICONVIEW_AddBitmapItem  0x08025dd9      0x80  Code  Gb  ICONVIEW.o [3]
ICONVIEW_Callback       0x08025bab      0xe4  Code  Gb  ICONVIEW.o [3]
ICONVIEW_CreateEx       0x08025da1      0x38  Code  Gb  ICONVIEW.o [3]
ICONVIEW_CreateUser     0x08025c8f     0x112  Code  Gb  ICONVIEW.o [3]
ICONVIEW_GetSel         0x08025f79      0x2a  Code  Gb  ICONVIEW.o [3]
ICONVIEW_SetBkColor     0x08025e75      0x3c  Code  Gb  ICONVIEW.o [3]
ICONVIEW_SetFont        0x08025eb1      0x34  Code  Gb  ICONVIEW.o [3]
ICONVIEW_SetFrame       0x08025ee5      0x4a  Code  Gb  ICONVIEW.o [3]
ICONVIEW_SetSpace       0x08025f2f      0x4a  Code  Gb  ICONVIEW.o [3]
ICONVIEW__DefaultProps  0x200005b8      0x38  Data  Gb  ICONVIEW.o [3]
IOE_Config              0x080236b5      0xe6  Code  Gb  stm32f429i_discovery_ioe.o [1]
IOE_GPIO_Config         0x08023917      0x88  Code  Lc  stm32f429i_discovery_ioe.o [1]
IOE_TP_Config           0x08023851      0xc6  Code  Gb  stm32f429i_discovery_ioe.o [1]
IOE_TP_GetState         0x0802379b      0xb6  Code  Gb  stm32f429i_discovery_ioe.o [1]
IOE_TimeOut             0x20000950       0x4  Data  Gb  stm32f429i_discovery_ioe.o [1]
IOE_TimeoutUserCallback
                        0x08023ccd      0x66  Code  Gb  stm32f429i_discovery_ioe.o [1]
InStream_Read           0x0803e999      0x22  Code  Lc  lz77_init.o [6]
LCD_AA_SetAndMask       0x0802acc5       0xa  Code  Gb  LCD_AA.o [3]
LCD_AF_GPIOConfig       0x08020657     0x15a  Code  Lc  stm32f429i_discovery_lcd.o [1]
LCD_API_ColorConv_0     0x08040e60      0x18  Data  Gb  GUICC_0.o [3]
LCD_API_ColorConv_16    0x08040e48      0x18  Data  Gb  GUICC_16.o [3]
LCD_API_ColorConv_1616I
                        0x08040e00      0x18  Data  Gb  GUICC_1616I.o [3]
LCD_API_ColorConv_8666  0x08040e18      0x18  Data  Gb  GUICC_8666.o [3]
LCD_API_ColorConv_88666I
                        0x08040e30      0x18  Data  Gb  GUICC_88666I.o [3]
LCD_API_ColorConv_8888  0x08040e78      0x18  Data  Gb  GUICC_8888.o [3]
LCD_API_ColorConv_M1555I
                        0x08040d88      0x18  Data  Gb  GUICC_M1555I.o [3]
LCD_API_ColorConv_M4444I
                        0x08040da0      0x18  Data  Gb  GUICC_M4444I.o [3]
LCD_API_ColorConv_M565  0x08040db8      0x18  Data  Gb  GUICC_M565.o [3]
LCD_API_ColorConv_M888  0x08040de8      0x18  Data  Gb  GUICC_M888.o [3]
LCD_API_ColorConv_M8888I
                        0x08040dd0      0x18  Data  Gb  GUICC_M8888I.o [3]
LCD_Color2Index         0x0801a959      0x12  Code  Gb  LCD.o [3]
LCD_Color2Index_8666    0x080403e1      0x58  Code  Gb  GUICC_8666.o [3]
LCD_CtrlLinesConfig     0x0802054b      0x48  Code  Gb  stm32f429i_discovery_lcd.o [1]
LCD_DisplayOff          0x08020501      0x4a  Code  Gb  stm32f429i_discovery_lcd.o [1]
LCD_DisplayOn           0x080204b7      0x4a  Code  Gb  stm32f429i_discovery_lcd.o [1]
LCD_DrawBitmap          0x0801a5c1     0x274  Code  Gb  LCD.o [3]
LCD_DrawHLine           0x0801a2a7      0x4a  Code  Gb  LCD.o [3]
LCD_DrawPixel           0x0801a249      0x5e  Code  Gb  LCD.o [3]
LCD_DrawVLine           0x0801a2f1      0x4a  Code  Gb  LCD.o [3]
LCD_FillRect            0x0801a33b      0x58  Code  Gb  LCD.o [3]
LCD_GetBitsPerPixelEx   0x0801b72d      0x1c  Code  Gb  LCD_GetEx.o [3]
LCD_GetBkColorIndex     0x0803c33d       0xa  Code  Gb  LCD_GetColorIndex.o [3]
LCD_GetColorIndex       0x0803c347       0xa  Code  Gb  LCD_GetColorIndex.o [3]
LCD_GetDevFunc          0x0801b82d      0x12  Code  Gb  LCD_GetEx.o [3]
LCD_GetMirrorXEx        0x0801b765      0x1c  Code  Gb  LCD_GetEx.o [3]
LCD_GetMirrorYEx        0x0801b781      0x1c  Code  Gb  LCD_GetEx.o [3]
LCD_GetNumColors        0x0801b7fd      0x22  Code  Gb  LCD_GetEx.o [3]
LCD_GetNumColorsEx      0x0801b749      0x1c  Code  Gb  LCD_GetEx.o [3]
LCD_GetNumLayers        0x0801f139      0x1c  Code  Gb  LCD_GetNumDisplays.o [3]
LCD_GetPalette          0x0801b83f      0x22  Code  Gb  LCD_GetEx.o [3]
LCD_GetPixelColor       0x0803c379      0x12  Code  Gb  LCD_GetPixelColor.o [3]
LCD_GetPixelIndex       0x0803c38d      0x58  Code  Gb  LCD_GetP.o [3]
LCD_GetPosEx            0x0801c41f      0x32  Code  Gb  LCD_Set.o [3]
LCD_GetSwapXYEx         0x0801b79d      0x1c  Code  Gb  LCD_GetEx.o [3]
LCD_GetVXSizeEx         0x0801b6f5      0x1c  Code  Gb  LCD_GetEx.o [3]
LCD_GetVXSizeMax        0x0801b881      0x28  Code  Gb  LCD_GetEx.o [3]
LCD_GetVYSizeEx         0x0801b711      0x1c  Code  Gb  LCD_GetEx.o [3]
LCD_GetXSize            0x0801b7b9      0x22  Code  Gb  LCD_GetEx.o [3]
LCD_GetXSizeEx          0x0801b6bd      0x1c  Code  Gb  LCD_GetEx.o [3]
LCD_GetYSize            0x0801b7db      0x22  Code  Gb  LCD_GetEx.o [3]
LCD_GetYSizeEx          0x0801b6d9      0x1c  Code  Gb  LCD_GetEx.o [3]
LCD_GetpPalConvTable    0x0801c4bd      0x4c  Code  Gb  LCD_Color.o [3]
LCD_GetpPalConvTableBM  0x0801c509      0x4c  Code  Gb  LCD_Color.o [3]
LCD_Index2Color         0x0801a96b      0x12  Code  Gb  LCD.o [3]
LCD_Index2Color_8666    0x08040439      0x54  Code  Gb  GUICC_8666.o [3]
LCD_Index2Color_888     0x0801b93b       0x2  Code  Gb  GUICC_888_Index2Color.o [3]
LCD_Index2Color_8888    0x0801b6bb       0x2  Code  Gb  GUICC_8888_Index2Color.o [3]
LCD_Index2Color_M565    0x08040b55      0x2c  Code  Gb  GUICC_M565_Index2Color.o [3]
LCD_Index2Color_M888    0x0801a113      0x12  Code  Gb  GUICC_M888_Index2Color.o [3]
LCD_Init                0x0801f329      0xa4  Code  Gb  stm32f429i_discovery_lcd.o [1]
LCD_InitColors          0x0801c495      0x28  Code  Gb  LCD_Color.o [3]
LCD_InitLUT             0x0801c555      0x70  Code  Gb  LCD_Color.o [3]
LCD_PowerOn             0x0801f425    0x1092  Code  Gb  stm32f429i_discovery_lcd.o [1]
LCD_ReadRectEx          0x08021fdd     0x190  Code  Lc  LCD_ReadRect.o [3]
LCD_SPIConfig           0x08020593      0xc4  Code  Gb  stm32f429i_discovery_lcd.o [1]
LCD_SelectLCD           0x0801de91      0x44  Code  Gb  LCD_SelectLCD.o [3]
LCD_SetBkColor          0x0801a9a1       0x8  Code  Gb  LCD.o [3]
LCD_SetBkColorIndex     0x0801a98f      0x12  Code  Gb  LCD.o [3]
LCD_SetClipRectEx       0x08019a7d      0x34  Code  Gb  LCD_SetClipRectEx.o [3]
LCD_SetClipRectMax      0x0801a835      0x14  Code  Gb  LCD.o [3]
LCD_SetColor            0x0801a9a9       0x8  Code  Gb  LCD.o [3]
LCD_SetColorIndex       0x0801a97d      0x12  Code  Gb  LCD.o [3]
LCD_SetDevFunc          0x0801c451      0x32  Code  Gb  LCD_Set.o [3]
LCD_SetDrawMode         0x0801a23f       0xa  Code  Gb  LCD.o [3]
LCD_SetLUTEntryEx       0x0801c3ed      0x32  Code  Gb  LCD_Set.o [3]
LCD_SetPosEx            0x0801c3bb      0x32  Code  Gb  LCD_Set.o [3]
LCD_SetSizeEx           0x0801c389      0x32  Code  Gb  LCD_Set.o [3]
LCD_SetVRAMAddrEx       0x0801c329      0x2e  Code  Gb  LCD_Set.o [3]
LCD_SetVSizeEx          0x0801c357      0x32  Code  Gb  LCD_Set.o [3]
LCD_UpdateColorIndices  0x0801bbcd      0x24  Code  Gb  LCD_UpdateColorIndices.o [3]
LCD_WriteData           0x0801f3d1      0x48  Code  Gb  stm32f429i_discovery_lcd.o [1]
LCD_X_Config            0x0801dbc9     0x168  Code  Gb  GUIDRV_stm32f429i_discovery.o [1]
LCD_X_DisplayDriver     0x0801da85     0x140  Code  Gb  GUIDRV_stm32f429i_discovery.o [1]
LCD__DrawBitmap_1bpp    0x0801a395     0x22a  Code  Gb  LCD.o [3]
LCD__GetBPPDevice       0x0801b8a9      0x92  Code  Gb  LCD_GetEx.o [3]
LCD__aConvTable         0x2000089c       0x4  Data  Gb  LCD_Color.o [3]
LCD__pSetColorAPI       0x2000096c       0x4  Data  Gb  LCD.o [3]
LCD_aMirror             0x0803fda8     0x100  Data  Gb  LCD_Mirror.o [3]
LTDC_Cmd                0x0801f235      0x16  Code  Gb  stm32f4xx_ltdc.o [1]
LTDC_IRQHandler         0x080405eb       0x4  Code  Gb  stm32xxx_it.o [1]
LTDC_ISR_Handler        0x0801da05      0x7e  Code  Gb  GUIDRV_stm32f429i_discovery.o [1]
LTDC_ITConfig           0x0801f2f9      0x12  Code  Gb  stm32f4xx_ltdc.o [1]
LTDC_Init               0x0801f19d      0x98  Code  Gb  stm32f4xx_ltdc.o [1]
LTDC_LayerCmd           0x0801f2e7      0x12  Code  Gb  stm32f4xx_ltdc.o [1]
LTDC_LayerInit          0x0801f251      0x96  Code  Gb  stm32f4xx_ltdc.o [1]
LTDC_ReloadConfig       0x0801f24b       0x6  Code  Gb  stm32f4xx_ltdc.o [1]
LoadInt                 0x0802b8cd      0x6e  Code  Lc  xprintffull.o [4]
LowLevel_Init           0x080228bd      0x74  Code  Gb  bsp.o [1]
LsiFreq                 0x20029e04       0x4  Data  Gb  rtc.o [1]
MSCErrorCount           0x20029a90       0x1  Data  Gb  usbh_msc_core.o [1]
MSC_Machine             0x20029884     0x20c  Data  Gb  usbh_msc_core.o [1]
MemManage_Handler       0x08040549       0x2  Code  Gb  stm32xxx_it.o [1]
NMI_Handler             0x08040545       0x2  Code  Gb  stm32xxx_it.o [1]
NVIC_Init               0x080226ef      0x5c  Code  Gb  misc.o [1]
NVIC_PriorityGroupConfig
                        0x080226e5       0xa  Code  Gb  misc.o [1]
OTG_HS_IRQHandler       0x08040573      0x14  Code  Gb  stm32xxx_it.o [1]
OutStream_Write         0x0803e9bb      0x40  Code  Lc  lz77_init.o [6]
PROGBAR_DrawSkinFlex    0x0803f189      0x8c  Code  Gb  PROGBAR_SkinFlex.o [3]
PROGBAR_SetDefaultSkin  0x08022b53      0x10  Code  Gb  PROGBAR_Skin.o [3]
PROGBAR__DefaultProps   0x20000804      0x18  Data  Gb  PROGBAR.o [3]
PROGBAR__GetTextLocked  0x08023f8d       0x6  Code  Gb  PROGBAR.o [3]
PROGBAR__GetTextRect    0x08023f93      0x82  Code  Gb  PROGBAR.o [3]
PROGBAR__Skin           0x200008e8       0xc  Data  Gb  PROGBAR_Skin.o [3]
PROGBAR__SkinClassic    0x0803f628       0xc  Data  Gb  PROGBAR_SkinClassic.o [3]
PROGBAR__Value2Pos      0x08024015      0x4c  Code  Gb  PROGBAR.o [3]
PROGBAR__pSkinDefault   0x2000081c       0x4  Data  Gb  PROGBAR.o [3]
PWR_BackupAccessCmd     0x08026e4d       0x6  Code  Gb  stm32f4xx_pwr.o [1]
PendSV_Handler          0x08040553       0x2  Code  Gb  stm32xxx_it.o [1]
PeriodValue             0x20029e68       0x4  Data  Gb  rtc.o [1]
RADIO_DrawSkinFlex      0x08040329      0xb4  Code  Gb  RADIO_SkinFlex.o [3]
RADIO_SetDefaultSkin    0x08022d59      0x10  Code  Gb  RADIO_Skin.o [3]
RADIO__DefaultProps     0x20000740      0x24  Data  Gb  RADIO.o [3]
RADIO__GetButtonSize    0x080240a1      0x26  Code  Gb  RADIO.o [3]
RADIO__Skin             0x200008f4       0xc  Data  Gb  RADIO_Skin.o [3]
RADIO__SkinClassic      0x0803e85c       0xc  Data  Gb  RADIO_SkinClassic.o [3]
RADIO__abmRadio         0x08040508      0x28  Data  Gb  RADIO_Image.o [3]
RADIO__bmCheck          0x08040530      0x14  Data  Gb  RADIO_Image.o [3]
RADIO__pSkinDefault     0x20000764       0x4  Data  Gb  RADIO.o [3]
RCC_AHB1PeriphClockCmd  0x08021a71      0x12  Code  Gb  stm32f4xx_rcc.o [1]
RCC_AHB3PeriphClockCmd  0x08021a83      0x12  Code  Gb  stm32f4xx_rcc.o [1]
RCC_APB1PeriphClockCmd  0x08021a95      0x12  Code  Gb  stm32f4xx_rcc.o [1]
RCC_APB1PeriphResetCmd  0x08021ab9      0x12  Code  Gb  stm32f4xx_rcc.o [1]
RCC_APB2PeriphClockCmd  0x08021aa7      0x12  Code  Gb  stm32f4xx_rcc.o [1]
RCC_APB2PeriphResetCmd  0x08021acb      0x12  Code  Gb  stm32f4xx_rcc.o [1]
RCC_GetClocksFreq       0x080219b5      0x82  Code  Gb  stm32f4xx_rcc.o [1]
RCC_GetFlagStatus       0x08021add      0x22  Code  Gb  stm32f4xx_rcc.o [1]
RCC_LSICmd              0x08021999       0x6  Code  Gb  stm32f4xx_rcc.o [1]
RCC_LTDCCLKDivConfig    0x08021a63       0xe  Code  Gb  stm32f4xx_rcc.o [1]
RCC_PLLSAICmd           0x080219af       0x6  Code  Gb  stm32f4xx_rcc.o [1]
RCC_PLLSAIConfig        0x0802199f      0x10  Code  Gb  stm32f4xx_rcc.o [1]
RCC_RTCCLKCmd           0x08021a5d       0x6  Code  Gb  stm32f4xx_rcc.o [1]
RCC_RTCCLKConfig        0x08021a37      0x26  Code  Gb  stm32f4xx_rcc.o [1]
RTC_Alarm_IRQHandler    0x08023f1b      0x2e  Code  Gb  rtc.o [1]
RTC_ClearITPendingBit   0x08026f35      0x18  Code  Gb  stm32f4xx_rtc.o [1]
RTC_Configuration       0x08023df9      0x6e  Code  Gb  rtc.o [1]
RTC_Error               0x20029e00       0x1  Data  Gb  rtc.o [1]
RTC_GetITStatus         0x08026f09      0x2c  Code  Gb  stm32f4xx_rtc.o [1]
RTC_HandlerFlag         0x2000097c       0x1  Data  Gb  rtc.o [1]
RTC_Init                0x08026e59      0x72  Code  Gb  stm32f4xx_rtc.o [1]
RTC_InitStructure       0x20029df4       0xc  Data  Gb  rtc.o [1]
RTC_WaitForSynchro      0x08026ecb      0x3e  Code  Gb  stm32f4xx_rtc.o [1]
Region$$Table$$Base     0x08040c18             --   Gb  - Linker created -
Region$$Table$$Limit    0x08040c44             --   Gb  - Linker created -
SCROLLBAR_Callback      0x08024955      0xfc  Code  Gb  SCROLLBAR.o [3]
SCROLLBAR_CreateAttached
                        0x0802acd5      0x36  Code  Gb  SCROLLBAR_Create.o [3]
SCROLLBAR_CreateEx      0x08024b5d      0x24  Code  Gb  SCROLLBAR.o [3]
SCROLLBAR_CreateUser    0x08024a51     0x104  Code  Gb  SCROLLBAR.o [3]
SCROLLBAR_Dec           0x08024b81      0x76  Code  Gb  SCROLLBAR.o [3]
SCROLLBAR_DrawSkinFlex  0x0803cd15     0x18e  Code  Gb  SCROLLBAR_SkinFlex.o [3]
SCROLLBAR_Inc           0x08024bf7      0x76  Code  Gb  SCROLLBAR.o [3]
SCROLLBAR_SetDefaultSkin
                        0x08022fcd      0x10  Code  Gb  SCROLLBAR_Skin.o [3]
SCROLLBAR__DefaultProps
                        0x20000820      0x10  Data  Gb  SCROLLBAR.o [3]
SCROLLBAR__DefaultWidth
                        0x20000830       0x2  Data  Gb  SCROLLBAR.o [3]
SCROLLBAR__Rect2VRect   0x0802491d      0x38  Code  Gb  SCROLLBAR.o [3]
SCROLLBAR__Skin         0x20000900       0xc  Data  Gb  SCROLLBAR_Skin.o [3]
SCROLLBAR__SkinClassic  0x0803dbd0       0xc  Data  Gb  SCROLLBAR_SkinClassic.o [3]
SCROLLBAR__ThumbSizeMin
                        0x2000097e       0x2  Data  Gb  SCROLLBAR.o [3]
SCROLLBAR__pSkinDefault
                        0x20000834       0x4  Data  Gb  SCROLLBAR.o [3]
SDRAM_GPIOConfig        0x08021bb1     0x1f8  Code  Gb  stm32f429i_discovery_sdram.o [1]
SDRAM_Init              0x08021b49      0x68  Code  Gb  stm32f429i_discovery_sdram.o [1]
SDRAM_InitSequence      0x08021da9      0xf8  Code  Gb  stm32f429i_discovery_sdram.o [1]
SET_TEST_MODE           0x20029eb4       0x4  Data  Gb  usbd_core.o [1]
SLIDER_DrawSkinFlex     0x0803c6fd     0x116  Code  Gb  SLIDER_SkinFlex.o [3]
SLIDER_SetDefaultSkin   0x080231f1      0x10  Code  Gb  SLIDER_Skin.o [3]
SLIDER__DefaultProps    0x20000838      0x14  Data  Gb  SLIDER.o [3]
SLIDER__Skin            0x2000090c       0xc  Data  Gb  SLIDER_Skin.o [3]
SLIDER__SkinClassic     0x0803f4cc       0xc  Data  Gb  SLIDER_SkinClassic.o [3]
SLIDER__pSkinDefault    0x2000084c       0x4  Data  Gb  SLIDER.o [3]
SPINBOX_DrawSkinFlex    0x0803de29      0x74  Code  Gb  SPINBOX_SkinFlex.o [3]
SPINBOX_SetDefaultSkin  0x0802338b      0x10  Code  Gb  SPINBOX_Skin.o [3]
SPINBOX__ApplyProps     0x08023341      0x4a  Code  Gb  SPINBOX_Skin.o [3]
SPINBOX__DefaultProps   0x200003c4      0x60  Data  Gb  SPINBOX.o [3]
SPINBOX__DrawBk         0x08025231      0xd4  Code  Gb  SPINBOX.o [3]
SPINBOX__GetButtonRect  0x08025305      0xa4  Code  Gb  SPINBOX.o [3]
SPINBOX__GetButtonRectEx
                        0x080253a9      0x2c  Code  Gb  SPINBOX.o [3]
SPINBOX__Skin           0x20000918       0xc  Data  Gb  SPINBOX_Skin.o [3]
SPINBOX__SkinClassic    0x0803e624       0xc  Data  Gb  SPINBOX_SkinClassic.o [3]
SPINBOX__pSkinDefault   0x20000424       0x4  Data  Gb  SPINBOX.o [3]
SPI_Cmd                 0x08021fb5      0x14  Code  Gb  stm32f4xx_spi.o [1]
SPI_I2S_DeInit          0x08021ebd      0xa8  Code  Gb  stm32f4xx_spi.o [1]
SPI_I2S_GetFlagStatus   0x08021fcd       0xe  Code  Gb  stm32f4xx_spi.o [1]
SPI_I2S_SendData        0x08021fc9       0x4  Code  Gb  stm32f4xx_spi.o [1]
SPI_Init                0x08021f65      0x38  Code  Gb  stm32f4xx_spi.o [1]
STM_EVAL_LEDInit        0x08022785      0x46  Code  Gb  stm32f429i_discovery.o [1]
STM_EVAL_LEDOn          0x080227cb      0x12  Code  Gb  stm32f429i_discovery.o [1]
STM_EVAL_LEDToggle      0x080227dd      0x16  Code  Gb  stm32f429i_discovery.o [1]
STM_EVAL_PBInit         0x080227f3      0x9c  Code  Gb  stm32f429i_discovery.o [1]
SVC_Handler             0x08040551       0x2  Code  Gb  stm32xxx_it.o [1]
SYSCFG_EXTILineConfig   0x08023611      0x24  Code  Gb  stm32f4xx_syscfg.o [1]
StartIdleMonitor        0x080218b3      0x16  Code  Gb  cpu_utils.o [1]
SysTick_Handler         0x08040555      0x10  Code  Gb  stm32xxx_it.o [1]
SystemCoreClock         0x20000850       0x4  Data  Gb  system_stm32f4xx.o [1]
SystemInit              0x0803ffa9      0xd0  Code  Gb  system_stm32f4xx.o [1]
TEXT_Callback           0x0803ef25      0xca  Code  Gb  TEXT.o [3]
TEXT_CreateIndirect     0x080409a9      0x3c  Code  Gb  TEXT_CreateIndirect.o [3]
TEXT_CreateUser         0x0803efef      0xa8  Code  Gb  TEXT.o [3]
TEXT_SetFont            0x08028e51      0x34  Code  Gb  TEXT_SetFont.o [3]
TEXT_SetText            0x0802946d      0x58  Code  Gb  TEXT_SetText.o [3]
TEXT__DefaultProps      0x200008a8      0x10  Data  Gb  TEXT.o [3]
TIM2_IRQHandler         0x0804056f       0x4  Code  Gb  stm32xxx_it.o [1]
TIM5_IRQHandler         0x08040587      0x42  Code  Gb  stm32xxx_it.o [1]
TIM_ClearITPendingBit   0x08027235       0x6  Code  Gb  stm32f4xx_tim.o [1]
TIM_Cmd                 0x080270a7      0x14  Code  Gb  stm32f4xx_tim.o [1]
TIM_DeInit              0x08026f55     0x14c  Code  Gb  stm32f4xx_tim.o [1]
TIM_GetCapture4         0x0802720d       0x4  Code  Gb  stm32f4xx_tim.o [1]
TIM_GetITStatus         0x08027221      0x14  Code  Gb  stm32f4xx_tim.o [1]
TIM_ICInit              0x080270f1     0x11c  Code  Gb  stm32f4xx_tim.o [1]
TIM_ITConfig            0x08027211      0x10  Code  Gb  stm32f4xx_tim.o [1]
TIM_PrescalerConfig     0x080270a1       0x6  Code  Gb  stm32f4xx_tim.o [1]
TIM_RemapConfig         0x0802723b       0x6  Code  Gb  stm32f4xx_tim.o [1]
TP_State                0x20029e1c       0x8  Data  Gb  stm32f429i_discovery_ioe.o [1]
TS_Orientation          0x20029e48       0x4  Data  Gb  bsp.o [1]
Task_Handle             0x20029e58       0x4  Data  Gb  main.o [1]
TimingDelay             0x20029d50       0x4  Data  Lc  test_program.o [1]
TimingDelay_Decrement   0x08022773       0xe  Code  Gb  test_program.o [1]
TouchScreenTimer        0x20029e5c       0x4  Data  Gb  main.o [1]
USBD_ClrCfg             0x0803be03      0x12  Code  Gb  usbd_core.o [1]
USBD_CtlContinueRx      0x0803bb89      0x14  Code  Gb  usbd_ioreq.o [1]
USBD_CtlContinueSendData
                        0x0803bb75      0x14  Code  Gb  usbd_ioreq.o [1]
USBD_CtlReceiveStatus   0x0803bbbd      0x20  Code  Gb  usbd_ioreq.o [1]
USBD_CtlSendData        0x0803bb53      0x22  Code  Gb  usbd_ioreq.o [1]
USBD_CtlSendStatus      0x0803bb9d      0x20  Code  Gb  usbd_ioreq.o [1]
USBD_DCD_INT_cb         0x20000624      0x2c  Data  Gb  usbd_core.o [1]
USBD_DCD_INT_fops       0x20000954       0x4  Data  Gb  usbd_core.o [1]
USBD_DataInStage        0x0803bcb1      0xb2  Code  Lc  usbd_core.o [1]
USBD_DataOutStage       0x0803bc39      0x78  Code  Lc  usbd_core.o [1]
USBD_DevConnected       0x0803be39      0x16  Code  Lc  usbd_core.o [1]
USBD_DevDisconnected    0x0803be4f      0x20  Code  Lc  usbd_core.o [1]
USBD_DeviceQualifierDesc
                        0x200008c4       0xc  Data  Gb  usbd_desc.o [1]
USBD_GetDescriptor      0x0803b84d     0x14a  Code  Lc  usbd_req.o [1]
USBD_IsoINIncomplete    0x0803be15      0x12  Code  Lc  usbd_core.o [1]
USBD_IsoOUTIncomplete   0x0803be27      0x12  Code  Lc  usbd_core.o [1]
USBD_OTG_ISR_Handler    0x0803a96d     0x2fa  Code  Gb  usb_dcd_int.o [1]
USBD_ParseSetupRequest  0x0803b9ad      0x44  Code  Gb  usbd_req.o [1]
USBD_Reset              0x0803bd69      0x2e  Code  Lc  usbd_core.o [1]
USBD_Resume             0x0803bd97      0x1e  Code  Lc  usbd_core.o [1]
USBD_SOF                0x0803bdd5      0x16  Code  Lc  usbd_core.o [1]
USBD_SetCfg             0x0803bdeb      0x18  Code  Gb  usbd_core.o [1]
USBD_SetupStage         0x0803bbdd      0x5c  Code  Lc  usbd_core.o [1]
USBD_StdDevReq          0x0803b55d     0x1a8  Code  Gb  usbd_req.o [1]
USBD_StdEPReq           0x0803b751      0xfc  Code  Gb  usbd_req.o [1]
USBD_StdItfReq          0x0803b705      0x4c  Code  Gb  usbd_req.o [1]
USBD_Suspend            0x0803bdb5      0x20  Code  Lc  usbd_core.o [1]
USBD_cfg_status         0x20029e30       0x4  Data  Gb  usbd_req.o [1]
USBD_default_cfg        0x20029e34       0x4  Data  Gb  usbd_req.o [1]
USBD_ep_status          0x20029eb8       0x4  Data  Gb  usbd_req.o [1]
USBH_Alloc_Channel      0x08026dc7      0x6e  Code  Gb  usbh_hcs.o [1]
USBH_BulkReceiveData    0x0803d5e5      0x2e  Code  Gb  usbh_ioreq.o [1]
USBH_BulkSendData       0x0803d5b7      0x2e  Code  Gb  usbh_ioreq.o [1]
USBH_ClrFeature         0x0803d615      0x30  Code  Gb  usbh_stdreq.o [1]
USBH_Connected          0x08023d61       0xa  Code  Gb  usbh_core.o [1]
USBH_CtlReq             0x0803d565      0x52  Code  Gb  usbh_ioreq.o [1]
USBH_DataInBuffer       0x20029684     0x200  Data  Gb  usbh_msc_scsi.o [1]
USBH_DeInit             0x08023dbb      0x3c  Code  Gb  usbh_core.o [1]
USBH_Disconnected       0x08023d6b       0xa  Code  Gb  usbh_core.o [1]
USBH_Free_Channel       0x08026e35      0x18  Code  Gb  usbh_hcs.o [1]
USBH_HCD_INT_cb         0x200008d0       0xc  Data  Gb  usbh_core.o [1]
USBH_HCD_INT_fops       0x20000958       0x4  Data  Gb  usbh_core.o [1]
USBH_Init               0x08023d79      0x42  Code  Gb  usbh_core.o [1]
USBH_MSC_BOTXferParam   0x20029bd4      0x10  Data  Gb  usbh_msc_bot.o [1]
USBH_MSC_CBWData        0x20029be4      0x20  Data  Gb  usbh_msc_bot.o [1]
USBH_MSC_CSWData        0x20029c04      0x10  Data  Gb  usbh_msc_bot.o [1]
USBH_MSC_ClassRequest   0x0803cff5       0x8  Code  Lc  usbh_msc_core.o [1]
USBH_MSC_DecodeCSW      0x0803d4f5      0x54  Code  Gb  usbh_msc_bot.o [1]
USBH_MSC_Handle         0x0803cffd     0x246  Code  Lc  usbh_msc_core.o [1]
USBH_MSC_HandleBOTXfer  0x0803d271     0x284  Code  Gb  usbh_msc_bot.o [1]
USBH_MSC_Init           0x0803d24d      0x24  Code  Gb  usbh_msc_bot.o [1]
USBH_MSC_InterfaceDeInit
                        0x0803cfbf      0x36  Code  Lc  usbh_msc_core.o [1]
USBH_MSC_InterfaceInit  0x0803cf19      0xa6  Code  Lc  usbh_msc_core.o [1]
USBH_MSC_ModeSense6     0x0803d78b      0xaa  Code  Gb  usbh_msc_scsi.o [1]
USBH_MSC_Param          0x20029674      0x10  Data  Gb  usbh_msc_scsi.o [1]
USBH_MSC_ReadCapacity10
                        0x0803d6db      0xb0  Code  Gb  usbh_msc_scsi.o [1]
USBH_MSC_RequestSense   0x0803d835      0xac  Code  Gb  usbh_msc_scsi.o [1]
USBH_MSC_TestUnitReady  0x0803d645      0x96  Code  Gb  usbh_msc_scsi.o [1]
USBH_MSC_cb             0x20000888      0x10  Data  Gb  usbh_msc_core.o [1]
USBH_OTG_ISR_Handler    0x080328cd      0xf8  Code  Gb  usb_hcd_int.o [1]
USBH_Open_Channel       0x08026d77      0x50  Code  Gb  usbh_hcs.o [1]
USBH_SOF                0x08023d75       0x4  Code  Gb  usbh_core.o [1]
USBH_USR_Configuration_DescAvailable
                        0x08040615       0x2  Code  Gb  usbh_usr.o [1]
USBH_USR_DeInit         0x08040663       0x8  Code  Gb  usbh_usr.o [1]
USBH_USR_DeviceAddressAssigned
                        0x08040613       0x2  Code  Gb  usbh_usr.o [1]
USBH_USR_DeviceAttached
                        0x080405fd       0x2  Code  Gb  usbh_usr.o [1]
USBH_USR_DeviceDisconnected
                        0x08040601       0xc  Code  Gb  usbh_usr.o [1]
USBH_USR_DeviceNotSupported
                        0x0804061f       0x2  Code  Gb  usbh_usr.o [1]
USBH_USR_DeviceSpeedDetected
                        0x0804060f       0x2  Code  Gb  usbh_usr.o [1]
USBH_USR_Device_DescAvailable
                        0x08040611       0x2  Code  Gb  usbh_usr.o [1]
USBH_USR_EnumerationDone
                        0x0804061d       0x2  Code  Gb  usbh_usr.o [1]
USBH_USR_Init           0x080405f5       0x8  Code  Gb  usbh_usr.o [1]
USBH_USR_MSC_Application
                        0x08040627      0x3c  Code  Gb  usbh_usr.o [1]
USBH_USR_Manufacturer_String
                        0x08040617       0x2  Code  Gb  usbh_usr.o [1]
USBH_USR_OverCurrentDetected
                        0x08040625       0x2  Code  Gb  usbh_usr.o [1]
USBH_USR_Product_String
                        0x08040619       0x2  Code  Gb  usbh_usr.o [1]
USBH_USR_ResetDevice    0x0804060d       0x2  Code  Gb  usbh_usr.o [1]
USBH_USR_SerialNum_String
                        0x0804061b       0x2  Code  Gb  usbh_usr.o [1]
USBH_USR_UnrecoveredError
                        0x080405ff       0x2  Code  Gb  usbh_usr.o [1]
USBH_USR_UserInput      0x08040621       0x4  Code  Gb  usbh_usr.o [1]
USBH_USR_cb             0x20000570      0x48  Data  Gb  usbh_usr.o [1]
USBH_fatfs              0x2002943c     0x238  Data  Gb  usbh_usr.o [1]
USB_Host                0x20028924      0x84  Data  Gb  bsp.o [1]
USB_Host_Application_Ready
                        0x20029438       0x4  Data  Gb  usbh_usr.o [1]
USB_OTG_BSP_ConfigVBUS  0x08026c49      0x48  Code  Gb  usb_bsp.o [1]
USB_OTG_BSP_DriveVBUS   0x08026c37      0x12  Code  Gb  usb_bsp.o [1]
USB_OTG_BSP_EnableInterrupt
                        0x08026c11      0x26  Code  Gb  usb_bsp.o [1]
USB_OTG_BSP_Init        0x08026ba9      0x68  Code  Gb  usb_bsp.o [1]
USB_OTG_BSP_TimerIRQ    0x08026ce1       0x2  Code  Gb  usb_bsp.o [1]
USB_OTG_BSP_mDelay      0x08026cb1      0x1e  Code  Gb  usb_bsp.o [1]
USB_OTG_BSP_uDelay      0x08026c91      0x20  Code  Gb  usb_bsp.o [1]
USB_OTG_Core            0x20027e94     0xa90  Data  Gb  bsp.o [1]
USB_OTG_CoreInit        0x08029ef7      0x7a  Code  Gb  usb_core.o [1]
USB_OTG_CoreInitHost    0x0802a051     0x158  Code  Gb  usb_core.o [1]
USB_OTG_CoreReset       0x08029c7d      0x4c  Code  Lc  usb_core.o [1]
USB_OTG_DisableGlobalInt
                        0x08029f7f       0xe  Code  Gb  usb_core.o [1]
USB_OTG_EP0Activate     0x0802a4ed      0x34  Code  Gb  usb_core.o [1]
USB_OTG_EP0StartXfer    0x0802a6fd      0xde  Code  Gb  usb_core.o [1]
USB_OTG_EP0_OutStart    0x0802a861      0x20  Code  Gb  usb_core.o [1]
USB_OTG_EPActivate      0x0802a521      0x66  Code  Gb  usb_core.o [1]
USB_OTG_EPClearStall    0x0802a811      0x28  Code  Gb  usb_core.o [1]
USB_OTG_EPSetStall      0x0802a7e1      0x30  Code  Gb  usb_core.o [1]
USB_OTG_EPStartXfer     0x0802a589     0x170  Code  Gb  usb_core.o [1]
USB_OTG_EnableGlobalInt
                        0x08029f71       0xe  Code  Gb  usb_core.o [1]
USB_OTG_EnableHostInt   0x0802a1a9      0x32  Code  Gb  usb_core.o [1]
USB_OTG_FlushRxFifo     0x08029fcd      0x38  Code  Gb  usb_core.o [1]
USB_OTG_FlushTxFifo     0x08029f8d      0x40  Code  Gb  usb_core.o [1]
USB_OTG_GetDeviceSpeed  0x0802a4c1      0x2a  Code  Gb  usb_core.o [1]
USB_OTG_HC_DoPing       0x0802a49f      0x22  Code  Gb  usb_core.o [1]
USB_OTG_HC_Halt         0x0802a45d      0x42  Code  Gb  usb_core.o [1]
USB_OTG_HC_Init         0x0802a229      0xe6  Code  Gb  usb_core.o [1]
USB_OTG_HC_StartXfer    0x0802a311     0x14c  Code  Gb  usb_core.o [1]
USB_OTG_InitFSLSPClkSel
                        0x0802a1db      0x12  Code  Gb  usb_core.o [1]
USB_OTG_IsDeviceMode    0x0802a02f       0xe  Code  Gb  usb_core.o [1]
USB_OTG_IsHostMode      0x0802a03d       0xa  Code  Gb  usb_core.o [1]
USB_OTG_ReadCoreItr     0x0802a047       0xa  Code  Gb  usb_core.o [1]
USB_OTG_ReadDevAllInEPItr
                        0x0802a855       0xc  Code  Gb  usb_core.o [1]
USB_OTG_ReadDevAllOutEp_itr
                        0x0802a839       0xc  Code  Gb  usb_core.o [1]
USB_OTG_ReadDevOutEP_itr
                        0x0802a845      0x10  Code  Gb  usb_core.o [1]
USB_OTG_ReadHostAllChannels_intr
                        0x0802a1ed       0x6  Code  Gb  usb_core.o [1]
USB_OTG_ReadPacket      0x08029d21      0x48  Code  Gb  usb_core.o [1]
USB_OTG_ResetPort       0x0802a1f3      0x36  Code  Gb  usb_core.o [1]
USB_OTG_SelectCore      0x08029d69     0x18e  Code  Gb  usb_core.o [1]
USB_OTG_SetCurrentMode  0x0802a005      0x2a  Code  Gb  usb_core.o [1]
USB_OTG_USBH_handle_IncompletePeriodicXfer_ISR
                        0x080334c3      0x28  Code  Lc  usb_hcd_int.o [1]
USB_OTG_USBH_handle_hc_n_In_ISR
                        0x08033035     0x378  Code  Lc  usb_hcd_int.o [1]
USB_OTG_USBH_handle_hc_n_Out_ISR
                        0x08032cfd     0x338  Code  Lc  usb_hcd_int.o [1]
USB_OTG_USBH_handle_nptxfempty_ISR
                        0x080329c5     0x11a  Code  Lc  usb_hcd_int.o [1]
USB_OTG_USBH_handle_port_ISR
                        0x08032bfb      0xfe  Code  Lc  usb_hcd_int.o [1]
USB_OTG_USBH_handle_ptxfempty_ISR
                        0x08032adf     0x11c  Code  Lc  usb_hcd_int.o [1]
USB_OTG_USBH_handle_rx_qlvl_ISR
                        0x080333ad     0x116  Code  Lc  usb_hcd_int.o [1]
USB_OTG_WritePacket     0x08029cc9      0x58  Code  Gb  usb_core.o [1]
USB_OTG_dev             0x200289a8     0xa90  Data  Gb  test_program.o [1]
UsageFault_Handler      0x0804054d       0x2  Code  Gb  stm32xxx_it.o [1]
WIDGET_AndState         0x08024d65      0x38  Code  Gb  WIDGET.o [3]
WIDGET_EFFECT_3D_DrawUp
                        0x0803fa87      0x14  Code  Gb  WIDGET_Effect_3D.o [3]
WIDGET_Effect_3D        0x08040d20      0x1c  Data  Gb  WIDGET_Effect_3D.o [3]
WIDGET_Effect_None      0x08040d04      0x1c  Data  Gb  WIDGET_Effect_None.o [3]
WIDGET_HandleActive     0x08024dab     0x198  Code  Gb  WIDGET.o [3]
WIDGET_OrState          0x08024d2b      0x3a  Code  Gb  WIDGET.o [3]
WIDGET__DrawFocusRect   0x08024f43      0x46  Code  Gb  WIDGET.o [3]
WIDGET__DrawTriangle    0x08025003      0x50  Code  Gb  WIDGET.o [3]
WIDGET__DrawVLine       0x08024f89      0x38  Code  Gb  WIDGET.o [3]
WIDGET__EFFECT_DrawDownRect
                        0x08025053      0xa0  Code  Gb  WIDGET.o [3]
WIDGET__EFFECT_DrawUpRect
                        0x080250f3      0x96  Code  Gb  WIDGET.o [3]
WIDGET__FillRectEx      0x08024fc1      0x42  Code  Gb  WIDGET.o [3]
WIDGET__GetClientRect   0x08024cb5      0x3a  Code  Gb  WIDGET.o [3]
WIDGET__GetXSize        0x08024cef      0x1e  Code  Gb  WIDGET.o [3]
WIDGET__GetYSize        0x08024d0d      0x1e  Code  Gb  WIDGET.o [3]
WIDGET__Init            0x08024d9d       0xe  Code  Gb  WIDGET.o [3]
WIDGET__RotateRect90    0x08024c8d      0x28  Code  Gb  WIDGET.o [3]
WINDOW_Callback         0x0803eb75     0x126  Code  Gb  WINDOW.o [3]
WINDOW_CreateIndirect   0x0803ec9b      0x7c  Code  Gb  WINDOW.o [3]
WINDOW__DefaultBkColor  0x2000095c       0x4  Data  Gb  WINDOW.o [3]
WM_Activate             0x08018de3       0xc  Code  Gb  WM.o [3]
WM_BringToBottom        0x0801a9c1      0x8c  Code  Gb  WM_BringToBottom.o [3]
WM_BringToTop           0x080278bd      0x88  Code  Gb  WM_BringToTop.o [3]
WM_CreateTimer          0x0801ab1f      0x6e  Code  Gb  WM_Timer.o [3]
WM_CreateWindowAsChild  0x08017f99     0x19e  Code  Gb  WM.o [3]
WM_Deactivate           0x08018def      0x20  Code  Gb  WM.o [3]
WM_DefaultProc          0x08018e0f      0x48  Code  Gb  WM.o [3]
WM_DeleteTimer          0x0801aaf1      0x2e  Code  Gb  WM_Timer.o [3]
WM_DeleteWindow         0x08018139     0x154  Code  Gb  WM.o [3]
WM_Exec                 0x08018c59      0xfc  Code  Gb  WM.o [3]
WM_ForEachDesc          0x0802abab      0x1e  Code  Gb  WM_ForEachDesc.o [3]
WM_GetActiveWindow      0x080182b1       0xa  Code  Gb  WM.o [3]
WM_GetClientRect        0x0801b161      0x42  Code  Gb  WM_GetClientRect.o [3]
WM_GetClientRectEx      0x0801b131      0x30  Code  Gb  WM_GetClientRect.o [3]
WM_GetClientWindow      0x0802aefd      0x18  Code  Gb  WM_GetClientWindow.o [3]
WM_GetDesktopWindow     0x0801ddcd      0x18  Code  Gb  WM_GetDesktopWindow.o [3]
WM_GetDesktopWindowEx   0x08026979      0x14  Code  Gb  WM_GetDesktopWindowEx.o [3]
WM_GetDialogItem        0x08028b1b      0x50  Code  Gb  WM_GetDialogItem.o [3]
WM_GetFirstChild        0x08019ea5      0x1a  Code  Gb  WM_GetFirstChild.o [3]
WM_GetFlags             0x0802abc9      0x20  Code  Gb  WM_GetFlags.o [3]
WM_GetFocussedWindow    0x08027bfd      0x20  Code  Gb  WM_GetFocussedWindow.o [3]
WM_GetHasTrans          0x08027bd5      0x26  Code  Gb  WM_SetTrans.o [3]
WM_GetId                0x08025445      0x20  Code  Gb  WM_GetId.o [3]
WM_GetInsideRectEx      0x0802771d      0x14  Code  Gb  WM_GetInsideRect.o [3]
WM_GetInsideRectExScrollbar
                        0x08027add      0xa6  Code  Gb  WM_GetInsideRectExScrollbar.o [3]
WM_GetParent            0x0801c5ff      0x1a  Code  Gb  WM_GetParent.o [3]
WM_GetScrollPartner     0x080276f1      0x2c  Code  Gb  WM_GetScrollPartner.o [3]
WM_GetScrollState       0x08028dc1      0x14  Code  Gb  WM_GetScrollState.o [3]
WM_GetScrollbarH        0x08024347      0x56  Code  Gb  WM_GetScrollbar.o [3]
WM_GetScrollbarV        0x0802439d      0x56  Code  Gb  WM_GetScrollbar.o [3]
WM_GetWindowRect        0x080243f5      0x2a  Code  Gb  WM_GetWindowRect.o [3]
WM_GetWindowRectEx      0x08024429      0x2e  Code  Gb  WM_GetWindowRect.o [3]
WM_GetWindowSizeX       0x080251c5      0x36  Code  Gb  WM_GetWindowSize.o [3]
WM_GetWindowSizeY       0x080251fb      0x36  Code  Gb  WM_GetWindowSize.o [3]
WM_HandlePID            0x0803ae61     0x4be  Code  Gb  WM_Touch.o [3]
WM_HasFocus             0x080251a5      0x20  Code  Gb  WM_HasFocus.o [3]
WM_HideWindow           0x0802ad0b      0x3a  Code  Gb  WM_Hide.o [3]
WM_Init                 0x08018e75     0x12e  Code  Gb  WM.o [3]
WM_InvalidateRect       0x08017e87     0x10e  Code  Gb  WM.o [3]
WM_InvalidateWindow     0x08017f95       0x4  Code  Gb  WM.o [3]
WM_InvalidateWindowAndDescs
                        0x0802af15      0x34  Code  Gb  WM_Show.o [3]
WM_InvalidateWindowAndDescsEx
                        0x08017b5d      0x64  Code  Gb  WM.o [3]
WM_IsFocussable         0x0802cc21      0x20  Code  Gb  WM_IsFocussable.o [3]
WM_IsWindow             0x0802ab93      0x18  Code  Gb  WM_IsWindow.o [3]
WM_MULTIBUF__pAPI       0x20029bb8       0x4  Data  Gb  WM.o [3]
WM_MoveWindow           0x0802aa7b      0x1e  Code  Gb  WM_Move.o [3]
WM_NotifyParent         0x0801abc7      0x14  Code  Gb  WM_NotifyParent.o [3]
WM_OnKey                0x0801cc5d      0x40  Code  Gb  WM_OnKey.o [3]
WM_PID__SetPrevState    0x0803b545      0x14  Code  Gb  WM_PID__GetPrevState.o [3]
WM_ReleaseCapture       0x080276b7      0x2e  Code  Gb  WM_SetCapture.o [3]
WM_ResizeWindow         0x0802aa99      0xfa  Code  Gb  WM_ResizeWindow.o [3]
WM_RestartTimer         0x0801ab91      0x36  Code  Gb  WM_Timer.o [3]
WM_Screen2hWin          0x0803b431      0x92  Code  Gb  WM_Screen2Win.o [3]
WM_SendMessage          0x08017e39      0x24  Code  Gb  WM.o [3]
WM_SendMessageNoPara    0x0801abdb      0x1e  Code  Gb  WM_SendMessageNoPara.o [3]
WM_SendToParent         0x0801b0e1      0x2c  Code  Gb  WM_SendToParent.o [3]
WM_SetCallback          0x0802698d      0x32  Code  Gb  WM_SetCallback.o [3]
WM_SetCapture           0x08027675      0x42  Code  Gb  WM_SetCapture.o [3]
WM_SetFocus             0x0802780d      0xa4  Code  Gb  WM_SetFocus.o [3]
WM_SetFocusOnNextChild  0x0802b021      0x20  Code  Gb  WM_SetFocusOnNextChild.o [3]
WM_SetFocusOnPrevChild  0x0803ed21      0x64  Code  Gb  WM_SetFocusOnPrevChild.o [3]
WM_SetHasTrans          0x08027b85      0x4a  Code  Gb  WM_SetTrans.o [3]
WM_SetScrollState       0x08028b6b      0x1a  Code  Gb  WM_SetScrollState.o [3]
WM_SetScrollbarV        0x08028a95      0x42  Code  Gb  WM_SetScrollbar.o [3]
WM_SetSize              0x0803f8b1      0x4e  Code  Gb  WM_SetSize.o [3]
WM_SetUserClipRect      0x0802407d      0x24  Code  Gb  WM_SetUserClipRect.o [3]
WM_ShowWindow           0x0802af49      0x5a  Code  Gb  WM_Show.o [3]
WM_ValidateWindow       0x0802abe9      0x3c  Code  Gb  WM_ValidateWindow.o [3]
WM__ActivateClipRect    0x080178d1      0xe2  Code  Gb  WM.o [3]
WM__AddCriticalHandle   0x0801b465       0xa  Code  Gb  WM_CriticalHandle.o [3]
WM__CaptureReleaseAuto  0x20029ee2       0x1  Data  Gb  WM.o [3]
WM__CreateFlags         0x20029bb0       0x4  Data  Gb  WM.o [3]
WM__DeleteAssocTimer    0x0801aa7d      0x74  Code  Gb  WM_Timer.o [3]
WM__DeleteSecure        0x08018c39      0x1c  Code  Gb  WM.o [3]
WM__DetachWindow        0x08017a95      0x5e  Code  Gb  WM.o [3]
WM__FirstWin            0x20029ba8       0x4  Data  Gb  WM.o [3]
WM__ForEachDesc         0x0802cb49      0x2c  Code  Gb  WM__ForEachDesc.o [3]
WM__GetClientRectEx     0x0801b10d      0x24  Code  Gb  WM_GetClientRect.o [3]
WM__GetClientRectWin    0x08017e6f      0x18  Code  Gb  WM.o [3]
WM__GetFirstSibling     0x0801f155      0x14  Code  Gb  WM__GetFirstSibling.o [3]
WM__GetFocussedChild    0x0802cbf9      0x28  Code  Gb  WM__GetFocussedChild.o [3]
WM__GetLastSibling      0x0803ed85      0x1a  Code  Gb  WM__GetLastSibling.o [3]
WM__GetNextIVR          0x08018591      0x38  Code  Gb  WM.o [3]
WM__GetPrevSibling      0x0801c5d5      0x2a  Code  Gb  WM__GetPrevSibling.o [3]
WM__GetTopLevelLayer    0x0801828d      0x24  Code  Gb  WM.o [3]
WM__InitIVRSearch       0x080185c9     0x17a  Code  Gb  WM.o [3]
WM__InsertWindowIntoList
                        0x080179b3      0xa8  Code  Gb  WM.o [3]
WM__InvalidateDrawAndDescs
                        0x08017b11      0x4c  Code  Gb  WM.o [3]
WM__InvalidateParent    0x08017801      0x26  Code  Gb  WM.o [3]
WM__InvalidateRect      0x08017bc1      0xca  Code  Gb  WM.o [3]
WM__InvalidateRectEx    0x08017c8b       0x4  Code  Gb  WM.o [3]
WM__IsAncestor          0x0803b4c9      0x2c  Code  Gb  WM__IsAncestor.o [3]
WM__IsAncestorOrSelf    0x0803b4f5      0x30  Code  Gb  WM__IsAncestor.o [3]
WM__IsChild             0x0802d73b      0x26  Code  Gb  WM__IsChild.o [3]
WM__IsEnabled           0x0802518d      0x16  Code  Gb  WM__IsEnabled.o [3]
WM__IsWindow            0x08017af5      0x1c  Code  Gb  WM.o [3]
WM__MoveWindow          0x0802a981      0xfa  Code  Gb  WM_Move.o [3]
WM__NumInvalidWindows   0x20029ba0       0x2  Data  Gb  WM.o [3]
WM__NumWindows          0x20029b9e       0x2  Data  Gb  WM.o [3]
WM__Paint               0x08018a23     0x1b4  Code  Gb  WM.o [3]
WM__Paint1              0x08018745      0xcc  Code  Gb  WM.o [3]
WM__PaintCallbackCnt    0x20029b9c       0x1  Data  Gb  WM.o [3]
WM__RemoveCriticalHandle
                        0x0801b46f      0x42  Code  Gb  WM_CriticalHandle.o [3]
WM__RemoveWindowFromList
                        0x08017a5b      0x3a  Code  Gb  WM.o [3]
WM__Screen2Client       0x08027ac9      0x14  Code  Gb  WM__Screen2Client.o [3]
WM__SendMessage         0x0801a0a1      0x40  Code  Gb  WM__SendMessage.o [3]
WM__SendMessageIfEnabled
                        0x0803b525      0x20  Code  Gb  WM__SendMessageIfEnabled.o [3]
WM__SendMessageNoPara   0x0801ca25      0x2c  Code  Gb  WM__SendMessageNoPara.o [3]
WM__SendMsgNoData       0x08017e5d      0x12  Code  Gb  WM.o [3]
WM__TouchedLayer        0x20029ba4       0x4  Data  Gb  WM.o [3]
WM__TransWindowCnt      0x20029bbc       0x4  Data  Gb  WM.o [3]
WM__UpdateChildPositions
                        0x08027731      0xdc  Code  Gb  WM__UpdateChildPositions.o [3]
WM__aBkColor            0x20029b84       0x8  Data  Gb  WM.o [3]
WM__aCHWinLast          0x20029c50      0x10  Data  Gb  WM_Touch.o [3]
WM__aCHWinModal         0x20029c40      0x10  Data  Gb  WM_Touch.o [3]
WM__aCHWinMouseOver     0x20029c60      0x10  Data  Gb  WM_Touch.o [3]
WM__ahCapture           0x20029b8c       0x8  Data  Gb  WM.o [3]
WM__ahDesktopWin        0x20029b7c       0x8  Data  Gb  WM.o [3]
WM__ahWinFocus          0x20029b94       0x8  Data  Gb  WM.o [3]
WM__hATransWindow       0x20029bc0       0x4  Data  Gb  WM.o [3]
WM__pFirstCriticalHandle
                        0x20029bac       0x4  Data  Gb  WM.o [3]
WM_pfHandlePID          0x20029ec0       0x4  Data  Gb  GUI_Core.o [3]
WM_pfPollPID            0x20029bb4       0x4  Data  Gb  WM.o [3]
Xval                    0x20029d4c       0x1  Data  Gb  test_program.o [1]
Yval                    0x20029d4d       0x1  Data  Gb  test_program.o [1]
_API_ColorConv_SetAlpha
                        0x080289f0      0x18  Data  Lc  GUI_SetAlpha.o [3]
_AddFreeMemory          0x08018fd5      0xe2  Code  Lc  GUI_Alloc.o [3]
_AlignImage             0x08025505      0x8c  Code  Lc  ICONVIEW.o [3]
_Alloc                  0x080195b5     0x13c  Code  Lc  GUI_Alloc.o [3]
_AndMask                0x20000978       0x4  Data  Lc  LCD_AA.o [3]
_CalcOrto               0x0803940d     0x100  Code  Lc  GUI_DrawLine.o [3]
_CalcPositions          0x08022d75     0x15e  Code  Lc  SCROLLBAR_Skin.o [3]
_CalcPositions          0x0803d8f5     0x142  Code  Lc  SCROLLBAR_SkinClassic.o [3]
_CalcSizeOfChar         0x08040bfd       0x4  Code  Lc  GUI_UC_EncodeNone.o [3]
_CheckYInterSect        0x080399c5      0x62  Code  Lc  GUI_FillPolygon.o [3]
_ClipContext            0x20029b64      0x18  Data  Lc  WM.o [3]
_Color2Index            0x08027c1d      0x18  Code  Lc  GUI_SetAlpha.o [3]
_Color2IndexBulk        0x0802096d      0x42  Code  Lc  GUICC_M565.o [3]
_Color2IndexBulk        0x08020b65      0x2e  Code  Lc  GUICC_M888.o [3]
_Color2IndexBulk        0x08027c65      0xa0  Code  Lc  GUI_SetAlpha.o [3]
_Color2IndexBulk        0x08040b89      0x10  Code  Lc  GUICC_8888.o [3]
_Color2IndexBulk_1616I  0x080401e1      0x38  Code  Lc  GUICC_1616I.o [3]
_Color2IndexBulk_88666I
                        0x080402a9      0x38  Code  Lc  GUICC_88666I.o [3]
_Color2IndexBulk_M1555I
                        0x08020885      0x4a  Code  Lc  GUICC_M1555I.o [3]
_Color2IndexBulk_M1555I_DMA2D
                        0x0801cf41      0x6c  Code  Lc  GUIDRV_stm32f429i_discovery.o [1]
_Color2IndexBulk_M4444I
                        0x08020a89      0x58  Code  Lc  GUICC_M4444I.o [3]
_Color2IndexBulk_M4444I_DMA2D
                        0x0801d011      0x6c  Code  Lc  GUIDRV_stm32f429i_discovery.o [1]
_Color2IndexBulk_M565_DMA2D
                        0x0801ce71      0x6c  Code  Lc  GUIDRV_stm32f429i_discovery.o [1]
_Color2IndexBulk_M8888I
                        0x08020c15      0x42  Code  Lc  GUICC_M8888I.o [3]
_Color2IndexBulk_M8888I_DMA2D
                        0x0801ccd9      0x6a  Code  Lc  GUIDRV_stm32f429i_discovery.o [1]
_Color2IndexBulk_M888_DMA2D
                        0x0801cda5      0x6a  Code  Lc  GUIDRV_stm32f429i_discovery.o [1]
_Color2Index_0          0x08040091      0x58  Code  Lc  GUICC_0.o [3]
_Color2Index_16         0x080406f9      0x66  Code  Lc  GUICC_16.o [3]
_Color2Index_1616I      0x080401a1      0x1e  Code  Lc  GUICC_1616I.o [3]
_Color2Index_88666I     0x08040269      0x1c  Code  Lc  GUICC_88666I.o [3]
_Color2Index_8888       0x08040b81       0x2  Code  Lc  GUICC_8888.o [3]
_Color2Index_M1555I     0x08020825      0x2a  Code  Lc  GUICC_M1555I.o [3]
_Color2Index_M4444I     0x08020a1d      0x38  Code  Lc  GUICC_M4444I.o [3]
_Color2Index_M565       0x08020945      0x22  Code  Lc  GUICC_M565.o [3]
_Color2Index_M888       0x08020b4d      0x12  Code  Lc  GUICC_M888.o [3]
_Color2Index_M8888I     0x08020bcd      0x20  Code  Lc  GUICC_M8888I.o [3]
_ColorsCheck            0x080404b4       0x8  Data  Lc  RADIO_Image.o [3]
_Config                 0x20029b50       0xc  Data  Lc  GUI_Alloc.o [3]
_CopyBuffer             0x08030d9d      0x62  Code  Lc  GUIDRV_Lin_16.o [3]
_Create                 0x08023423      0x36  Code  Lc  BUTTON_Skin.o [3]
_Create                 0x08022b2d      0x26  Code  Lc  PROGBAR_Skin.o [3]
_Create                 0x08022d33      0x26  Code  Lc  RADIO_Skin.o [3]
_Create                 0x08022f91      0x3c  Code  Lc  SCROLLBAR_Skin.o [3]
_Create                 0x080231cd      0x24  Code  Lc  SLIDER_Skin.o [3]
_Create                 0x0802330b      0x36  Code  Lc  SPINBOX_Skin.o [3]
_Create                 0x0803f36b       0x2  Code  Lc  BUTTON_SkinClassic.o [3]
_Create                 0x0803f627       0x2  Code  Lc  PROGBAR_SkinClassic.o [3]
_Create                 0x0803e833       0x2  Code  Lc  RADIO_SkinClassic.o [3]
_Create                 0x0803dbaf      0x18  Code  Lc  SCROLLBAR_SkinClassic.o [3]
_Create                 0x0803f4cb       0x2  Code  Lc  SLIDER_SkinClassic.o [3]
_Create                 0x0803e621       0x2  Code  Lc  SPINBOX_SkinClassic.o [3]
_CreateBuffer           0x0803a477      0x9c  Code  Lc  GUI_SPRITE.o [3]
_CreateStaticDevice     0x0803f775     0x116  Code  Lc  GUIDEV_StaticDevices.o [3]
_CurrentTaskNo          0x200007ec       0x4  Data  Lc  GUI_Task.o [3]
_DMA_AlphaBlending      0x0801d1c9      0x84  Code  Lc  GUIDRV_stm32f429i_discovery.o [1]
_DMA_MixColors          0x0801d0e1      0x64  Code  Lc  GUIDRV_stm32f429i_discovery.o [1]
_DeleteWindows          0x20029bc8       0x4  Data  Lc  WM.o [3]
_DoClipping             0x0803be71      0xa2  Code  Lc  GUI_DrawBitmap_8888.o [3]
_DrawArrow              0x0803dbdd      0xc8  Code  Lc  SPINBOX_SkinFlex.o [3]
_DrawBackground         0x0803f0a1      0xe8  Code  Lc  PROGBAR_SkinFlex.o [3]
_DrawBackgroundH        0x0803cbf9      0x5e  Code  Lc  SCROLLBAR_SkinFlex.o [3]
_DrawBackgroundV        0x0803cb99      0x60  Code  Lc  SCROLLBAR_SkinFlex.o [3]
_DrawBitLine16BPP       0x08028499      0xca  Code  Lc  GUI_SetAlpha.o [3]
_DrawBitLine1BPP        0x080312f9      0xe6  Code  Lc  GUIDRV_Lin_16.o [3]
_DrawBitLine1BPP        0x08038661      0xd6  Code  Lc  GUI_SetOrientationC0.o [3]
_DrawBitLine1BPP        0x08036705      0xfa  Code  Lc  GUI_SetOrientationC16.o [3]
_DrawBitLine1BPP        0x08036f29      0xfa  Code  Lc  GUI_SetOrientationC32.o [3]
_DrawBitLine1BPP        0x0803774d      0xf4  Code  Lc  GUI_SetOrientationC8.o [3]
_DrawBitLine1BPP        0x08027f85     0x1fa  Code  Lc  GUI_SetAlpha.o [3]
_DrawBitLine1BPP        0x080349e5     0x140  Code  Lc  GUIDEV_16.o [3]
_DrawBitLine1BPP        0x08033ff9     0x110  Code  Lc  GUIDEV_32.o [3]
_DrawBitLine2BPP        0x080313e1     0x144  Code  Lc  GUIDRV_Lin_16.o [3]
_DrawBitLine2BPP        0x08038739     0x126  Code  Lc  GUI_SetOrientationC0.o [3]
_DrawBitLine2BPP        0x08036801     0x138  Code  Lc  GUI_SetOrientationC16.o [3]
_DrawBitLine2BPP        0x08037025     0x138  Code  Lc  GUI_SetOrientationC32.o [3]
_DrawBitLine2BPP        0x08037841     0x12e  Code  Lc  GUI_SetOrientationC8.o [3]
_DrawBitLine2BPP        0x08028181     0x130  Code  Lc  GUI_SetAlpha.o [3]
_DrawBitLine2BPP        0x08034b25      0xee  Code  Lc  GUIDEV_16.o [3]
_DrawBitLine2BPP        0x08034109      0xee  Code  Lc  GUIDEV_32.o [3]
_DrawBitLine32BPP       0x08028565      0xca  Code  Lc  GUI_SetAlpha.o [3]
_DrawBitLine32BPP_DDB   0x08033f75      0x82  Code  Lc  GUIDEV_32.o [3]
_DrawBitLine4BPP        0x08031525     0x144  Code  Lc  GUIDRV_Lin_16.o [3]
_DrawBitLine4BPP        0x08038861     0x126  Code  Lc  GUI_SetOrientationC0.o [3]
_DrawBitLine4BPP        0x08036939     0x138  Code  Lc  GUI_SetOrientationC16.o [3]
_DrawBitLine4BPP        0x0803715d     0x138  Code  Lc  GUI_SetOrientationC32.o [3]
_DrawBitLine4BPP        0x08037971     0x12e  Code  Lc  GUI_SetOrientationC8.o [3]
_DrawBitLine4BPP        0x080282b1     0x130  Code  Lc  GUI_SetAlpha.o [3]
_DrawBitLine4BPP        0x08034c15     0x16e  Code  Lc  GUIDEV_16.o [3]
_DrawBitLine4BPP        0x080341f9     0x16e  Code  Lc  GUIDEV_32.o [3]
_DrawBitLine8BPP        0x08031669     0x13c  Code  Lc  GUIDRV_Lin_16.o [3]
_DrawBitLine8BPP        0x08038989      0xaa  Code  Lc  GUI_SetOrientationC0.o [3]
_DrawBitLine8BPP        0x08036a71      0xa6  Code  Lc  GUI_SetOrientationC16.o [3]
_DrawBitLine8BPP        0x08037295      0xa6  Code  Lc  GUI_SetOrientationC32.o [3]
_DrawBitLine8BPP        0x08037aa1      0x9c  Code  Lc  GUI_SetOrientationC8.o [3]
_DrawBitLine8BPP        0x080283e1      0xb6  Code  Lc  GUI_SetAlpha.o [3]
_DrawBitmap             0x0803bf15     0x2c4  Code  Lc  GUI_DrawBitmap_8888.o [3]
_DrawBitmap             0x0802666d      0x30  Code  Lc  GUI_SetOrientation.o [3]
_DrawBitmap             0x08025b87       0x4  Code  Lc  ICONVIEW.o [3]
_DrawBitmap             0x080317a5     0x18e  Code  Lc  GUIDRV_Lin_16.o [3]
_DrawBitmap             0x0802862f      0xbe  Code  Lc  GUI_SetAlpha.o [3]
_DrawBitmap             0x08034d85     0x2ea  Code  Lc  GUIDEV_16.o [3]
_DrawBitmap             0x08034369     0x2c8  Code  Lc  GUIDEV_32.o [3]
_DrawBitmapHW           0x0803c1d9      0x92  Code  Lc  GUI_DrawBitmap_8888.o [3]
_DrawBitmapHW_8888      0x0803c295      0x10  Code  Lc  GUI_DrawBitmap_8888.o [3]
_DrawBitmap_8888        0x0803c26b      0x1c  Code  Lc  GUI_DrawBitmap_8888.o [3]
_DrawBitmap_C0          0x08038a39     0x178  Code  Lc  GUI_SetOrientationC0.o [3]
_DrawBitmap_CX          0x08036b19     0x24c  Code  Lc  GUI_SetOrientationC16.o [3]
_DrawBitmap_CX          0x0803733d     0x24c  Code  Lc  GUI_SetOrientationC32.o [3]
_DrawBitmap_CX          0x08037b3d     0x24a  Code  Lc  GUI_SetOrientationC8.o [3]
_DrawButton             0x0803dca5      0xb4  Code  Lc  SPINBOX_SkinFlex.o [3]
_DrawDown               0x0801a1af       0x2  Code  Lc  WIDGET_Effect_None.o [3]
_DrawDown               0x0803fa73      0x14  Code  Lc  WIDGET_Effect_3D.o [3]
_DrawDownRect           0x0801a1b3       0x2  Code  Lc  WIDGET_Effect_None.o [3]
_DrawDownRect           0x0803f9dd      0x96  Code  Lc  WIDGET_Effect_3D.o [3]
_DrawFlat               0x0801a1b7       0x2  Code  Lc  WIDGET_Effect_None.o [3]
_DrawFrame              0x0803caa1      0xf8  Code  Lc  SCROLLBAR_SkinFlex.o [3]
_DrawFrame              0x0803dd59      0xd0  Code  Lc  SPINBOX_SkinFlex.o [3]
_DrawGradient           0x0803c819     0x1ac  Code  Lc  GUI_DrawGradient.o [3]
_DrawGraspH             0x0803cc57      0x5e  Code  Lc  SCROLLBAR_SkinFlex.o [3]
_DrawGraspV             0x0803ccb5      0x5e  Code  Lc  SCROLLBAR_SkinFlex.o [3]
_DrawHLine              0x080266b9       0xc  Code  Lc  GUI_SetOrientation.o [3]
_DrawHLine              0x0803129d      0x2c  Code  Lc  GUIDRV_Lin_16.o [3]
_DrawHLine              0x080286ed      0xd0  Code  Lc  GUI_SetAlpha.o [3]
_DrawHLine              0x08035135       0xe  Code  Lc  GUIDEV_16.o [3]
_DrawHLine              0x08034703       0xe  Code  Lc  GUIDEV_32.o [3]
_DrawHLine_C0           0x08038c1b      0x70  Code  Lc  GUI_SetOrientationC0.o [3]
_DrawHLine_CX           0x08036e03      0x10  Code  Lc  GUI_SetOrientationC16.o [3]
_DrawHLine_CX           0x08037625      0x10  Code  Lc  GUI_SetOrientationC32.o [3]
_DrawHLine_CX           0x08037e25      0x10  Code  Lc  GUI_SetOrientationC8.o [3]
_DrawNext               0x08018bdd      0x5c  Code  Lc  WM.o [3]
_DrawShaftH             0x0803c3ed      0x82  Code  Lc  SLIDER_SkinFlex.o [3]
_DrawShaftV             0x0803c46f      0x7e  Code  Lc  SLIDER_SkinFlex.o [3]
_DrawSpinEffect         0x0803e3d1      0xb8  Code  Lc  SPINBOX_SkinClassic.o [3]
_DrawText               0x08025b95      0x16  Code  Lc  ICONVIEW.o [3]
_DrawThumbH             0x0803c4ed     0x10a  Code  Lc  SLIDER_SkinFlex.o [3]
_DrawThumbV             0x0803c5f7     0x106  Code  Lc  SLIDER_SkinFlex.o [3]
_DrawTriangle           0x0803e489      0xd6  Code  Lc  SPINBOX_SkinClassic.o [3]
_DrawTwinArc4           0x08039d65     0x1f6  Code  Lc  GUI__DrawTwinArc.o [3]
_DrawUp                 0x0801a1b1       0x2  Code  Lc  WIDGET_Effect_None.o [3]
_DrawUpRect             0x0801a1b5       0x2  Code  Lc  WIDGET_Effect_None.o [3]
_DrawUpRect             0x0803f96d      0x70  Code  Lc  WIDGET_Effect_3D.o [3]
_DrawVLine              0x080266c5       0xc  Code  Lc  GUI_SetOrientation.o [3]
_DrawVLine              0x080312c9      0x30  Code  Lc  GUIDRV_Lin_16.o [3]
_DrawVLine              0x080287bd      0x66  Code  Lc  GUI_SetAlpha.o [3]
_DrawVLine              0x08035143      0xce  Code  Lc  GUIDEV_16.o [3]
_DrawVLine              0x08034711      0xce  Code  Lc  GUIDEV_32.o [3]
_DrawVLine_C0           0x08038c8b      0x70  Code  Lc  GUI_SetOrientationC0.o [3]
_DrawVLine_CX           0x08036e13      0x12  Code  Lc  GUI_SetOrientationC16.o [3]
_DrawVLine_CX           0x08037635      0x12  Code  Lc  GUI_SetOrientationC32.o [3]
_DrawVLine_CX           0x08037e35      0x12  Code  Lc  GUI_SetOrientationC8.o [3]
_Encode                 0x08040c01       0x6  Code  Lc  GUI_UC_EncodeNone.o [3]
_EncodingSb_Mbtowc      0x0802d78f      0x30  Code  Gb  xencoding_sb.o [4]
_EncodingSb_Wctomb      0x0802d775      0x1a  Code  Gb  xencoding_sb.o [4]
_EnlargeBlocks          0x08019411      0xc2  Code  Lc  GUI_Alloc.o [3]
_FillByte               0x20000980       0x1  Data  Lc  GUIDEV_StaticDevices.o [3]
_FillRect               0x080266d1      0x14  Code  Lc  GUI_SetOrientation.o [3]
_FillRect               0x0803126f      0x2e  Code  Lc  GUIDRV_Lin_16.o [3]
_FillRect               0x08028823      0x28  Code  Lc  GUI_SetAlpha.o [3]
_FillRect               0x0803506f      0xc6  Code  Lc  GUIDEV_16.o [3]
_FillRect               0x08034631      0xd2  Code  Lc  GUIDEV_32.o [3]
_FillRectOpt16          0x08030fb9     0x262  Code  Lc  GUIDRV_Lin_16.o [3]
_FillRect_C0            0x08038cfb      0x60  Code  Lc  GUI_SetOrientationC0.o [3]
_FillRect_CX            0x08036e25     0x100  Code  Lc  GUI_SetOrientationC16.o [3]
_FillRect_CX            0x08037649     0x100  Code  Lc  GUI_SetOrientationC32.o [3]
_FillRect_CX            0x08037e47      0xfe  Code  Lc  GUI_SetOrientationC8.o [3]
_FillTrippleArc         0x08039f5d     0x33e  Code  Lc  GUI__DrawTwinArc.o [3]
_FindNext_IVR           0x080182c5     0x2cc  Code  Lc  WM.o [3]
_Findx0                 0x08017d3d      0x84  Code  Lc  WM.o [3]
_Findx1                 0x08017dc1      0x78  Code  Lc  WM.o [3]
_Findy1                 0x08017c8f      0xae  Code  Lc  WM.o [3]
_FlushBuffer            0x0803a40b      0x6c  Code  Lc  GUI_SPRITE.o [3]
_GUI_SetAlpha_API       0x08028a08      0x34  Data  Lc  GUI_SetAlpha.o [3]
_GUI_USAGE_BM_Delete    0x0801bad7       0x4  Code  Lc  GUIDEV_UsageBM.o [3]
_GenldFull              0x0802c15b     0x24c  Code  Lc  xprintffull.o [4]
_GetBkPixel             0x0803a391      0x7a  Code  Lc  GUI_SPRITE.o [3]
_GetButtonSize          0x0803e835      0x1a  Code  Lc  RADIO_SkinClassic.o [3]
_GetCharCode            0x08040bf5       0x4  Code  Lc  GUI_UC_EncodeNone.o [3]
_GetCharSize            0x08040bf9       0x4  Code  Lc  GUI_UC_EncodeNone.o [3]
_GetCharWrap            0x0802ada7      0x2c  Code  Lc  GUI__Wrap.o [3]
_GetDevData             0x0802676f       0x8  Code  Lc  GUI_SetOrientation.o [3]
_GetDevData             0x08031971       0xc  Code  Lc  GUIDRV_Lin_16.o [3]
_GetDevData             0x0802884b       0x4  Code  Lc  GUI_SetAlpha.o [3]
_GetDevData             0x08035365       0xe  Code  Lc  GUIDEV_16.o [3]
_GetDevData             0x08034935       0xe  Code  Lc  GUIDEV_32.o [3]
_GetDevFunc             0x080266ed      0x14  Code  Lc  GUI_SetOrientation.o [3]
_GetDevFunc             0x08031a0d      0x98  Code  Lc  GUIDRV_Lin_16.o [3]
_GetDevFunc             0x08028857       0xc  Code  Lc  GUI_SetAlpha.o [3]
_GetDevFunc             0x08035373       0xc  Code  Lc  GUIDEV_16.o [3]
_GetDevFunc             0x08034943       0xc  Code  Lc  GUIDEV_32.o [3]
_GetDevProp             0x08026701      0x6e  Code  Lc  GUI_SetOrientation.o [3]
_GetDevProp             0x08031935      0x3c  Code  Lc  GUIDRV_Lin_16.o [3]
_GetDevProp             0x08028863       0x8  Code  Lc  GUI_SetAlpha.o [3]
_GetDevProp             0x08035395       0x8  Code  Lc  GUIDEV_16.o [3]
_GetDevProp             0x0803495d       0xc  Code  Lc  GUIDEV_32.o [3]
_GetDialogItem          0x08028ad7      0x44  Code  Lc  WM_GetDialogItem.o [3]
_GetDialogItem          0x080242f5      0x52  Code  Lc  WM_GetScrollbar.o [3]
_GetImageSizes          0x08025b8b       0xa  Code  Lc  ICONVIEW.o [3]
_GetIndexFromPos        0x08025a5b      0x98  Code  Lc  ICONVIEW.o [3]
_GetIndexMask           0x08027c4d      0x18  Code  Lc  GUI_SetAlpha.o [3]
_GetIndexMask_0         0x0804010b      0x56  Code  Lc  GUICC_0.o [3]
_GetIndexMask_16        0x08040795       0x4  Code  Lc  GUICC_16.o [3]
_GetIndexMask_1616I     0x080401db       0x4  Code  Lc  GUICC_1616I.o [3]
_GetIndexMask_8666      0x08040491       0x4  Code  Lc  GUICC_8666.o [3]
_GetIndexMask_88666I    0x080402a1       0x6  Code  Lc  GUICC_88666I.o [3]
_GetIndexMask_8888      0x08040b83       0x6  Code  Lc  GUICC_8888.o [3]
_GetIndexMask_M1555I    0x0802087f       0x6  Code  Lc  GUICC_M1555I.o [3]
_GetIndexMask_M4444I    0x08020a81       0x6  Code  Lc  GUICC_M4444I.o [3]
_GetIndexMask_M565      0x08020967       0x6  Code  Lc  GUICC_M565.o [3]
_GetIndexMask_M888      0x08020b5f       0x6  Code  Lc  GUICC_M888.o [3]
_GetIndexMask_M8888I    0x08020c0d       0x6  Code  Lc  GUICC_M8888I.o [3]
_GetLine                0x08027e35      0xa4  Code  Lc  GUI_SetAlpha.o [3]
_GetPixelIndex          0x0802669d       0x8  Code  Lc  GUI_SetOrientation.o [3]
_GetPixelIndex          0x0803122d      0x10  Code  Lc  GUIDRV_Lin_16.o [3]
_GetPixelIndex          0x08027ed9       0x8  Code  Lc  GUI_SetAlpha.o [3]
_GetPixelIndex          0x080352f3      0x3e  Code  Lc  GUIDEV_16.o [3]
_GetPixelIndex          0x080348c3      0x3e  Code  Lc  GUIDEV_32.o [3]
_GetPixelIndex_C0       0x08038bb1      0x22  Code  Lc  GUI_SetOrientationC0.o [3]
_GetPixelIndex_CX       0x08036d65      0x2c  Code  Lc  GUI_SetOrientationC16.o [3]
_GetPixelIndex_CX       0x08037589      0x2c  Code  Lc  GUI_SetOrientationC32.o [3]
_GetPixelIndex_CX       0x08037d87      0x2c  Code  Lc  GUI_SetOrientationC8.o [3]
_GetPos                 0x08030c59      0x2a  Code  Lc  GUIDRV_Lin_16.o [3]
_GetRect                0x08026777      0x3e  Code  Lc  GUI_SetOrientation.o [3]
_GetRect                0x08030bf5      0x16  Code  Lc  GUIDRV_Lin_16.o [3]
_GetRect                0x0802886b       0x8  Code  Lc  GUI_SetAlpha.o [3]
_GetRect                0x08035331      0x34  Code  Lc  GUIDEV_16.o [3]
_GetRect                0x08034901      0x34  Code  Lc  GUIDEV_32.o [3]
_GetRelRectFromIndex    0x08025465      0xa0  Code  Lc  ICONVIEW.o [3]
_GetWordWrap            0x0802ad45      0x62  Code  Lc  GUI__Wrap.o [3]
_HL_APIList             0x0801b0d8       0x8  Data  Lc  GUI_Core.o [3]
_Index2Color            0x08027c35      0x18  Code  Lc  GUI_SetAlpha.o [3]
_Index2ColorBulk        0x080209af      0x52  Code  Lc  GUICC_M565.o [3]
_Index2ColorBulk        0x08020b93      0x2c  Code  Lc  GUICC_M888.o [3]
_Index2ColorBulk        0x08027d05      0xa0  Code  Lc  GUI_SetAlpha.o [3]
_Index2ColorBulk        0x08040b99      0x10  Code  Lc  GUICC_8888.o [3]
_Index2ColorBulk_1616I  0x08040219      0x42  Code  Lc  GUICC_1616I.o [3]
_Index2ColorBulk_88666I
                        0x080402e1      0x44  Code  Lc  GUICC_88666I.o [3]
_Index2ColorBulk_M1555I
                        0x080208cf      0x62  Code  Lc  GUICC_M1555I.o [3]
_Index2ColorBulk_M1555I_DMA2D
                        0x0801cfad      0x64  Code  Lc  GUIDRV_stm32f429i_discovery.o [1]
_Index2ColorBulk_M4444I
                        0x08020ae1      0x5c  Code  Lc  GUICC_M4444I.o [3]
_Index2ColorBulk_M4444I_DMA2D
                        0x0801d07d      0x64  Code  Lc  GUIDRV_stm32f429i_discovery.o [1]
_Index2ColorBulk_M565_DMA2D
                        0x0801cedd      0x64  Code  Lc  GUIDRV_stm32f429i_discovery.o [1]
_Index2ColorBulk_M8888I
                        0x08020c57      0x40  Code  Lc  GUICC_M8888I.o [3]
_Index2ColorBulk_M8888I_DMA2D
                        0x0801cd45      0x60  Code  Lc  GUIDRV_stm32f429i_discovery.o [1]
_Index2ColorBulk_M888_DMA2D
                        0x0801ce11      0x60  Code  Lc  GUIDRV_stm32f429i_discovery.o [1]
_Index2Color_0          0x080400e9      0x22  Code  Lc  GUICC_0.o [3]
_Index2Color_16         0x0804075f      0x36  Code  Lc  GUICC_16.o [3]
_Index2Color_1616I      0x080401bf      0x1c  Code  Lc  GUICC_1616I.o [3]
_Index2Color_88666I     0x08040285      0x1c  Code  Lc  GUICC_88666I.o [3]
_Index2Color_M1555I     0x0802084f      0x30  Code  Lc  GUICC_M1555I.o [3]
_Index2Color_M4444I     0x08020a55      0x2c  Code  Lc  GUICC_M4444I.o [3]
_Index2Color_M8888I     0x08020bed      0x20  Code  Lc  GUICC_M8888I.o [3]
_Init                   0x08030d01      0x34  Code  Lc  GUIDRV_Lin_16.o [3]
_InitAlpha              0x080288a5      0x94  Code  Lc  GUI_SetAlpha.o [3]
_InitOnce               0x080194d5      0xde  Code  Lc  GUI_Alloc.o [3]
_Invalidate1Abs         0x08017827      0xaa  Code  Lc  WM.o [3]
_IsInited               0x20029b9d       0x1  Data  Lc  WM.o [3]
_IsInitialized          0x20000260       0x4  Data  Lc  GUI_Core.o [3]
_IsInitialized          0x20029d64       0x4  Data  Lc  GUI__Alpha.o [3]
_IsInitialized          0x20029e10       0x4  Data  Lc  GUI_Timer.o [3]
_IsInitialized          0x20029cd8       0x4  Data  Lc  GUI_Curs1.o [3]
_IsdstStr               0x200002f0       0x4  Data  Gb  setlocale.o [4]
_Key                    0x20000368       0x4  Data  Lc  GUI_OnKey.o [3]
_LCD_CopyBuffer         0x0801d5b1      0xba  Code  Lc  GUIDRV_stm32f429i_discovery.o [1]
_LCD_CopyRect           0x0801d66b      0xdc  Code  Lc  GUIDRV_stm32f429i_discovery.o [1]
_LCD_DrawBitmap16bpp    0x0801d855      0xd8  Code  Lc  GUIDRV_stm32f429i_discovery.o [1]
_LCD_DrawBitmap8bpp     0x0801d92d      0xd0  Code  Lc  GUIDRV_stm32f429i_discovery.o [1]
_LCD_FillRect           0x0801d747     0x104  Code  Lc  GUIDRV_stm32f429i_discovery.o [1]
_LCD_GetpPalConvTable   0x0801d145      0x82  Code  Lc  GUIDRV_stm32f429i_discovery.o [1]
_LCD_InitController     0x0801d3e7     0x1ca  Code  Lc  GUIDRV_stm32f429i_discovery.o [1]
_LCD_MixColorsBulk      0x0801d24d     0x114  Code  Lc  GUIDRV_stm32f429i_discovery.o [1]
_LTDC_SetLUTEntry       0x0801d3b5      0x32  Code  Lc  GUIDRV_stm32f429i_discovery.o [1]
_LTDC_SetLayerPos       0x0801d361      0x54  Code  Lc  GUIDRV_stm32f429i_discovery.o [1]
_LdtobFull              0x0802bd55     0x400  Code  Lc  xprintffull.o [4]
_Link                   0x0801c619      0xb2  Code  Lc  GUI_Timer.o [3]
_LitobFull              0x0802bc4d     0x106  Code  Lc  xprintffull.o [4]
_LocaleEncoding         0x0802d761       0xe  Code  Gb  setlocale.o [4]
_LocaleReturnString     0x20000310      0x50  Data  Lc  setlocale.o [4]
_Locale_Profile         0x200002f4      0x1c  Data  Gb  setlocale.o [4]
_Locale_aeabi_lconv     0x200002b4      0x38  Data  Gb  localeconv.o [4]
_Locale_lconv           0x20000264      0x50  Data  Gb  localeconv.o [4]
_Log2Phys_S             0x08026621       0x8  Code  Lc  GUI_SetOrientation.o [3]
_Log2Phys_SX            0x08026629      0x16  Code  Lc  GUI_SetOrientation.o [3]
_Log2Phys_SXY           0x08026655      0x18  Code  Lc  GUI_SetOrientation.o [3]
_Log2Phys_SY            0x0802663f      0x16  Code  Lc  GUI_SetOrientation.o [3]
_Log2Phys_X             0x080265dd      0x16  Code  Lc  GUI_SetOrientation.o [3]
_Log2Phys_XY            0x08026609      0x18  Code  Lc  GUI_SetOrientation.o [3]
_Log2Phys_Y             0x080265f3      0x16  Code  Lc  GUI_SetOrientation.o [3]
_Log2VisBuffered        0x0802746d       0x2  Code  Lc  GUI_CharLine.o [3]
_ManageAutoScroll       0x08025797     0x118  Code  Lc  ICONVIEW.o [3]
_MaxTask                0x200007f4       0x4  Data  Lc  GUI_Task.o [3]
_Mbtowc                 0x0802cc41      0x20  Code  Gb  xmbtowc.o [4]
_MoveDescendents        0x0802a915      0x6c  Code  Lc  WM_Move.o [3]
_NextDrawWin            0x20029bc4       0x4  Data  Lc  WM.o [3]
_NumColors              0x20000898       0x4  Data  Lc  LCD_Color.o [3]
_Off                    0x08030d3f       0xa  Code  Lc  GUIDRV_Lin_16.o [3]
_On                     0x08030d35       0xa  Code  Lc  GUIDRV_Lin_16.o [3]
_OnExit                 0x08018e57      0x1e  Code  Lc  WM.o [3]
_OnExit                 0x0801aeb9      0x24  Code  Lc  GUI_Core.o [3]
_OnExit                 0x080193df      0x32  Code  Lc  GUI_Alloc.o [3]
_OnExit                 0x08020ca5      0x26  Code  Lc  GUI__Alpha.o [3]
_OnExit                 0x0801c485      0x10  Code  Lc  LCD_Color.o [3]
_OnExit                 0x08019f19      0x10  Code  Lc  GUI_Task.o [3]
_OnExit                 0x08028873      0x32  Code  Lc  GUI_SetAlpha.o [3]
_OnExit                 0x0801c72b       0xc  Code  Lc  GUI_Timer.o [3]
_OnKey                  0x08025945     0x116  Code  Lc  ICONVIEW.o [3]
_OnKey                  0x0802471b     0x118  Code  Lc  SCROLLBAR.o [3]
_OnPaint                0x08025591     0x206  Code  Lc  ICONVIEW.o [3]
_OnPidStateChange       0x08025af3      0x94  Code  Lc  ICONVIEW.o [3]
_OnTimer                0x08024833      0xea  Code  Lc  SCROLLBAR.o [3]
_OnTouch                0x08024459     0x2c2  Code  Lc  SCROLLBAR.o [3]
_OnTouchDefault         0x08028e85      0x9e  Code  Lc  BUTTON.o [3]
_Paint                  0x080233a9      0x7a  Code  Lc  BUTTON_Skin.o [3]
_Paint                  0x080229e9     0x144  Code  Lc  PROGBAR_Skin.o [3]
_Paint                  0x08022b71     0x1c2  Code  Lc  RADIO_Skin.o [3]
_Paint                  0x08022ed3      0xbe  Code  Lc  SCROLLBAR_Skin.o [3]
_Paint                  0x08022ff1     0x1dc  Code  Lc  SLIDER_Skin.o [3]
_Paint                  0x0802320d      0xfe  Code  Lc  SPINBOX_Skin.o [3]
_Paint                  0x0803f219     0x152  Code  Lc  BUTTON_SkinClassic.o [3]
_Paint                  0x0803f4d9     0x14e  Code  Lc  PROGBAR_SkinClassic.o [3]
_Paint                  0x0803e631     0x202  Code  Lc  RADIO_SkinClassic.o [3]
_Paint                  0x0803da37     0x178  Code  Lc  SCROLLBAR_SkinClassic.o [3]
_Paint                  0x0803f379     0x152  Code  Lc  SLIDER_SkinClassic.o [3]
_Paint                  0x0803e55f      0xc2  Code  Lc  SPINBOX_SkinClassic.o [3]
_Paint1Trans            0x08018811      0xa2  Code  Lc  WM.o [3]
_PaintTransChildren     0x080188b3      0xa4  Code  Lc  WM.o [3]
_PalCheck               0x080404d4       0xc  Data  Lc  RADIO_Image.o [3]
_PalRadioDisabled       0x080404bc       0xc  Data  Lc  RADIO_Image.o [3]
_PalRadioEnabled        0x080404c8       0xc  Data  Lc  RADIO_Image.o [3]
_PrintfFull             0x0802b29d     0x618  Code  Gb  xprintffull.o [4]
_Props                  0x20000650      0x28  Data  Lc  PROGBAR_SkinFlex.o [3]
_PropsChecked           0x20000678      0x14  Data  Lc  RADIO_SkinFlex.o [3]
_PropsDisabled          0x200007c8      0x20  Data  Lc  BUTTON_SkinFlex.o [3]
_PropsDisabled          0x20000718      0x28  Data  Lc  SPINBOX_SkinFlex.o [3]
_PropsEnabled           0x200007a8      0x20  Data  Lc  BUTTON_SkinFlex.o [3]
_PropsEnabled           0x200006c8      0x28  Data  Lc  SPINBOX_SkinFlex.o [3]
_PropsFocussed          0x20000788      0x20  Data  Lc  BUTTON_SkinFlex.o [3]
_PropsFocussed          0x200006f0      0x28  Data  Lc  SPINBOX_SkinFlex.o [3]
_PropsPressed           0x20000768      0x20  Data  Lc  BUTTON_SkinFlex.o [3]
_PropsPressed           0x20000454      0x2c  Data  Lc  SCROLLBAR_SkinFlex.o [3]
_PropsPressed           0x20000480      0x2c  Data  Lc  SLIDER_SkinFlex.o [3]
_PropsPressed           0x200006a0      0x28  Data  Lc  SPINBOX_SkinFlex.o [3]
_PropsUnchecked         0x2000068c      0x14  Data  Lc  RADIO_SkinFlex.o [3]
_PropsUnpressed         0x20000428      0x2c  Data  Lc  SCROLLBAR_SkinFlex.o [3]
_PropsUnpressed         0x200004ac      0x2c  Data  Lc  SLIDER_SkinFlex.o [3]
_PutcharsFull           0x0802c3a7      0x2e  Code  Lc  xprintffull.o [4]
_PutstrFull             0x0802b93b     0x30c  Code  Lc  xprintffull.o [4]
_ReadRect               0x0803197d      0x3e  Code  Lc  GUIDRV_Lin_16.o [3]
_ReadRectFromMemdev     0x08027da5      0x90  Code  Lc  GUI_SetAlpha.o [3]
_RemoveHoles            0x080190b9      0xe0  Code  Lc  GUI_Alloc.o [3]
_SProut                 0x0801b533       0xa  Code  Gb  xsprout.o [4]
_Screen2hWin            0x0803b3a9      0x88  Code  Lc  WM_Screen2Win.o [3]
_SetAlpha               0x08030c83      0x3a  Code  Lc  GUIDRV_Lin_16.o [3]
_SetAlphaMode           0x08030d49      0x14  Code  Lc  GUIDRV_Lin_16.o [3]
_SetBkColor             0x0801a1b9      0x30  Code  Lc  LCD.o [3]
_SetChroma              0x08030d71      0x22  Code  Lc  GUIDRV_Lin_16.o [3]
_SetChromaMode          0x08030d5d      0x14  Code  Lc  GUIDRV_Lin_16.o [3]
_SetColor               0x0801a1e9      0x30  Code  Lc  LCD.o [3]
_SetColorAPI            0x08040ebc       0xc  Data  Lc  LCD.o [3]
_SetDevFunc             0x080319bb      0x52  Code  Lc  GUIDRV_Lin_16.o [3]
_SetDrawMode            0x0801a219      0x26  Code  Lc  LCD.o [3]
_SetFocusOnNextChild    0x0802afa5      0x78  Code  Lc  WM_SetFocusOnNextChild.o [3]
_SetOrg                 0x080266e5       0x8  Code  Lc  GUI_SetOrientation.o [3]
_SetOrg                 0x08030e39      0xb6  Code  Lc  GUIDRV_Lin_16.o [3]
_SetOrg                 0x0802884f       0x8  Code  Lc  GUI_SetAlpha.o [3]
_SetOrg                 0x0803538d       0x8  Code  Lc  GUIDEV_16.o [3]
_SetOrg                 0x08034969       0x8  Code  Lc  GUIDEV_32.o [3]
_SetPixelIndex          0x080266a5       0xc  Code  Lc  GUI_SetOrientation.o [3]
_SetPixelIndex          0x0803121b      0x12  Code  Lc  GUIDRV_Lin_16.o [3]
_SetPixelIndex          0x08027ee1      0x74  Code  Lc  GUI_SetAlpha.o [3]
_SetPixelIndex          0x08035211      0x6c  Code  Lc  GUIDEV_16.o [3]
_SetPixelIndex          0x080347df      0x6c  Code  Lc  GUIDEV_32.o [3]
_SetPixelIndex_C0       0x08038bd3      0x26  Code  Lc  GUI_SetOrientationC0.o [3]
_SetPixelIndex_CX       0x08036d91      0x3e  Code  Lc  GUI_SetOrientationC16.o [3]
_SetPixelIndex_CX       0x080375b5      0x3e  Code  Lc  GUI_SetOrientationC32.o [3]
_SetPixelIndex_CX       0x08037db3      0x3e  Code  Lc  GUI_SetOrientationC8.o [3]
_SetPos                 0x08030c0b      0x44  Code  Lc  GUIDRV_Lin_16.o [3]
_SetPosition            0x0803a513     0x380  Code  Lc  GUI_SPRITE.o [3]
_SetSize                0x08030f63      0x56  Code  Lc  GUIDRV_Lin_16.o [3]
_SetVRAMAddr            0x08030eef      0x3c  Code  Lc  GUIDRV_Lin_16.o [3]
_SetVSize               0x08030f2b      0x38  Code  Lc  GUIDRV_Lin_16.o [3]
_SetVis                 0x08030cc1      0x3a  Code  Lc  GUIDRV_Lin_16.o [3]
_ShowBuffer             0x08030dff      0x38  Code  Lc  GUIDRV_Lin_16.o [3]
_SkinPrivate            0x2000093c       0x8  Data  Lc  RADIO_SkinClassic.o [3]
_State                  0x20029e38       0xc  Data  Lc  GUI_TOUCH.o [3]
_StoreState             0x080272a5      0x72  Code  Lc  GUI_PID.o [3]
_SuppressMixing         0x20029d88       0x4  Data  Lc  GUI_SetAlpha.o [3]
_TaskIDLock             0x200007f0       0x4  Data  Lc  GUI_Task.o [3]
_TestRAM                0x08019199     0x246  Code  Lc  GUI_Alloc.o [3]
_TzoneStr               0x200002ec       0x4  Data  Gb  setlocale.o [4]
_UpdateScrollPos        0x080258af      0x96  Code  Lc  ICONVIEW.o [3]
_UseSingleFrame         0x20029d0c       0x4  Data  Lc  GUI_MULTIBUF.o [3]
_VXSizeMax              0x20029d60       0x4  Data  Lc  GUI__Alpha.o [3]
_Wctomb                 0x0802cd8d      0x1a  Code  Gb  xwctomb.o [4]
_WriteToActiveOpaque_8  0x0801bc09     0x35e  Code  Lc  GUIDEV_WriteToActiveOpaque.o [3]
_WriteToActiveOpaque_HT
                        0x0801bf69     0x2e4  Code  Lc  GUIDEV_WriteToActiveOpaque.o [3]
_XorPixel               0x080266b1       0x8  Code  Lc  GUI_SetOrientation.o [3]
_XorPixel               0x0803123d      0x32  Code  Lc  GUIDRV_Lin_16.o [3]
_XorPixel               0x08027f55      0x2e  Code  Lc  GUI_SetAlpha.o [3]
_XorPixel               0x0803527d      0x76  Code  Lc  GUIDEV_16.o [3]
_XorPixel               0x0803484b      0x78  Code  Lc  GUIDEV_32.o [3]
_XorPixel_C0            0x08038bf9      0x22  Code  Lc  GUI_SetOrientationC0.o [3]
_XorPixel_CX            0x08036dcf      0x34  Code  Lc  GUI_SetOrientationC16.o [3]
_XorPixel_CX            0x080375f3      0x32  Code  Lc  GUI_SetOrientationC32.o [3]
_XorPixel_CX            0x08037df1      0x34  Code  Lc  GUI_SetOrientationC8.o [3]
__aeabi_cdcmple         0x0802cf59            Code  Gb  DblCmpLe.o [5]
__aeabi_cdrcmple        0x0802cf89            Code  Gb  DblCmpGe.o [5]
__aeabi_d2iz            0x0802d0cd            Code  Gb  DblToI32.o [5]
__aeabi_d2uiz           0x0802d0f9            Code  Gb  DblToI32.o [5]
__aeabi_ddiv            0x0802d479            Code  Gb  DblDiv.o [5]
__aeabi_dmul            0x0802d2d5            Code  Gb  DblMul.o [5]
__aeabi_dsub            0x0802d155            Code  Gb  DblSub.o [5]
__aeabi_i2d             0x0802d125            Code  Gb  I32ToDbl.o [5]
__aeabi_ldiv0           0x0802d801            Code  Gb  I64DivZer.o [6]
__aeabi_memclr          0x0801b52d            Code  Gb  ABImemclr.o [6]
__aeabi_memset          0x0801de29            Code  Gb  ABImemset.o [6]
__aeabi_memset4         0x08021251            Code  Gb  ABImemset48.o [6]
__aeabi_memset8         0x08021251            Code  Gb  ABImemset48.o [6]
__aeabi_ui2d            0x0802d139            Code  Gb  I32ToDbl.o [5]
__aeabi_uldivmod        0x0802ce29            Code  Gb  I64DivMod.o [6]
__as_entries_start      0xffffffff             --   Gb  command line/config [2]
__as_table_start        0xffffffff             --   Gb  command line/config [2]
__cmain                 0x08040d59            Code  Gb  cmain.o [6]
__data_Aldata           0x20029ea4       0x8  Data  Gb  xxmemxmalloc.o [4]
__data_GetMemChunk      0x0802d7d5      0x2c  Code  Gb  xgetmemchunk.o [4]
__exit                  0x0803eb61      0x14  Code  Gb  exit.o [7]
__iar_Dnorm             0x0802cf17      0x42  Code  Gb  xdnorm.o [5]
__iar_Dscale            0x0802cfb9     0x114  Code  Gb  xdscale.o [5]
__iar_Locale_lconv_init
                        0x0802d6c1      0x3a  Code  Gb  localeconv.o [4]
__iar_Mbcurmax          0x0802ccd1       0xa  Code  Gb  xmbcurmax.o [4]
__iar_Memchr            0x0802cc79            Code  Gb  memchr.o [6]
__iar_Memset            0x0801de29            Code  Gb  ABImemset.o [6]
__iar_Memset4_word      0x08021259            Code  Gb  ABImemset48.o [6]
__iar_Memset8_word      0x08021259            Code  Gb  ABImemset48.o [6]
__iar_Memset_word       0x0801de31            Code  Gb  ABImemset.o [6]
__iar_Strchr            0x0802cc61            Code  Gb  strchr.o [6]
__iar_d2uiz             0x0802d105            Code  Gb  DblToI32.o [5]
__iar_dadd              0x0802d805            Code  Gb  DblAdd.o [5]
__iar_data_init3        0x08040ba9      0x28  Code  Gb  data_init.o [6]
__iar_dlib_perthread_access
                        0x0802d8d9       0x2  Code  Gb  xtls.o [4]
__iar_dsub              0x0802d169            Code  Gb  DblSub.o [5]
__iar_dsubStart         0x0802d17b            Code  Gb  DblSub.o [5]
__iar_init_vfp          0x08040d3d            Code  Gb  fpinit_M.o [5]
__iar_lz77_init3        0x0803e9fb     0x160  Code  Gb  lz77_init.o [6]
__iar_program_start     0x08040ec9            Code  Gb  cstartup_M.o [6]
__iar_ui2d              0x0802d13d            Code  Gb  I32ToDbl.o [5]
__iar_unaligned___aeabi_memcpy
                        0x0801b645            Code  Gb  ABImemcpy_unaligned.o [6]
__iar_unaligned___aeabi_memcpy4
                        0x0801b665            Code  Gb  ABImemcpy_unaligned.o [6]
__iar_unaligned___aeabi_memcpy8
                        0x0801b665            Code  Gb  ABImemcpy_unaligned.o [6]
__iar_unaligned___aeabi_memmove
                        0x0801b4b5            Code  Gb  ABImemmove_unaligned.o [6]
__iar_unaligned___aeabi_memmove4
                        0x0801b4b5            Code  Gb  ABImemmove_unaligned.o [6]
__iar_unaligned___aeabi_memmove8
                        0x0801b4b5            Code  Gb  ABImemmove_unaligned.o [6]
__iar_unaligned_memcmp  0x08027241            Code  Gb  memcmp_unaligned.o [6]
__iar_unaligned_strcpy  0x08028e0d            Code  Gb  strcpy_unaligned.o [6]
__iar_unaligned_strncpy
                        0x0802128d            Code  Gb  strncpy_unaligned.o [6]
__iar_zero_init3        0x08019ef7      0x22  Code  Gb  zero_init3.o [6]
__low_level_init        0x08040d73       0x4  Code  Gb  low_level_init.o [4]
__vector_table          0x08000000            Data  Gb  startup_stm32f429_439xx.o [1]
_aAddr                  0x0801ddc4       0x8  Data  Lc  GUIDRV_stm32f429i_discovery.o [1]
_aAlpha                 0x20029d7c       0x2  Data  Lc  GUI_SetAlpha.o [3]
_aBelongsToTask         0x0801b45c       0x8  Data  Lc  GUI_Device.o [3]
_aBufferIndex           0x20000538       0x8  Data  Lc  GUIDRV_stm32f429i_discovery.o [1]
_aBuffer_BG             0x20026f94     0xf00  Data  Lc  GUIDRV_stm32f429i_discovery.o [1]
_aBuffer_DMA2D          0x20025194     0xf00  Data  Lc  GUIDRV_stm32f429i_discovery.o [1]
_aBuffer_FG             0x20026094     0xf00  Data  Lc  GUIDRV_stm32f429i_discovery.o [1]
_aBytesPerPixels        0x20000550       0x8  Data  Lc  GUIDRV_stm32f429i_discovery.o [1]
_aColor                 0x20000864      0x14  Data  Lc  WIDGET_Effect_3D.o [3]
_aColorDisabled         0x08040494      0x10  Data  Lc  RADIO_Image.o [3]
_aColorEnabled          0x080404a4      0x10  Data  Lc  RADIO_Image.o [3]
_aCursorContext         0x20029cb0      0x28  Data  Lc  GUI_Curs1.o [3]
_aCursorLayer           0x20029e6c       0x8  Data  Lc  GUI_SelectLayer.o [3]
_aDialogCreate          0x08026098      0x8c  Data  Lc  Carbs_Screen1DLG.o [1]
_aDialogCreate          0x08029390      0xa8  Data  Lc  Carbs_Screen2DLG.o [1]
_aDialogCreate          0x0802b210      0x8c  Data  Lc  Carbs_Screen3DLG.o [1]
_aDialogCreate          0x08026268      0xc4  Data  Lc  Glucose_Screen1DLG.o [1]
_aDialogCreate          0x080295c0      0x8c  Data  Lc  Glucose_Screen2DLG.o [1]
_aDialogCreate          0x08026434      0x8c  Data  Lc  Safety_Screen1DLG.o [1]
_aDialogCreate          0x08029744      0x8c  Data  Lc  Safety_Screen2DLG.o [1]
_aDialogCreate          0x0802c534      0x8c  Data  Lc  Safety_Screen3DLG.o [1]
_aDialogCreate          0x0802993c      0xfc  Data  Lc  Safety_Screen4DLG.o [1]
_aDialogCreate          0x0802c788      0xfc  Data  Lc  Safety_Screen5DLG.o [1]
_aDialogCreate          0x08029b9c      0xe0  Data  Lc  Safety_Screen6DLG.o [1]
_aDialogCreate          0x0802ca4c      0xfc  Data  Lc  Safety_Screen7DLG.o [1]
_aDialogCreate          0x0802656c      0x70  Data  Lc  Settings_Screen1DLG.o [1]
_aLock                  0x20029cf4       0x8  Data  Lc  GUI_MULTIBUF.o [3]
_aNumBuffers            0x20029d04       0x8  Data  Lc  GUI_MULTIBUF.o [3]
_aPend                  0x20029cfc       0x8  Data  Lc  GUI_MULTIBUF.o [3]
_aPendingBuffer         0x20000530       0x8  Data  Lc  GUIDRV_stm32f429i_discovery.o [1]
_aPrevState             0x20029dc8      0x18  Data  Lc  WM_PID__GetPrevState.o [3]
_aState                 0x200004e0      0x48  Data  Lc  GUI_PID.o [3]
_aState                 0x2000036c      0x58  Data  Lc  GUI_OnKey.o [3]
_aStateLast             0x20029c28      0x18  Data  Lc  WM_Touch.o [3]
_aView                  0x20029ce4       0x8  Data  Lc  GUI_MULTIBUF.o [3]
_aWork                  0x20029cec       0x8  Data  Lc  GUI_MULTIBUF.o [3]
_aX                     0x20029d98      0x18  Data  Lc  GUI_FillPolygon.o [3]
_acAdded_Safety         0x0800acec    0x56b8  Data  Lc  demo_menu.o [1]
_acBlood_Glucose        0x0800574c    0x558c  Data  Lc  demo_menu.o [1]
_acCheck                0x08040504       0x4  Data  Lc  RADIO_Image.o [3]
_acMeals                0x080001ac    0x558c  Data  Lc  demo_menu.o [1]
_acRadio                0x080404e0      0x24  Data  Lc  RADIO_Image.o [3]
_acSettings             0x080103b8    0x558c  Data  Lc  demo_menu.o [1]
_apColorConvAPI         0x20000558       0x8  Data  Lc  GUIDRV_stm32f429i_discovery.o [1]
_apDevice               0x20029d74       0x8  Data  Lc  GUI_SetAlpha.o [3]
_apLayer                0x20000528       0x8  Data  Lc  GUIDRV_stm32f429i_discovery.o [1]
_apProps                0x0803e14c      0x10  Data  Lc  BUTTON_SkinFlex.o [3]
_apProps                0x0803de9c      0x10  Data  Lc  SPINBOX_SkinFlex.o [3]
_atan2                  0x08039389      0x84  Code  Lc  GUI_DrawLine.o [3]
_axSize                 0x20000540       0x8  Data  Lc  GUIDRV_stm32f429i_discovery.o [1]
_aySize                 0x20000548       0x8  Data  Lc  GUIDRV_stm32f429i_discovery.o [1]
_call_main              0x08040d65            Code  Gb  cmain.o [6]
_cbBk                   0x08023475      0x76  Code  Lc  demo_menu.o [1]
_cbDialog               0x08025fa5      0xc6  Code  Lc  Carbs_Screen1DLG.o [1]
_cbDialog               0x0802927d      0xe6  Code  Lc  Carbs_Screen2DLG.o [1]
_cbDialog               0x0802b041      0xe2  Code  Lc  Carbs_Screen3DLG.o [1]
_cbDialog               0x08026125     0x106  Code  Lc  Glucose_Screen1DLG.o [1]
_cbDialog               0x080294c5      0xa6  Code  Lc  Glucose_Screen2DLG.o [1]
_cbDialog               0x0802632d      0xde  Code  Lc  Safety_Screen1DLG.o [1]
_cbDialog               0x0802964d      0xca  Code  Lc  Safety_Screen2DLG.o [1]
_cbDialog               0x0802c3f1      0xb0  Code  Lc  Safety_Screen3DLG.o [1]
_cbDialog               0x080297d1     0x12e  Code  Lc  Safety_Screen4DLG.o [1]
_cbDialog               0x0802c5c1     0x186  Code  Lc  Safety_Screen5DLG.o [1]
_cbDialog               0x08029a39     0x126  Code  Lc  Safety_Screen6DLG.o [1]
_cbDialog               0x0802c885     0x186  Code  Lc  Safety_Screen7DLG.o [1]
_cbDialog               0x080264c1      0x80  Code  Lc  Settings_Screen1DLG.o [1]
_cbInvalidateOne        0x080278b9       0x4  Code  Lc  WM_BringToTop.o [3]
_cbPaintMemDev          0x08018957      0xcc  Code  Lc  WM.o [3]
_cbTimer                0x0801aa4d      0x30  Code  Lc  WM_Timer.o [3]
_exit                   0x08040d7d            Code  Gb  cexit.o [6]
_hActiveTimer           0x20029e0c       0x4  Data  Lc  GUI_Timer.o [3]
_hFirstTimer            0x20029e08       0x4  Data  Lc  GUI_Timer.o [3]
_main                   0x08040d6f            Code  Gb  cmain.o [6]
_pColor                 0x20029d84       0x4  Data  Lc  GUI_SetAlpha.o [3]
_pConvert               0x20029d58       0x4  Data  Lc  GUI__Alpha.o [3]
_pCurrent               0x20029d54       0x4  Data  Lc  GUI__Alpha.o [3]
_pData                  0x20029d5c       0x4  Data  Lc  GUI__Alpha.o [3]
_pEffectDefault         0x20000970       0x4  Data  Gb  WIDGET.o [3]
_pFirstExit             0x2000025c       0x4  Data  Lc  GUI_Core.o [3]
_pIndex                 0x20029d80       0x4  Data  Lc  GUI_SetAlpha.o [3]
_pRead                  0x200004d8       0x4  Data  Lc  GUI_PID.o [3]
_pReadKey               0x20000360       0x4  Data  Lc  GUI_OnKey.o [3]
_pSave                  0x200007e8       0x4  Data  Lc  GUI_Task.o [3]
_pWrite                 0x200004dc       0x4  Data  Lc  GUI_PID.o [3]
_pWriteKey              0x20000364       0x4  Data  Lc  GUI_OnKey.o [3]
_pcbMotion              0x20029c70       0x4  Data  Lc  WM_Touch.o [3]
_pcbSetAlpha            0x20029ed4       0x4  Data  Lc  GUIDEV_Banding.o [3]
_pcbToolTip             0x20029c74       0x4  Data  Lc  WM_Touch.o [3]
_pfAlphaBlending        0x20029d68       0x4  Data  Lc  GUI__Alpha.o [3]
_pfColor2IndexBulk      0x20029e74       0x4  Data  Lc  GUICC_M1555I.o [3]
_pfColor2IndexBulk      0x20029e7c       0x4  Data  Lc  GUICC_M4444I.o [3]
_pfColor2IndexBulk      0x20029e84       0x4  Data  Lc  GUICC_M565.o [3]
_pfColor2IndexBulk      0x20029e8c       0x4  Data  Lc  GUICC_M8888I.o [3]
_pfColor2IndexBulk      0x20029e94       0x4  Data  Lc  GUICC_M888.o [3]
_pfIndex2ColorBulk      0x20029e78       0x4  Data  Lc  GUICC_M1555I.o [3]
_pfIndex2ColorBulk      0x20029e80       0x4  Data  Lc  GUICC_M4444I.o [3]
_pfIndex2ColorBulk      0x20029e88       0x4  Data  Lc  GUICC_M565.o [3]
_pfIndex2ColorBulk      0x20029e90       0x4  Data  Lc  GUICC_M8888I.o [3]
_pfIndex2ColorBulk      0x20029e98       0x4  Data  Lc  GUICC_M888.o [3]
_pfOnPidStateChange     0x20000930       0x4  Data  Lc  BUTTON.o [3]
_pfOnTouch              0x2000092c       0x4  Data  Lc  BUTTON.o [3]
_pfSignalEvent          0x20029ed0       0x4  Data  Lc  GUI_WaitEvent.o [3]
aID                     0x0803539c      0x40  Data  Lc  GUIDEV_16.o [3]
aID                     0x08034970      0x40  Data  Lc  GUIDEV_32.o [3]
aSin                    0x0803995c      0x24  Data  Lc  GUI_DrawLine.o [3]
aTan                    0x08039980      0x24  Data  Gb  GUI_DrawLine.o [3]
abort                   0x0803eb5b       0x6  Code  Gb  abort.o [4]
acFont13ASCII_0020      0x08035dec      0x10  Data  Lc  F13_ASCII.o [3]
acFont13ASCII_0021      0x08035dfc      0x10  Data  Lc  F13_ASCII.o [3]
acFont13ASCII_0022      0x08035e0c      0x10  Data  Lc  F13_ASCII.o [3]
acFont13ASCII_0023      0x08035e1c      0x10  Data  Lc  F13_ASCII.o [3]
acFont13ASCII_0024      0x08035e2c      0x10  Data  Lc  F13_ASCII.o [3]
acFont13ASCII_0025      0x08035e3c      0x1c  Data  Lc  F13_ASCII.o [3]
acFont13ASCII_0026      0x08035e58      0x10  Data  Lc  F13_ASCII.o [3]
acFont13ASCII_0027      0x08035e68      0x10  Data  Lc  F13_ASCII.o [3]
acFont13ASCII_0028      0x08035e78      0x10  Data  Lc  F13_ASCII.o [3]
acFont13ASCII_0029      0x08035e88      0x10  Data  Lc  F13_ASCII.o [3]
acFont13ASCII_002A      0x08035e98      0x10  Data  Lc  F13_ASCII.o [3]
acFont13ASCII_002B      0x08035ea8      0x10  Data  Lc  F13_ASCII.o [3]
acFont13ASCII_002C      0x08035eb8      0x10  Data  Lc  F13_ASCII.o [3]
acFont13ASCII_002D      0x08035ec8      0x10  Data  Lc  F13_ASCII.o [3]
acFont13ASCII_002E      0x08035ed8      0x10  Data  Lc  F13_ASCII.o [3]
acFont13ASCII_002F      0x08035ee8      0x10  Data  Lc  F13_ASCII.o [3]
acFont13ASCII_0030      0x08035ef8      0x10  Data  Lc  F13_ASCII.o [3]
acFont13ASCII_0031      0x08035f08      0x10  Data  Lc  F13_ASCII.o [3]
acFont13ASCII_0032      0x08035f18      0x10  Data  Lc  F13_ASCII.o [3]
acFont13ASCII_0033      0x08035f28      0x10  Data  Lc  F13_ASCII.o [3]
